{
  "_format": "hh-sol-artifact-1",
  "contractName": "Vault",
  "sourceName": "contracts/Vault.sol",
  "abi": [
    {
      "inputs": [
        {
          "internalType": "address",
          "name": "_user",
          "type": "address"
        }
      ],
      "name": "getFiles",
      "outputs": [
        {
          "components": [
            {
              "internalType": "address",
              "name": "owner",
              "type": "address"
            },
            {
              "internalType": "uint256",
              "name": "dateUploaded",
              "type": "uint256"
            },
            {
              "internalType": "uint256",
              "name": "dateModified",
              "type": "uint256"
            },
            {
              "internalType": "uint256",
              "name": "dateAccessed",
              "type": "uint256"
            },
            {
              "internalType": "bool",
              "name": "isFavourite",
              "type": "bool"
            },
            {
              "internalType": "bool",
              "name": "isArchived",
              "type": "bool"
            },
            {
              "internalType": "string",
              "name": "cid",
              "type": "string"
            },
            {
              "internalType": "string",
              "name": "name",
              "type": "string"
            },
            {
              "internalType": "string",
              "name": "description",
              "type": "string"
            },
            {
              "internalType": "string",
              "name": "extension",
              "type": "string"
            },
            {
              "internalType": "string",
              "name": "size",
              "type": "string"
            },
            {
              "internalType": "enum Vault.Tags",
              "name": "tag",
              "type": "uint8"
            }
          ],
          "internalType": "struct Vault.File[]",
          "name": "",
          "type": "tuple[]"
        }
      ],
      "stateMutability": "view",
      "type": "function"
    },
    {
      "inputs": [
        {
          "internalType": "address",
          "name": "_user",
          "type": "address"
        },
        {
          "internalType": "uint256",
          "name": "_tag",
          "type": "uint256"
        }
      ],
      "name": "getFilesByTag",
      "outputs": [
        {
          "components": [
            {
              "internalType": "address",
              "name": "owner",
              "type": "address"
            },
            {
              "internalType": "uint256",
              "name": "dateUploaded",
              "type": "uint256"
            },
            {
              "internalType": "uint256",
              "name": "dateModified",
              "type": "uint256"
            },
            {
              "internalType": "uint256",
              "name": "dateAccessed",
              "type": "uint256"
            },
            {
              "internalType": "bool",
              "name": "isFavourite",
              "type": "bool"
            },
            {
              "internalType": "bool",
              "name": "isArchived",
              "type": "bool"
            },
            {
              "internalType": "string",
              "name": "cid",
              "type": "string"
            },
            {
              "internalType": "string",
              "name": "name",
              "type": "string"
            },
            {
              "internalType": "string",
              "name": "description",
              "type": "string"
            },
            {
              "internalType": "string",
              "name": "extension",
              "type": "string"
            },
            {
              "internalType": "string",
              "name": "size",
              "type": "string"
            },
            {
              "internalType": "enum Vault.Tags",
              "name": "tag",
              "type": "uint8"
            }
          ],
          "internalType": "struct Vault.File[]",
          "name": "",
          "type": "tuple[]"
        }
      ],
      "stateMutability": "view",
      "type": "function"
    },
    {
      "inputs": [
        {
          "internalType": "address",
          "name": "_user",
          "type": "address"
        }
      ],
      "name": "getFilesMarkedAsFavourite",
      "outputs": [
        {
          "components": [
            {
              "internalType": "address",
              "name": "owner",
              "type": "address"
            },
            {
              "internalType": "uint256",
              "name": "dateUploaded",
              "type": "uint256"
            },
            {
              "internalType": "uint256",
              "name": "dateModified",
              "type": "uint256"
            },
            {
              "internalType": "uint256",
              "name": "dateAccessed",
              "type": "uint256"
            },
            {
              "internalType": "bool",
              "name": "isFavourite",
              "type": "bool"
            },
            {
              "internalType": "bool",
              "name": "isArchived",
              "type": "bool"
            },
            {
              "internalType": "string",
              "name": "cid",
              "type": "string"
            },
            {
              "internalType": "string",
              "name": "name",
              "type": "string"
            },
            {
              "internalType": "string",
              "name": "description",
              "type": "string"
            },
            {
              "internalType": "string",
              "name": "extension",
              "type": "string"
            },
            {
              "internalType": "string",
              "name": "size",
              "type": "string"
            },
            {
              "internalType": "enum Vault.Tags",
              "name": "tag",
              "type": "uint8"
            }
          ],
          "internalType": "struct Vault.File[]",
          "name": "",
          "type": "tuple[]"
        }
      ],
      "stateMutability": "view",
      "type": "function"
    },
    {
      "inputs": [],
      "name": "getTags",
      "outputs": [
        {
          "internalType": "string[]",
          "name": "",
          "type": "string[]"
        }
      ],
      "stateMutability": "pure",
      "type": "function"
    },
    {
      "inputs": [],
      "name": "getUsersWithAccess",
      "outputs": [
        {
          "components": [
            {
              "internalType": "address",
              "name": "user",
              "type": "address"
            },
            {
              "internalType": "bool",
              "name": "hasAccess",
              "type": "bool"
            }
          ],
          "internalType": "struct Vault.Access[]",
          "name": "",
          "type": "tuple[]"
        }
      ],
      "stateMutability": "view",
      "type": "function"
    },
    {
      "inputs": [
        {
          "internalType": "address",
          "name": "user",
          "type": "address"
        }
      ],
      "name": "shareVault",
      "outputs": [],
      "stateMutability": "nonpayable",
      "type": "function"
    },
    {
      "inputs": [
        {
          "internalType": "address",
          "name": "user",
          "type": "address"
        }
      ],
      "name": "unshareVault",
      "outputs": [],
      "stateMutability": "nonpayable",
      "type": "function"
    },
    {
      "inputs": [
        {
          "internalType": "address",
          "name": "_owner",
          "type": "address"
        },
        {
          "internalType": "string",
          "name": "_name",
          "type": "string"
        },
        {
          "internalType": "string",
          "name": "_description",
          "type": "string"
        },
        {
          "internalType": "string",
          "name": "_size",
          "type": "string"
        },
        {
          "internalType": "string",
          "name": "_extension",
          "type": "string"
        },
        {
          "internalType": "bool",
          "name": "_isFavourite",
          "type": "bool"
        },
        {
          "internalType": "enum Vault.Tags",
          "name": "_tag",
          "type": "uint8"
        },
        {
          "internalType": "string",
          "name": "_cid",
          "type": "string"
        }
      ],
      "name": "uploadFile",
      "outputs": [],
      "stateMutability": "nonpayable",
      "type": "function"
    }
  ],
  "bytecode": "0x608060405234801561001057600080fd5b50612e5f806100206000396000f3fe608060405234801561001057600080fd5b50600436106100885760003560e01c8063471513541161005b57806347151354146101135780635c0720a21461012f578063995d9ab71461015f578063f9e9a9d11461017d57610088565b806324aa6fcc1461008d5780632ee5796c146100a95780633f130e92146100c5578063433bf37b146100e3575b600080fd5b6100a760048036038101906100a29190612195565b6101ad565b005b6100c360048036038101906100be9190612195565b6105f3565b005b6100cd610815565b6040516100da91906122ca565b60405180910390f35b6100fd60048036038101906100f89190612195565b61091e565b60405161010a91906125ee565b60405180910390f35b61012d60048036038101906101289190612796565b610e7a565b005b61014960048036038101906101449190612904565b6110bb565b60405161015691906125ee565b60405180910390f35b61016761171d565b6040516101749190612a06565b60405180910390f35b61019760048036038101906101929190612195565b611a49565b6040516101a491906125ee565b60405180910390f35b60018060003373ffffffffffffffffffffffffffffffffffffffff1673ffffffffffffffffffffffffffffffffffffffff16815260200190815260200160002060008373ffffffffffffffffffffffffffffffffffffffff1673ffffffffffffffffffffffffffffffffffffffff16815260200190815260200160002060006101000a81548160ff021916908315150217905550600360003373ffffffffffffffffffffffffffffffffffffffff1673ffffffffffffffffffffffffffffffffffffffff16815260200190815260200160002060008273ffffffffffffffffffffffffffffffffffffffff1673ffffffffffffffffffffffffffffffffffffffff16815260200190815260200160002060009054906101000a900460ff161561045f5760005b600260003373ffffffffffffffffffffffffffffffffffffffff1673ffffffffffffffffffffffffffffffffffffffff16815260200190815260200160002080549050811015610459578173ffffffffffffffffffffffffffffffffffffffff16600260003373ffffffffffffffffffffffffffffffffffffffff1673ffffffffffffffffffffffffffffffffffffffff168152602001908152602001600020828154811061038557610384612a28565b5b9060005260206000200160000160009054906101000a900473ffffffffffffffffffffffffffffffffffffffff1673ffffffffffffffffffffffffffffffffffffffff1603610446576001600260003373ffffffffffffffffffffffffffffffffffffffff1673ffffffffffffffffffffffffffffffffffffffff168152602001908152602001600020828154811061042157610420612a28565b5b9060005260206000200160000160146101000a81548160ff0219169083151502179055505b808061045190612a86565b9150506102d3565b506105f0565b600260003373ffffffffffffffffffffffffffffffffffffffff1673ffffffffffffffffffffffffffffffffffffffff16815260200190815260200160002060405180604001604052808373ffffffffffffffffffffffffffffffffffffffff168152602001600115158152509080600181540180825580915050600190039060005260206000200160009091909190915060008201518160000160006101000a81548173ffffffffffffffffffffffffffffffffffffffff021916908373ffffffffffffffffffffffffffffffffffffffff16021790555060208201518160000160146101000a81548160ff02191690831515021790555050506001600360003373ffffffffffffffffffffffffffffffffffffffff1673ffffffffffffffffffffffffffffffffffffffff16815260200190815260200160002060008373ffffffffffffffffffffffffffffffffffffffff1673ffffffffffffffffffffffffffffffffffffffff16815260200190815260200160002060006101000a81548160ff0219169083151502179055505b50565b6000600160003373ffffffffffffffffffffffffffffffffffffffff1673ffffffffffffffffffffffffffffffffffffffff16815260200190815260200160002060008373ffffffffffffffffffffffffffffffffffffffff1673ffffffffffffffffffffffffffffffffffffffff16815260200190815260200160002060006101000a81548160ff02191690831515021790555060005b600260003373ffffffffffffffffffffffffffffffffffffffff1673ffffffffffffffffffffffffffffffffffffffff16815260200190815260200160002080549050811015610811578173ffffffffffffffffffffffffffffffffffffffff16600260003373ffffffffffffffffffffffffffffffffffffffff1673ffffffffffffffffffffffffffffffffffffffff168152602001908152602001600020828154811061073d5761073c612a28565b5b9060005260206000200160000160009054906101000a900473ffffffffffffffffffffffffffffffffffffffff1673ffffffffffffffffffffffffffffffffffffffff16036107fe576000600260003373ffffffffffffffffffffffffffffffffffffffff1673ffffffffffffffffffffffffffffffffffffffff16815260200190815260200160002082815481106107d9576107d8612a28565b5b9060005260206000200160000160146101000a81548160ff0219169083151502179055505b808061080990612a86565b91505061068b565b5050565b6060600260003373ffffffffffffffffffffffffffffffffffffffff1673ffffffffffffffffffffffffffffffffffffffff168152602001908152602001600020805480602002602001604051908101604052809291908181526020016000905b82821015610915578382906000526020600020016040518060400160405290816000820160009054906101000a900473ffffffffffffffffffffffffffffffffffffffff1673ffffffffffffffffffffffffffffffffffffffff1673ffffffffffffffffffffffffffffffffffffffff1681526020016000820160149054906101000a900460ff16151515158152505081526020019060010190610876565b50505050905090565b60603373ffffffffffffffffffffffffffffffffffffffff168273ffffffffffffffffffffffffffffffffffffffff1614806109e05750600160008373ffffffffffffffffffffffffffffffffffffffff1673ffffffffffffffffffffffffffffffffffffffff16815260200190815260200160002060003373ffffffffffffffffffffffffffffffffffffffff1673ffffffffffffffffffffffffffffffffffffffff16815260200190815260200160002060009054906101000a900460ff165b610a1f576040517f08c379a0000000000000000000000000000000000000000000000000000000008152600401610a1690612b2b565b60405180910390fd5b6000808373ffffffffffffffffffffffffffffffffffffffff1673ffffffffffffffffffffffffffffffffffffffff168152602001908152602001600020805480602002602001604051908101604052809291908181526020016000905b82821015610e6f57838290600052602060002090600b0201604051806101800160405290816000820160009054906101000a900473ffffffffffffffffffffffffffffffffffffffff1673ffffffffffffffffffffffffffffffffffffffff1673ffffffffffffffffffffffffffffffffffffffff1681526020016001820154815260200160028201548152602001600382015481526020016004820160009054906101000a900460ff161515151581526020016004820160019054906101000a900460ff16151515158152602001600582018054610b5b90612b7a565b80601f0160208091040260200160405190810160405280929190818152602001828054610b8790612b7a565b8015610bd45780601f10610ba957610100808354040283529160200191610bd4565b820191906000526020600020905b815481529060010190602001808311610bb757829003601f168201915b50505050508152602001600682018054610bed90612b7a565b80601f0160208091040260200160405190810160405280929190818152602001828054610c1990612b7a565b8015610c665780601f10610c3b57610100808354040283529160200191610c66565b820191906000526020600020905b815481529060010190602001808311610c4957829003601f168201915b50505050508152602001600782018054610c7f90612b7a565b80601f0160208091040260200160405190810160405280929190818152602001828054610cab90612b7a565b8015610cf85780601f10610ccd57610100808354040283529160200191610cf8565b820191906000526020600020905b815481529060010190602001808311610cdb57829003601f168201915b50505050508152602001600882018054610d1190612b7a565b80601f0160208091040260200160405190810160405280929190818152602001828054610d3d90612b7a565b8015610d8a5780601f10610d5f57610100808354040283529160200191610d8a565b820191906000526020600020905b815481529060010190602001808311610d6d57829003601f168201915b50505050508152602001600982018054610da390612b7a565b80601f0160208091040260200160405190810160405280929190818152602001828054610dcf90612b7a565b8015610e1c5780601f10610df157610100808354040283529160200191610e1c565b820191906000526020600020905b815481529060010190602001808311610dff57829003601f168201915b50505050508152602001600a820160009054906101000a900460ff166006811115610e4a57610e496123c1565b5b6006811115610e5c57610e5b6123c1565b5b8152505081526020019060010190610a7d565b505050509050919050565b60006040518061018001604052808a73ffffffffffffffffffffffffffffffffffffffff16815260200142815260200160008152602001600081526020018515158152602001600015158152602001838152602001898152602001888152602001868152602001878152602001846006811115610efa57610ef96123c1565b5b81525090506000803373ffffffffffffffffffffffffffffffffffffffff1673ffffffffffffffffffffffffffffffffffffffff1681526020019081526020016000208190806001815401808255809150506001900390600052602060002090600b020160009091909190915060008201518160000160006101000a81548173ffffffffffffffffffffffffffffffffffffffff021916908373ffffffffffffffffffffffffffffffffffffffff16021790555060208201518160010155604082015181600201556060820151816003015560808201518160040160006101000a81548160ff02191690831515021790555060a08201518160040160016101000a81548160ff02191690831515021790555060c08201518160050190816110219190612d57565b5060e08201518160060190816110379190612d57565b5061010082015181600701908161104e9190612d57565b506101208201518160080190816110659190612d57565b5061014082015181600901908161107c9190612d57565b5061016082015181600a0160006101000a81548160ff021916908360068111156110a9576110a86123c1565b5b02179055505050505050505050505050565b60603373ffffffffffffffffffffffffffffffffffffffff168373ffffffffffffffffffffffffffffffffffffffff16148061117d5750600160008473ffffffffffffffffffffffffffffffffffffffff1673ffffffffffffffffffffffffffffffffffffffff16815260200190815260200160002060003373ffffffffffffffffffffffffffffffffffffffff1673ffffffffffffffffffffffffffffffffffffffff16815260200190815260200160002060009054906101000a900460ff165b6111bc576040517f08c379a00000000000000000000000000000000000000000000000000000000081526004016111b390612b2b565b60405180910390fd5b60008060008573ffffffffffffffffffffffffffffffffffffffff1673ffffffffffffffffffffffffffffffffffffffff168152602001908152602001600020805480602002602001604051908101604052809291908181526020016000905b8282101561160e57838290600052602060002090600b0201604051806101800160405290816000820160009054906101000a900473ffffffffffffffffffffffffffffffffffffffff1673ffffffffffffffffffffffffffffffffffffffff1673ffffffffffffffffffffffffffffffffffffffff1681526020016001820154815260200160028201548152602001600382015481526020016004820160009054906101000a900460ff161515151581526020016004820160019054906101000a900460ff161515151581526020016005820180546112fa90612b7a565b80601f016020809104026020016040519081016040528092919081815260200182805461132690612b7a565b80156113735780601f1061134857610100808354040283529160200191611373565b820191906000526020600020905b81548152906001019060200180831161135657829003601f168201915b5050505050815260200160068201805461138c90612b7a565b80601f01602080910402602001604051908101604052809291908181526020018280546113b890612b7a565b80156114055780601f106113da57610100808354040283529160200191611405565b820191906000526020600020905b8154815290600101906020018083116113e857829003601f168201915b5050505050815260200160078201805461141e90612b7a565b80601f016020809104026020016040519081016040528092919081815260200182805461144a90612b7a565b80156114975780601f1061146c57610100808354040283529160200191611497565b820191906000526020600020905b81548152906001019060200180831161147a57829003601f168201915b505050505081526020016008820180546114b090612b7a565b80601f01602080910402602001604051908101604052809291908181526020018280546114dc90612b7a565b80156115295780601f106114fe57610100808354040283529160200191611529565b820191906000526020600020905b81548152906001019060200180831161150c57829003601f168201915b5050505050815260200160098201805461154290612b7a565b80601f016020809104026020016040519081016040528092919081815260200182805461156e90612b7a565b80156115bb5780601f10611590576101008083540402835291602001916115bb565b820191906000526020600020905b81548152906001019060200180831161159e57829003601f168201915b50505050508152602001600a820160009054906101000a900460ff1660068111156115e9576115e86123c1565b5b60068111156115fb576115fa6123c1565b5b815250508152602001906001019061121c565b5050505090506000815167ffffffffffffffff8111156116315761163061261a565b5b60405190808252806020026020018201604052801561166a57816020015b611657612096565b81526020019060019003908161164f5790505b5090506000805b835181101561170d578584828151811061168e5761168d612a28565b5b6020026020010151610160015160068111156116ad576116ac6123c1565b5b036116fa578381815181106116c5576116c4612a28565b5b60200260200101518383815181106116e0576116df612a28565b5b602002602001018190525081806116f690612a86565b9250505b808061170590612a86565b915050611671565b5080825281935050505092915050565b60606000600767ffffffffffffffff81111561173c5761173b61261a565b5b60405190808252806020026020018201604052801561176f57816020015b606081526020019060019003908161175a5790505b5090506040518060400160405280600581526020017f4f7468657200000000000000000000000000000000000000000000000000000081525081600060068111156117bd576117bc6123c1565b5b815181106117ce576117cd612a28565b5b60200260200101819052506040518060400160405280600981526020017f456475636174696f6e00000000000000000000000000000000000000000000008152508160016006811115611824576118236123c1565b5b8151811061183557611834612a28565b5b60200260200101819052506040518060400160405280600681526020017f4865616c74680000000000000000000000000000000000000000000000000000815250816002600681111561188b5761188a6123c1565b5b8151811061189c5761189b612a28565b5b60200260200101819052506040518060400160405280600781526020017f46696e616e63650000000000000000000000000000000000000000000000000081525081600360068111156118f2576118f16123c1565b5b8151811061190357611902612a28565b5b60200260200101819052506040518060400160405280600881526020017f427573696e6573730000000000000000000000000000000000000000000000008152508160046006811115611959576119586123c1565b5b8151811061196a57611969612a28565b5b60200260200101819052506040518060400160405280600681526020017f46616d696c79000000000000000000000000000000000000000000000000000081525081600560068111156119c0576119bf6123c1565b5b815181106119d1576119d0612a28565b5b60200260200101819052506040518060400160405280600681526020017f52616e646f6d000000000000000000000000000000000000000000000000000081525081600680811115611a2657611a256123c1565b5b81518110611a3757611a36612a28565b5b60200260200101819052508091505090565b60603373ffffffffffffffffffffffffffffffffffffffff168273ffffffffffffffffffffffffffffffffffffffff161480611b0b5750600160008373ffffffffffffffffffffffffffffffffffffffff1673ffffffffffffffffffffffffffffffffffffffff16815260200190815260200160002060003373ffffffffffffffffffffffffffffffffffffffff1673ffffffffffffffffffffffffffffffffffffffff16815260200190815260200160002060009054906101000a900460ff165b611b4a576040517f08c379a0000000000000000000000000000000000000000000000000000000008152600401611b4190612b2b565b60405180910390fd5b60008060008473ffffffffffffffffffffffffffffffffffffffff1673ffffffffffffffffffffffffffffffffffffffff168152602001908152602001600020805480602002602001604051908101604052809291908181526020016000905b82821015611f9c57838290600052602060002090600b0201604051806101800160405290816000820160009054906101000a900473ffffffffffffffffffffffffffffffffffffffff1673ffffffffffffffffffffffffffffffffffffffff1673ffffffffffffffffffffffffffffffffffffffff1681526020016001820154815260200160028201548152602001600382015481526020016004820160009054906101000a900460ff161515151581526020016004820160019054906101000a900460ff16151515158152602001600582018054611c8890612b7a565b80601f0160208091040260200160405190810160405280929190818152602001828054611cb490612b7a565b8015611d015780601f10611cd657610100808354040283529160200191611d01565b820191906000526020600020905b815481529060010190602001808311611ce457829003601f168201915b50505050508152602001600682018054611d1a90612b7a565b80601f0160208091040260200160405190810160405280929190818152602001828054611d4690612b7a565b8015611d935780601f10611d6857610100808354040283529160200191611d93565b820191906000526020600020905b815481529060010190602001808311611d7657829003601f168201915b50505050508152602001600782018054611dac90612b7a565b80601f0160208091040260200160405190810160405280929190818152602001828054611dd890612b7a565b8015611e255780601f10611dfa57610100808354040283529160200191611e25565b820191906000526020600020905b815481529060010190602001808311611e0857829003601f168201915b50505050508152602001600882018054611e3e90612b7a565b80601f0160208091040260200160405190810160405280929190818152602001828054611e6a90612b7a565b8015611eb75780601f10611e8c57610100808354040283529160200191611eb7565b820191906000526020600020905b815481529060010190602001808311611e9a57829003601f168201915b50505050508152602001600982018054611ed090612b7a565b80601f0160208091040260200160405190810160405280929190818152602001828054611efc90612b7a565b8015611f495780601f10611f1e57610100808354040283529160200191611f49565b820191906000526020600020905b815481529060010190602001808311611f2c57829003601f168201915b50505050508152602001600a820160009054906101000a900460ff166006811115611f7757611f766123c1565b5b6006811115611f8957611f886123c1565b5b8152505081526020019060010190611baa565b5050505090506000815167ffffffffffffffff811115611fbf57611fbe61261a565b5b604051908082528060200260200182016040528015611ff857816020015b611fe5612096565b815260200190600190039081611fdd5790505b5090506000805b83518110156120875783818151811061201b5761201a612a28565b5b602002602001015160800151156120745783818151811061203f5761203e612a28565b5b602002602001015183838151811061205a57612059612a28565b5b6020026020010181905250818061207090612a86565b9250505b808061207f90612a86565b915050611fff565b50808252819350505050919050565b604051806101800160405280600073ffffffffffffffffffffffffffffffffffffffff16815260200160008152602001600081526020016000815260200160001515815260200160001515815260200160608152602001606081526020016060815260200160608152602001606081526020016000600681111561211d5761211c6123c1565b5b81525090565b6000604051905090565b600080fd5b600080fd5b600073ffffffffffffffffffffffffffffffffffffffff82169050919050565b600061216282612137565b9050919050565b61217281612157565b811461217d57600080fd5b50565b60008135905061218f81612169565b92915050565b6000602082840312156121ab576121aa61212d565b5b60006121b984828501612180565b91505092915050565b600081519050919050565b600082825260208201905092915050565b6000819050602082019050919050565b6121f781612157565b82525050565b60008115159050919050565b612212816121fd565b82525050565b60408201600082015161222e60008501826121ee565b5060208201516122416020850182612209565b50505050565b60006122538383612218565b60408301905092915050565b6000602082019050919050565b6000612277826121c2565b61228181856121cd565b935061228c836121de565b8060005b838110156122bd5781516122a48882612247565b97506122af8361225f565b925050600181019050612290565b5085935050505092915050565b600060208201905081810360008301526122e4818461226c565b905092915050565b600081519050919050565b600082825260208201905092915050565b6000819050602082019050919050565b6000819050919050565b61232b81612318565b82525050565b600081519050919050565b600082825260208201905092915050565b60005b8381101561236b578082015181840152602081019050612350565b60008484015250505050565b6000601f19601f8301169050919050565b600061239382612331565b61239d818561233c565b93506123ad81856020860161234d565b6123b681612377565b840191505092915050565b7f4e487b7100000000000000000000000000000000000000000000000000000000600052602160045260246000fd5b60078110612401576124006123c1565b5b50565b6000819050612412826123f0565b919050565b600061242282612404565b9050919050565b61243281612417565b82525050565b60006101808301600083015161245160008601826121ee565b5060208301516124646020860182612322565b5060408301516124776040860182612322565b50606083015161248a6060860182612322565b50608083015161249d6080860182612209565b5060a08301516124b060a0860182612209565b5060c083015184820360c08601526124c88282612388565b91505060e083015184820360e08601526124e28282612388565b9150506101008301518482036101008601526124fe8282612388565b91505061012083015184820361012086015261251a8282612388565b9150506101408301518482036101408601526125368282612388565b91505061016083015161254d610160860182612429565b508091505092915050565b60006125648383612438565b905092915050565b6000602082019050919050565b6000612584826122ec565b61258e81856122f7565b9350836020820285016125a085612308565b8060005b858110156125dc57848403895281516125bd8582612558565b94506125c88361256c565b925060208a019950506001810190506125a4565b50829750879550505050505092915050565b600060208201905081810360008301526126088184612579565b905092915050565b600080fd5b600080fd5b7f4e487b7100000000000000000000000000000000000000000000000000000000600052604160045260246000fd5b61265282612377565b810181811067ffffffffffffffff821117156126715761267061261a565b5b80604052505050565b6000612684612123565b90506126908282612649565b919050565b600067ffffffffffffffff8211156126b0576126af61261a565b5b6126b982612377565b9050602081019050919050565b82818337600083830152505050565b60006126e86126e384612695565b61267a565b90508281526020810184848401111561270457612703612615565b5b61270f8482856126c6565b509392505050565b600082601f83011261272c5761272b612610565b5b813561273c8482602086016126d5565b91505092915050565b61274e816121fd565b811461275957600080fd5b50565b60008135905061276b81612745565b92915050565b6007811061277e57600080fd5b50565b60008135905061279081612771565b92915050565b600080600080600080600080610100898b0312156127b7576127b661212d565b5b60006127c58b828c01612180565b985050602089013567ffffffffffffffff8111156127e6576127e5612132565b5b6127f28b828c01612717565b975050604089013567ffffffffffffffff81111561281357612812612132565b5b61281f8b828c01612717565b965050606089013567ffffffffffffffff8111156128405761283f612132565b5b61284c8b828c01612717565b955050608089013567ffffffffffffffff81111561286d5761286c612132565b5b6128798b828c01612717565b94505060a061288a8b828c0161275c565b93505060c061289b8b828c01612781565b92505060e089013567ffffffffffffffff8111156128bc576128bb612132565b5b6128c88b828c01612717565b9150509295985092959890939650565b6128e181612318565b81146128ec57600080fd5b50565b6000813590506128fe816128d8565b92915050565b6000806040838503121561291b5761291a61212d565b5b600061292985828601612180565b925050602061293a858286016128ef565b9150509250929050565b600081519050919050565b600082825260208201905092915050565b6000819050602082019050919050565b600061297c8383612388565b905092915050565b6000602082019050919050565b600061299c82612944565b6129a6818561294f565b9350836020820285016129b885612960565b8060005b858110156129f457848403895281516129d58582612970565b94506129e083612984565b925060208a019950506001810190506129bc565b50829750879550505050505092915050565b60006020820190508181036000830152612a208184612991565b905092915050565b7f4e487b7100000000000000000000000000000000000000000000000000000000600052603260045260246000fd5b7f4e487b7100000000000000000000000000000000000000000000000000000000600052601160045260246000fd5b6000612a9182612318565b91507fffffffffffffffffffffffffffffffffffffffffffffffffffffffffffffffff8203612ac357612ac2612a57565b5b600182019050919050565b600082825260208201905092915050565b7f596f7520646f6e27742068617665206163636573730000000000000000000000600082015250565b6000612b15601583612ace565b9150612b2082612adf565b602082019050919050565b60006020820190508181036000830152612b4481612b08565b9050919050565b7f4e487b7100000000000000000000000000000000000000000000000000000000600052602260045260246000fd5b60006002820490506001821680612b9257607f821691505b602082108103612ba557612ba4612b4b565b5b50919050565b60008190508160005260206000209050919050565b60006020601f8301049050919050565b600082821b905092915050565b600060088302612c0d7fffffffffffffffffffffffffffffffffffffffffffffffffffffffffffffffff82612bd0565b612c178683612bd0565b95508019841693508086168417925050509392505050565b6000819050919050565b6000612c54612c4f612c4a84612318565b612c2f565b612318565b9050919050565b6000819050919050565b612c6e83612c39565b612c82612c7a82612c5b565b848454612bdd565b825550505050565b600090565b612c97612c8a565b612ca2818484612c65565b505050565b5b81811015612cc657612cbb600082612c8f565b600181019050612ca8565b5050565b601f821115612d0b57612cdc81612bab565b612ce584612bc0565b81016020851015612cf4578190505b612d08612d0085612bc0565b830182612ca7565b50505b505050565b600082821c905092915050565b6000612d2e60001984600802612d10565b1980831691505092915050565b6000612d478383612d1d565b9150826002028217905092915050565b612d6082612331565b67ffffffffffffffff811115612d7957612d7861261a565b5b612d838254612b7a565b612d8e828285612cca565b600060209050601f831160018114612dc15760008415612daf578287015190505b612db98582612d3b565b865550612e21565b601f198416612dcf86612bab565b60005b82811015612df757848901518255600182019150602085019450602081019050612dd2565b86831015612e145784890151612e10601f891682612d1d565b8355505b6001600288020188555050505b50505050505056fea264697066735822122094fb6c60c89c24e1a7899bf3c1d319d32486ad30a1c8436eb6cbfaada10c1e6d64736f6c63430008110033",
  "linkReferences": {},
  "deployedLinkReferences": {}
}