{
  "_format": "hh-sol-artifact-1",
  "contractName": "Vault",
  "sourceName": "contracts/Vault.sol",
  "abi": [
    {
      "inputs": [
        {
          "internalType": "string",
          "name": "_cid",
          "type": "string"
        },
        {
          "internalType": "string",
          "name": "_name",
          "type": "string"
        },
        {
          "internalType": "string",
          "name": "_description",
          "type": "string"
        },
        {
          "internalType": "enum Vault.Tags",
          "name": "_tag",
          "type": "uint8"
        },
        {
          "internalType": "string",
          "name": "_extension",
          "type": "string"
        }
      ],
      "name": "editFile",
      "outputs": [],
      "stateMutability": "nonpayable",
      "type": "function"
    },
    {
      "inputs": [
        {
          "internalType": "string",
          "name": "_cid",
          "type": "string"
        }
      ],
      "name": "getFile",
      "outputs": [
        {
          "components": [
            {
              "internalType": "address",
              "name": "owner",
              "type": "address"
            },
            {
              "internalType": "string",
              "name": "name",
              "type": "string"
            },
            {
              "internalType": "string",
              "name": "description",
              "type": "string"
            },
            {
              "internalType": "uint256",
              "name": "size",
              "type": "uint256"
            },
            {
              "internalType": "uint256",
              "name": "dateUploaded",
              "type": "uint256"
            },
            {
              "internalType": "uint256",
              "name": "dateAccessed",
              "type": "uint256"
            },
            {
              "internalType": "uint256",
              "name": "dateDeleted",
              "type": "uint256"
            },
            {
              "internalType": "uint256",
              "name": "dateModified",
              "type": "uint256"
            },
            {
              "internalType": "string",
              "name": "cid",
              "type": "string"
            },
            {
              "internalType": "bool",
              "name": "isFavourite",
              "type": "bool"
            },
            {
              "internalType": "bool",
              "name": "isArchived",
              "type": "bool"
            },
            {
              "internalType": "bool",
              "name": "isDeleted",
              "type": "bool"
            },
            {
              "internalType": "string",
              "name": "extension",
              "type": "string"
            },
            {
              "internalType": "enum Vault.Tags",
              "name": "tag",
              "type": "uint8"
            }
          ],
          "internalType": "struct Vault.File",
          "name": "",
          "type": "tuple"
        }
      ],
      "stateMutability": "view",
      "type": "function"
    },
    {
      "inputs": [
        {
          "internalType": "string",
          "name": "_cid",
          "type": "string"
        }
      ],
      "name": "getFileAccessors",
      "outputs": [
        {
          "internalType": "address[]",
          "name": "",
          "type": "address[]"
        }
      ],
      "stateMutability": "view",
      "type": "function"
    },
    {
      "inputs": [],
      "name": "getFiles",
      "outputs": [
        {
          "components": [
            {
              "internalType": "address",
              "name": "owner",
              "type": "address"
            },
            {
              "internalType": "string",
              "name": "name",
              "type": "string"
            },
            {
              "internalType": "string",
              "name": "description",
              "type": "string"
            },
            {
              "internalType": "uint256",
              "name": "size",
              "type": "uint256"
            },
            {
              "internalType": "uint256",
              "name": "dateUploaded",
              "type": "uint256"
            },
            {
              "internalType": "uint256",
              "name": "dateAccessed",
              "type": "uint256"
            },
            {
              "internalType": "uint256",
              "name": "dateDeleted",
              "type": "uint256"
            },
            {
              "internalType": "uint256",
              "name": "dateModified",
              "type": "uint256"
            },
            {
              "internalType": "string",
              "name": "cid",
              "type": "string"
            },
            {
              "internalType": "bool",
              "name": "isFavourite",
              "type": "bool"
            },
            {
              "internalType": "bool",
              "name": "isArchived",
              "type": "bool"
            },
            {
              "internalType": "bool",
              "name": "isDeleted",
              "type": "bool"
            },
            {
              "internalType": "string",
              "name": "extension",
              "type": "string"
            },
            {
              "internalType": "enum Vault.Tags",
              "name": "tag",
              "type": "uint8"
            }
          ],
          "internalType": "struct Vault.File[]",
          "name": "",
          "type": "tuple[]"
        }
      ],
      "stateMutability": "view",
      "type": "function"
    },
    {
      "inputs": [],
      "name": "getFilesSharedWithMe",
      "outputs": [
        {
          "components": [
            {
              "internalType": "string",
              "name": "cid",
              "type": "string"
            },
            {
              "internalType": "address",
              "name": "owner",
              "type": "address"
            },
            {
              "internalType": "address",
              "name": "recipient",
              "type": "address"
            }
          ],
          "internalType": "struct Vault.SharedFile[]",
          "name": "",
          "type": "tuple[]"
        }
      ],
      "stateMutability": "view",
      "type": "function"
    },
    {
      "inputs": [],
      "name": "getTags",
      "outputs": [
        {
          "internalType": "string[]",
          "name": "",
          "type": "string[]"
        }
      ],
      "stateMutability": "pure",
      "type": "function"
    },
    {
      "inputs": [
        {
          "internalType": "string",
          "name": "_cid",
          "type": "string"
        },
        {
          "internalType": "address",
          "name": "_user",
          "type": "address"
        }
      ],
      "name": "shareFile",
      "outputs": [],
      "stateMutability": "nonpayable",
      "type": "function"
    },
    {
      "inputs": [
        {
          "internalType": "string",
          "name": "_cid",
          "type": "string"
        }
      ],
      "name": "toggleArchive",
      "outputs": [],
      "stateMutability": "nonpayable",
      "type": "function"
    },
    {
      "inputs": [
        {
          "internalType": "string",
          "name": "_cid",
          "type": "string"
        }
      ],
      "name": "toggleDelete",
      "outputs": [],
      "stateMutability": "nonpayable",
      "type": "function"
    },
    {
      "inputs": [
        {
          "internalType": "string",
          "name": "_cid",
          "type": "string"
        }
      ],
      "name": "toggleFavourite",
      "outputs": [],
      "stateMutability": "nonpayable",
      "type": "function"
    },
    {
      "inputs": [
        {
          "internalType": "string",
          "name": "_cid",
          "type": "string"
        },
        {
          "internalType": "address",
          "name": "_user",
          "type": "address"
        }
      ],
      "name": "unshareFile",
      "outputs": [],
      "stateMutability": "nonpayable",
      "type": "function"
    },
    {
      "inputs": [
        {
          "internalType": "string",
          "name": "_cid",
          "type": "string"
        }
      ],
      "name": "updateDateAccessed",
      "outputs": [],
      "stateMutability": "nonpayable",
      "type": "function"
    },
    {
      "inputs": [
        {
          "internalType": "string",
          "name": "_cid",
          "type": "string"
        }
      ],
      "name": "updateDateModified",
      "outputs": [],
      "stateMutability": "nonpayable",
      "type": "function"
    },
    {
      "inputs": [
        {
          "internalType": "string",
          "name": "_cid",
          "type": "string"
        },
        {
          "internalType": "string",
          "name": "_name",
          "type": "string"
        },
        {
          "internalType": "string",
          "name": "_description",
          "type": "string"
        },
        {
          "internalType": "bool",
          "name": "_isFavourite",
          "type": "bool"
        },
        {
          "internalType": "uint256",
          "name": "_size",
          "type": "uint256"
        },
        {
          "internalType": "string",
          "name": "_extension",
          "type": "string"
        },
        {
          "internalType": "enum Vault.Tags",
          "name": "_tag",
          "type": "uint8"
        }
      ],
      "name": "uploadFile",
      "outputs": [],
      "stateMutability": "nonpayable",
      "type": "function"
    }
  ],
  "bytecode": "0x608060405234801561001057600080fd5b50614319806100206000396000f3fe608060405234801561001057600080fd5b50600436106100ea5760003560e01c806396b946471161008c578063b85f472c11610066578063b85f472c14610221578063bc88637a1461023d578063e0876aa814610259578063ebceb82c14610289576100ea565b806396b94647146101c957806396dc7c33146101e5578063995d9ab714610203576100ea565b80633539e493116100c85780633539e4931461014557806335ab4727146101755780637204270e1461019157806382bbe2b1146101ad576100ea565b8063264ced07146100ef5780632ba0f8df1461010b5780632da96d7314610127575b600080fd5b610109600480360381019061010491906130f8565b6102a5565b005b6101256004803603810190610120919061320a565b6105e2565b005b61012f610816565b60405161013c91906135ad565b60405180910390f35b61015f600480360381019061015a919061320a565b610ded565b60405161016c919061367e565b60405180910390f35b61018f600480360381019061018a919061320a565b610f21565b005b6101ab60048036038101906101a6919061320a565b611155565b005b6101c760048036038101906101c2919061320a565b6112a9565b005b6101e360048036038101906101de91906136cc565b6113fd565b005b6101ed6118f0565b6040516101fa919061383a565b60405180910390f35b61020b611dac565b604051610218919061391e565b60405180910390f35b61023b6004803603810190610236919061320a565b6120d8565b005b61025760048036038101906102529190613940565b6124c1565b005b610273600480360381019061026e919061320a565b612681565b6040516102809190613b6e565b60405180910390f35b6102a3600480360381019061029e91906136cc565b612a52565b005b60008060003373ffffffffffffffffffffffffffffffffffffffff1673ffffffffffffffffffffffffffffffffffffffff168152602001908152602001600020886040516102f39190613bcc565b9081526020016040518091039020600801805461030f90613c12565b905014610351576040517f08c379a000000000000000000000000000000000000000000000000000000000815260040161034890613ca0565b60405180910390fd5b604051806101c001604052803373ffffffffffffffffffffffffffffffffffffffff1681526020018781526020018681526020018481526020014281526020014281526020016000815260200142815260200188815260200185151581526020016000151581526020016000151581526020018381526020018260068111156103dd576103dc61335d565b5b8152506000803373ffffffffffffffffffffffffffffffffffffffff1673ffffffffffffffffffffffffffffffffffffffff1681526020019081526020016000208860405161042c9190613bcc565b908152602001604051809103902060008201518160000160006101000a81548173ffffffffffffffffffffffffffffffffffffffff021916908373ffffffffffffffffffffffffffffffffffffffff16021790555060208201518160010190816104969190613e6c565b5060408201518160020190816104ac9190613e6c565b50606082015181600301556080820151816004015560a0820151816005015560c0820151816006015560e082015181600701556101008201518160080190816104f59190613e6c565b506101208201518160090160006101000a81548160ff0219169083151502179055506101408201518160090160016101000a81548160ff0219169083151502179055506101608201518160090160026101000a81548160ff02191690831515021790555061018082015181600a01908161056f9190613e6c565b506101a082015181600b0160006101000a81548160ff0219169083600681111561059c5761059b61335d565b5b02179055509050506004879080600181540180825580915050600190039060005260206000200160009091909190915090816105d89190613e6c565b5050505050505050565b33818173ffffffffffffffffffffffffffffffffffffffff166000808473ffffffffffffffffffffffffffffffffffffffff1673ffffffffffffffffffffffffffffffffffffffff168152602001908152602001600020826040516106479190613bcc565b908152602001604051809103902060000160009054906101000a900473ffffffffffffffffffffffffffffffffffffffff1673ffffffffffffffffffffffffffffffffffffffff16146106cf576040517f08c379a00000000000000000000000000000000000000000000000000000000081526004016106c690613f8a565b60405180910390fd5b6000803373ffffffffffffffffffffffffffffffffffffffff1673ffffffffffffffffffffffffffffffffffffffff1681526020019081526020016000208360405161071b9190613bcc565b908152602001604051809103902060090160019054906101000a900460ff16156000803373ffffffffffffffffffffffffffffffffffffffff1673ffffffffffffffffffffffffffffffffffffffff168152602001908152602001600020846040516107879190613bcc565b908152602001604051809103902060090160016101000a81548160ff021916908315150217905550426000803373ffffffffffffffffffffffffffffffffffffffff1673ffffffffffffffffffffffffffffffffffffffff168152602001908152602001600020846040516107fc9190613bcc565b908152602001604051809103902060070181905550505050565b6060600060048054905067ffffffffffffffff81111561083957610838612f3a565b5b60405190808252806020026020018201604052801561087257816020015b61085f612dc4565b8152602001906001900390816108575790505b5090506000805b600480549050811015610de45760006004828154811061089c5761089b613faa565b5b9060005260206000200180546108b190613c12565b80601f01602080910402602001604051908101604052809291908181526020018280546108dd90613c12565b801561092a5780601f106108ff5761010080835404028352916020019161092a565b820191906000526020600020905b81548152906001019060200180831161090d57829003601f168201915b505050505090503373ffffffffffffffffffffffffffffffffffffffff166000803373ffffffffffffffffffffffffffffffffffffffff1673ffffffffffffffffffffffffffffffffffffffff168152602001908152602001600020826040516109949190613bcc565b908152602001604051809103902060000160009054906101000a900473ffffffffffffffffffffffffffffffffffffffff1673ffffffffffffffffffffffffffffffffffffffff1603610dd0576000803373ffffffffffffffffffffffffffffffffffffffff1673ffffffffffffffffffffffffffffffffffffffff16815260200190815260200160002081604051610a2d9190613bcc565b9081526020016040518091039020604051806101c00160405290816000820160009054906101000a900473ffffffffffffffffffffffffffffffffffffffff1673ffffffffffffffffffffffffffffffffffffffff1673ffffffffffffffffffffffffffffffffffffffff168152602001600182018054610aad90613c12565b80601f0160208091040260200160405190810160405280929190818152602001828054610ad990613c12565b8015610b265780601f10610afb57610100808354040283529160200191610b26565b820191906000526020600020905b815481529060010190602001808311610b0957829003601f168201915b50505050508152602001600282018054610b3f90613c12565b80601f0160208091040260200160405190810160405280929190818152602001828054610b6b90613c12565b8015610bb85780601f10610b8d57610100808354040283529160200191610bb8565b820191906000526020600020905b815481529060010190602001808311610b9b57829003601f168201915b505050505081526020016003820154815260200160048201548152602001600582015481526020016006820154815260200160078201548152602001600882018054610c0390613c12565b80601f0160208091040260200160405190810160405280929190818152602001828054610c2f90613c12565b8015610c7c5780601f10610c5157610100808354040283529160200191610c7c565b820191906000526020600020905b815481529060010190602001808311610c5f57829003601f168201915b505050505081526020016009820160009054906101000a900460ff161515151581526020016009820160019054906101000a900460ff161515151581526020016009820160029054906101000a900460ff16151515158152602001600a82018054610ce690613c12565b80601f0160208091040260200160405190810160405280929190818152602001828054610d1290613c12565b8015610d5f5780601f10610d3457610100808354040283529160200191610d5f565b820191906000526020600020905b815481529060010190602001808311610d4257829003601f168201915b50505050508152602001600b820160009054906101000a900460ff166006811115610d8d57610d8c61335d565b5b6006811115610d9f57610d9e61335d565b5b81525050848481518110610db657610db5613faa565b5b60200260200101819052508280610dcc90614008565b9350505b508080610ddc90614008565b915050610879565b50819250505090565b60606000600183604051610e019190613bcc565b908152602001604051809103902090506000818054905067ffffffffffffffff811115610e3157610e30612f3a565b5b604051908082528060200260200182016040528015610e5f5781602001602082028036833780820191505090505b50905060005b8280549050811015610f1657828181548110610e8457610e83613faa565b5b906000526020600020906003020160020160009054906101000a900473ffffffffffffffffffffffffffffffffffffffff16828281518110610ec957610ec8613faa565b5b602002602001019073ffffffffffffffffffffffffffffffffffffffff16908173ffffffffffffffffffffffffffffffffffffffff16815250508080610f0e90614008565b915050610e65565b508092505050919050565b33818173ffffffffffffffffffffffffffffffffffffffff166000808473ffffffffffffffffffffffffffffffffffffffff1673ffffffffffffffffffffffffffffffffffffffff16815260200190815260200160002082604051610f869190613bcc565b908152602001604051809103902060000160009054906101000a900473ffffffffffffffffffffffffffffffffffffffff1673ffffffffffffffffffffffffffffffffffffffff161461100e576040517f08c379a000000000000000000000000000000000000000000000000000000000815260040161100590613f8a565b60405180910390fd5b6000803373ffffffffffffffffffffffffffffffffffffffff1673ffffffffffffffffffffffffffffffffffffffff1681526020019081526020016000208360405161105a9190613bcc565b908152602001604051809103902060090160009054906101000a900460ff16156000803373ffffffffffffffffffffffffffffffffffffffff1673ffffffffffffffffffffffffffffffffffffffff168152602001908152602001600020846040516110c69190613bcc565b908152602001604051809103902060090160006101000a81548160ff021916908315150217905550426000803373ffffffffffffffffffffffffffffffffffffffff1673ffffffffffffffffffffffffffffffffffffffff1681526020019081526020016000208460405161113b9190613bcc565b908152602001604051809103902060070181905550505050565b33818173ffffffffffffffffffffffffffffffffffffffff166000808473ffffffffffffffffffffffffffffffffffffffff1673ffffffffffffffffffffffffffffffffffffffff168152602001908152602001600020826040516111ba9190613bcc565b908152602001604051809103902060000160009054906101000a900473ffffffffffffffffffffffffffffffffffffffff1673ffffffffffffffffffffffffffffffffffffffff1614611242576040517f08c379a000000000000000000000000000000000000000000000000000000000815260040161123990613f8a565b60405180910390fd5b426000803373ffffffffffffffffffffffffffffffffffffffff1673ffffffffffffffffffffffffffffffffffffffff1681526020019081526020016000208460405161128f9190613bcc565b908152602001604051809103902060050181905550505050565b33818173ffffffffffffffffffffffffffffffffffffffff166000808473ffffffffffffffffffffffffffffffffffffffff1673ffffffffffffffffffffffffffffffffffffffff1681526020019081526020016000208260405161130e9190613bcc565b908152602001604051809103902060000160009054906101000a900473ffffffffffffffffffffffffffffffffffffffff1673ffffffffffffffffffffffffffffffffffffffff1614611396576040517f08c379a000000000000000000000000000000000000000000000000000000000815260040161138d90613f8a565b60405180910390fd5b426000803373ffffffffffffffffffffffffffffffffffffffff1673ffffffffffffffffffffffffffffffffffffffff168152602001908152602001600020846040516113e39190613bcc565b908152602001604051809103902060070181905550505050565b33828173ffffffffffffffffffffffffffffffffffffffff166000808473ffffffffffffffffffffffffffffffffffffffff1673ffffffffffffffffffffffffffffffffffffffff168152602001908152602001600020826040516114629190613bcc565b908152602001604051809103902060000160009054906101000a900473ffffffffffffffffffffffffffffffffffffffff1673ffffffffffffffffffffffffffffffffffffffff16146114ea576040517f08c379a00000000000000000000000000000000000000000000000000000000081526004016114e190613f8a565b60405180910390fd5b6002846040516114fa9190613bcc565b908152602001604051809103902060008473ffffffffffffffffffffffffffffffffffffffff1673ffffffffffffffffffffffffffffffffffffffff16815260200190815260200160002060009054906101000a900460ff16611592576040517f08c379a0000000000000000000000000000000000000000000000000000000008152600401611589906140c2565b60405180910390fd5b60006001856040516115a49190613bcc565b9081526020016040518091039020905060005b8180549050811015611886578473ffffffffffffffffffffffffffffffffffffffff168282815481106115ed576115ec613faa565b5b906000526020600020906003020160020160009054906101000a900473ffffffffffffffffffffffffffffffffffffffff1673ffffffffffffffffffffffffffffffffffffffff160361187357816001838054905061164c91906140e2565b8154811061165d5761165c613faa565b5b906000526020600020906003020182828154811061167e5761167d613faa565b5b9060005260206000209060030201600082018160000190816116a0919061412c565b506001820160009054906101000a900473ffffffffffffffffffffffffffffffffffffffff168160010160006101000a81548173ffffffffffffffffffffffffffffffffffffffff021916908373ffffffffffffffffffffffffffffffffffffffff1602179055506002820160009054906101000a900473ffffffffffffffffffffffffffffffffffffffff168160020160006101000a81548173ffffffffffffffffffffffffffffffffffffffff021916908373ffffffffffffffffffffffffffffffffffffffff1602179055509050508180548061178357611782614214565b5b6001900381819060005260206000209060030201600080820160006117a89190612e61565b6001820160006101000a81549073ffffffffffffffffffffffffffffffffffffffff02191690556002820160006101000a81549073ffffffffffffffffffffffffffffffffffffffff021916905550509055600060028760405161180c9190613bcc565b908152602001604051809103902060008773ffffffffffffffffffffffffffffffffffffffff1673ffffffffffffffffffffffffffffffffffffffff16815260200190815260200160002060006101000a81548160ff021916908315150217905550611886565b808061187e90614008565b9150506115b7565b50426000803373ffffffffffffffffffffffffffffffffffffffff1673ffffffffffffffffffffffffffffffffffffffff168152602001908152602001600020866040516118d49190613bcc565b9081526020016040518091039020600701819055505050505050565b60606000805b6004805490508110156119f15760006004828154811061191957611918613faa565b5b90600052602060002001805461192e90613c12565b80601f016020809104026020016040519081016040528092919081815260200182805461195a90613c12565b80156119a75780601f1061197c576101008083540402835291602001916119a7565b820191906000526020600020905b81548152906001019060200180831161198a57829003601f168201915b505050505090506001816040516119be9190613bcc565b908152602001604051809103902080549050836119db9190614243565b92505080806119e990614008565b9150506118f6565b5060008167ffffffffffffffff811115611a0e57611a0d612f3a565b5b604051908082528060200260200182016040528015611a4757816020015b611a34612ea1565b815260200190600190039081611a2c5790505b5090506000805b600480549050811015611da257600060048281548110611a7157611a70613faa565b5b906000526020600020018054611a8690613c12565b80601f0160208091040260200160405190810160405280929190818152602001828054611ab290613c12565b8015611aff5780601f10611ad457610100808354040283529160200191611aff565b820191906000526020600020905b815481529060010190602001808311611ae257829003601f168201915b5050505050905060005b600182604051611b199190613bcc565b908152602001604051809103902080549050811015611d8d573373ffffffffffffffffffffffffffffffffffffffff16600183604051611b599190613bcc565b90815260200160405180910390208281548110611b7957611b78613faa565b5b906000526020600020906003020160020160009054906101000a900473ffffffffffffffffffffffffffffffffffffffff1673ffffffffffffffffffffffffffffffffffffffff1603611d7a57600182604051611bd69190613bcc565b90815260200160405180910390208181548110611bf657611bf5613faa565b5b9060005260206000209060030201604051806060016040529081600082018054611c1f90613c12565b80601f0160208091040260200160405190810160405280929190818152602001828054611c4b90613c12565b8015611c985780601f10611c6d57610100808354040283529160200191611c98565b820191906000526020600020905b815481529060010190602001808311611c7b57829003601f168201915b505050505081526020016001820160009054906101000a900473ffffffffffffffffffffffffffffffffffffffff1673ffffffffffffffffffffffffffffffffffffffff1673ffffffffffffffffffffffffffffffffffffffff1681526020016002820160009054906101000a900473ffffffffffffffffffffffffffffffffffffffff1673ffffffffffffffffffffffffffffffffffffffff1673ffffffffffffffffffffffffffffffffffffffff1681525050858581518110611d6057611d5f613faa565b5b60200260200101819052508380611d7690614008565b9450505b8080611d8590614008565b915050611b09565b50508080611d9a90614008565b915050611a4e565b5081935050505090565b60606000600767ffffffffffffffff811115611dcb57611dca612f3a565b5b604051908082528060200260200182016040528015611dfe57816020015b6060815260200190600190039081611de95790505b5090506040518060400160405280600581526020017f4f746865720000000000000000000000000000000000000000000000000000008152508160006006811115611e4c57611e4b61335d565b5b81518110611e5d57611e5c613faa565b5b60200260200101819052506040518060400160405280600981526020017f456475636174696f6e00000000000000000000000000000000000000000000008152508160016006811115611eb357611eb261335d565b5b81518110611ec457611ec3613faa565b5b60200260200101819052506040518060400160405280600681526020017f4865616c746800000000000000000000000000000000000000000000000000008152508160026006811115611f1a57611f1961335d565b5b81518110611f2b57611f2a613faa565b5b60200260200101819052506040518060400160405280600781526020017f46696e616e6365000000000000000000000000000000000000000000000000008152508160036006811115611f8157611f8061335d565b5b81518110611f9257611f91613faa565b5b60200260200101819052506040518060400160405280600881526020017f427573696e6573730000000000000000000000000000000000000000000000008152508160046006811115611fe857611fe761335d565b5b81518110611ff957611ff8613faa565b5b60200260200101819052506040518060400160405280600681526020017f46616d696c790000000000000000000000000000000000000000000000000000815250816005600681111561204f5761204e61335d565b5b815181106120605761205f613faa565b5b60200260200101819052506040518060400160405280600681526020017f52616e646f6d0000000000000000000000000000000000000000000000000000815250816006808111156120b5576120b461335d565b5b815181106120c6576120c5613faa565b5b60200260200101819052508091505090565b33818173ffffffffffffffffffffffffffffffffffffffff166000808473ffffffffffffffffffffffffffffffffffffffff1673ffffffffffffffffffffffffffffffffffffffff1681526020019081526020016000208260405161213d9190613bcc565b908152602001604051809103902060000160009054906101000a900473ffffffffffffffffffffffffffffffffffffffff1673ffffffffffffffffffffffffffffffffffffffff16146121c5576040517f08c379a00000000000000000000000000000000000000000000000000000000081526004016121bc90613f8a565b60405180910390fd5b6000803373ffffffffffffffffffffffffffffffffffffffff1673ffffffffffffffffffffffffffffffffffffffff168152602001908152602001600020836040516122119190613bcc565b908152602001604051809103902060090160029054906101000a900460ff16156123ac5760008060003373ffffffffffffffffffffffffffffffffffffffff1673ffffffffffffffffffffffffffffffffffffffff168152602001908152602001600020846040516122839190613bcc565b908152602001604051809103902060090160026101000a81548160ff02191690831515021790555060006003846040516122bd9190613bcc565b908152602001604051809103902060006101000a81548160ff021916908315150217905550426000803373ffffffffffffffffffffffffffffffffffffffff1673ffffffffffffffffffffffffffffffffffffffff1681526020019081526020016000208460405161232f9190613bcc565b90815260200160405180910390206007018190555060008060003373ffffffffffffffffffffffffffffffffffffffff1673ffffffffffffffffffffffffffffffffffffffff168152602001908152602001600020846040516123929190613bcc565b9081526020016040518091039020600601819055506124bc565b60016000803373ffffffffffffffffffffffffffffffffffffffff1673ffffffffffffffffffffffffffffffffffffffff168152602001908152602001600020846040516123fa9190613bcc565b908152602001604051809103902060090160026101000a81548160ff021916908315150217905550426000803373ffffffffffffffffffffffffffffffffffffffff1673ffffffffffffffffffffffffffffffffffffffff1681526020019081526020016000208460405161246f9190613bcc565b90815260200160405180910390206006018190555060016003846040516124969190613bcc565b908152602001604051809103902060006101000a81548160ff0219169083151502179055505b505050565b33858173ffffffffffffffffffffffffffffffffffffffff166000808473ffffffffffffffffffffffffffffffffffffffff1673ffffffffffffffffffffffffffffffffffffffff168152602001908152602001600020826040516125269190613bcc565b908152602001604051809103902060000160009054906101000a900473ffffffffffffffffffffffffffffffffffffffff1673ffffffffffffffffffffffffffffffffffffffff16146125ae576040517f08c379a00000000000000000000000000000000000000000000000000000000081526004016125a590613f8a565b60405180910390fd5b60008060003373ffffffffffffffffffffffffffffffffffffffff1673ffffffffffffffffffffffffffffffffffffffff168152602001908152602001600020886040516125fc9190613bcc565b908152602001604051809103902090508681600101908161261d9190613e6c565b508581600201908161262f9190613e6c565b508481600b0160006101000a81548160ff021916908360068111156126575761265661335d565b5b02179055508381600a01908161266d9190613e6c565b504281600701819055505050505050505050565b612689612dc4565b6000803373ffffffffffffffffffffffffffffffffffffffff1673ffffffffffffffffffffffffffffffffffffffff168152602001908152602001600020826040516126d59190613bcc565b9081526020016040518091039020604051806101c00160405290816000820160009054906101000a900473ffffffffffffffffffffffffffffffffffffffff1673ffffffffffffffffffffffffffffffffffffffff1673ffffffffffffffffffffffffffffffffffffffff16815260200160018201805461275590613c12565b80601f016020809104026020016040519081016040528092919081815260200182805461278190613c12565b80156127ce5780601f106127a3576101008083540402835291602001916127ce565b820191906000526020600020905b8154815290600101906020018083116127b157829003601f168201915b505050505081526020016002820180546127e790613c12565b80601f016020809104026020016040519081016040528092919081815260200182805461281390613c12565b80156128605780601f1061283557610100808354040283529160200191612860565b820191906000526020600020905b81548152906001019060200180831161284357829003601f168201915b5050505050815260200160038201548152602001600482015481526020016005820154815260200160068201548152602001600782015481526020016008820180546128ab90613c12565b80601f01602080910402602001604051908101604052809291908181526020018280546128d790613c12565b80156129245780601f106128f957610100808354040283529160200191612924565b820191906000526020600020905b81548152906001019060200180831161290757829003601f168201915b505050505081526020016009820160009054906101000a900460ff161515151581526020016009820160019054906101000a900460ff161515151581526020016009820160029054906101000a900460ff16151515158152602001600a8201805461298e90613c12565b80601f01602080910402602001604051908101604052809291908181526020018280546129ba90613c12565b8015612a075780601f106129dc57610100808354040283529160200191612a07565b820191906000526020600020905b8154815290600101906020018083116129ea57829003601f168201915b50505050508152602001600b820160009054906101000a900460ff166006811115612a3557612a3461335d565b5b6006811115612a4757612a4661335d565b5b815250509050919050565b33828173ffffffffffffffffffffffffffffffffffffffff166000808473ffffffffffffffffffffffffffffffffffffffff1673ffffffffffffffffffffffffffffffffffffffff16815260200190815260200160002082604051612ab79190613bcc565b908152602001604051809103902060000160009054906101000a900473ffffffffffffffffffffffffffffffffffffffff1673ffffffffffffffffffffffffffffffffffffffff1614612b3f576040517f08c379a0000000000000000000000000000000000000000000000000000000008152600401612b3690613f8a565b60405180910390fd5b600073ffffffffffffffffffffffffffffffffffffffff168373ffffffffffffffffffffffffffffffffffffffff1603612bae576040517f08c379a0000000000000000000000000000000000000000000000000000000008152600401612ba5906142c3565b60405180910390fd5b600060405180606001604052808681526020013373ffffffffffffffffffffffffffffffffffffffff1681526020018573ffffffffffffffffffffffffffffffffffffffff168152509050600185604051612c099190613bcc565b90815260200160405180910390208190806001815401808255809150506001900390600052602060002090600302016000909190919091506000820151816000019081612c569190613e6c565b5060208201518160010160006101000a81548173ffffffffffffffffffffffffffffffffffffffff021916908373ffffffffffffffffffffffffffffffffffffffff16021790555060408201518160020160006101000a81548173ffffffffffffffffffffffffffffffffffffffff021916908373ffffffffffffffffffffffffffffffffffffffff16021790555050506001600286604051612cf99190613bcc565b908152602001604051809103902060008673ffffffffffffffffffffffffffffffffffffffff1673ffffffffffffffffffffffffffffffffffffffff16815260200190815260200160002060006101000a81548160ff021916908315150217905550426000803373ffffffffffffffffffffffffffffffffffffffff1673ffffffffffffffffffffffffffffffffffffffff16815260200190815260200160002086604051612da89190613bcc565b9081526020016040518091039020600501819055505050505050565b604051806101c00160405280600073ffffffffffffffffffffffffffffffffffffffff16815260200160608152602001606081526020016000815260200160008152602001600081526020016000815260200160008152602001606081526020016000151581526020016000151581526020016000151581526020016060815260200160006006811115612e5b57612e5a61335d565b5b81525090565b508054612e6d90613c12565b6000825580601f10612e7f5750612e9e565b601f016020900490600052602060002090810190612e9d9190612eee565b5b50565b604051806060016040528060608152602001600073ffffffffffffffffffffffffffffffffffffffff168152602001600073ffffffffffffffffffffffffffffffffffffffff1681525090565b5b80821115612f07576000816000905550600101612eef565b5090565b6000604051905090565b600080fd5b600080fd5b600080fd5b600080fd5b6000601f19601f8301169050919050565b7f4e487b7100000000000000000000000000000000000000000000000000000000600052604160045260246000fd5b612f7282612f29565b810181811067ffffffffffffffff82111715612f9157612f90612f3a565b5b80604052505050565b6000612fa4612f0b565b9050612fb08282612f69565b919050565b600067ffffffffffffffff821115612fd057612fcf612f3a565b5b612fd982612f29565b9050602081019050919050565b82818337600083830152505050565b600061300861300384612fb5565b612f9a565b90508281526020810184848401111561302457613023612f24565b5b61302f848285612fe6565b509392505050565b600082601f83011261304c5761304b612f1f565b5b813561305c848260208601612ff5565b91505092915050565b60008115159050919050565b61307a81613065565b811461308557600080fd5b50565b60008135905061309781613071565b92915050565b6000819050919050565b6130b08161309d565b81146130bb57600080fd5b50565b6000813590506130cd816130a7565b92915050565b600781106130e057600080fd5b50565b6000813590506130f2816130d3565b92915050565b600080600080600080600060e0888a03121561311757613116612f15565b5b600088013567ffffffffffffffff81111561313557613134612f1a565b5b6131418a828b01613037565b975050602088013567ffffffffffffffff81111561316257613161612f1a565b5b61316e8a828b01613037565b965050604088013567ffffffffffffffff81111561318f5761318e612f1a565b5b61319b8a828b01613037565b95505060606131ac8a828b01613088565b94505060806131bd8a828b016130be565b93505060a088013567ffffffffffffffff8111156131de576131dd612f1a565b5b6131ea8a828b01613037565b92505060c06131fb8a828b016130e3565b91505092959891949750929550565b6000602082840312156132205761321f612f15565b5b600082013567ffffffffffffffff81111561323e5761323d612f1a565b5b61324a84828501613037565b91505092915050565b600081519050919050565b600082825260208201905092915050565b6000819050602082019050919050565b600073ffffffffffffffffffffffffffffffffffffffff82169050919050565b60006132aa8261327f565b9050919050565b6132ba8161329f565b82525050565b600081519050919050565b600082825260208201905092915050565b60005b838110156132fa5780820151818401526020810190506132df565b60008484015250505050565b6000613311826132c0565b61331b81856132cb565b935061332b8185602086016132dc565b61333481612f29565b840191505092915050565b6133488161309d565b82525050565b61335781613065565b82525050565b7f4e487b7100000000000000000000000000000000000000000000000000000000600052602160045260246000fd5b6007811061339d5761339c61335d565b5b50565b60008190506133ae8261338c565b919050565b60006133be826133a0565b9050919050565b6133ce816133b3565b82525050565b60006101c0830160008301516133ed60008601826132b1565b50602083015184820360208601526134058282613306565b9150506040830151848203604086015261341f8282613306565b9150506060830151613434606086018261333f565b506080830151613447608086018261333f565b5060a083015161345a60a086018261333f565b5060c083015161346d60c086018261333f565b5060e083015161348060e086018261333f565b5061010083015184820361010086015261349a8282613306565b9150506101208301516134b161012086018261334e565b506101408301516134c661014086018261334e565b506101608301516134db61016086018261334e565b506101808301518482036101808601526134f58282613306565b9150506101a083015161350c6101a08601826133c5565b508091505092915050565b600061352383836133d4565b905092915050565b6000602082019050919050565b600061354382613253565b61354d818561325e565b93508360208202850161355f8561326f565b8060005b8581101561359b578484038952815161357c8582613517565b94506135878361352b565b925060208a01995050600181019050613563565b50829750879550505050505092915050565b600060208201905081810360008301526135c78184613538565b905092915050565b600081519050919050565b600082825260208201905092915050565b6000819050602082019050919050565b600061360783836132b1565b60208301905092915050565b6000602082019050919050565b600061362b826135cf565b61363581856135da565b9350613640836135eb565b8060005b8381101561367157815161365888826135fb565b975061366383613613565b925050600181019050613644565b5085935050505092915050565b600060208201905081810360008301526136988184613620565b905092915050565b6136a98161329f565b81146136b457600080fd5b50565b6000813590506136c6816136a0565b92915050565b600080604083850312156136e3576136e2612f15565b5b600083013567ffffffffffffffff81111561370157613700612f1a565b5b61370d85828601613037565b925050602061371e858286016136b7565b9150509250929050565b600081519050919050565b600082825260208201905092915050565b6000819050602082019050919050565b600060608301600083015184820360008601526137718282613306565b915050602083015161378660208601826132b1565b50604083015161379960408601826132b1565b508091505092915050565b60006137b08383613754565b905092915050565b6000602082019050919050565b60006137d082613728565b6137da8185613733565b9350836020820285016137ec85613744565b8060005b85811015613828578484038952815161380985826137a4565b9450613814836137b8565b925060208a019950506001810190506137f0565b50829750879550505050505092915050565b6000602082019050818103600083015261385481846137c5565b905092915050565b600081519050919050565b600082825260208201905092915050565b6000819050602082019050919050565b60006138948383613306565b905092915050565b6000602082019050919050565b60006138b48261385c565b6138be8185613867565b9350836020820285016138d085613878565b8060005b8581101561390c57848403895281516138ed8582613888565b94506138f88361389c565b925060208a019950506001810190506138d4565b50829750879550505050505092915050565b6000602082019050818103600083015261393881846138a9565b905092915050565b600080600080600060a0868803121561395c5761395b612f15565b5b600086013567ffffffffffffffff81111561397a57613979612f1a565b5b61398688828901613037565b955050602086013567ffffffffffffffff8111156139a7576139a6612f1a565b5b6139b388828901613037565b945050604086013567ffffffffffffffff8111156139d4576139d3612f1a565b5b6139e088828901613037565b93505060606139f1888289016130e3565b925050608086013567ffffffffffffffff811115613a1257613a11612f1a565b5b613a1e88828901613037565b9150509295509295909350565b60006101c083016000830151613a4460008601826132b1565b5060208301518482036020860152613a5c8282613306565b91505060408301518482036040860152613a768282613306565b9150506060830151613a8b606086018261333f565b506080830151613a9e608086018261333f565b5060a0830151613ab160a086018261333f565b5060c0830151613ac460c086018261333f565b5060e0830151613ad760e086018261333f565b50610100830151848203610100860152613af18282613306565b915050610120830151613b0861012086018261334e565b50610140830151613b1d61014086018261334e565b50610160830151613b3261016086018261334e565b50610180830151848203610180860152613b4c8282613306565b9150506101a0830151613b636101a08601826133c5565b508091505092915050565b60006020820190508181036000830152613b888184613a2b565b905092915050565b600081905092915050565b6000613ba6826132c0565b613bb08185613b90565b9350613bc08185602086016132dc565b80840191505092915050565b6000613bd88284613b9b565b915081905092915050565b7f4e487b7100000000000000000000000000000000000000000000000000000000600052602260045260246000fd5b60006002820490506001821680613c2a57607f821691505b602082108103613c3d57613c3c613be3565b5b50919050565b600082825260208201905092915050565b7f46696c6520616c72656164792065786973747300000000000000000000000000600082015250565b6000613c8a601383613c43565b9150613c9582613c54565b602082019050919050565b60006020820190508181036000830152613cb981613c7d565b9050919050565b60008190508160005260206000209050919050565b60006020601f8301049050919050565b600082821b905092915050565b600060088302613d227fffffffffffffffffffffffffffffffffffffffffffffffffffffffffffffffff82613ce5565b613d2c8683613ce5565b95508019841693508086168417925050509392505050565b6000819050919050565b6000613d69613d64613d5f8461309d565b613d44565b61309d565b9050919050565b6000819050919050565b613d8383613d4e565b613d97613d8f82613d70565b848454613cf2565b825550505050565b600090565b613dac613d9f565b613db7818484613d7a565b505050565b5b81811015613ddb57613dd0600082613da4565b600181019050613dbd565b5050565b601f821115613e2057613df181613cc0565b613dfa84613cd5565b81016020851015613e09578190505b613e1d613e1585613cd5565b830182613dbc565b50505b505050565b600082821c905092915050565b6000613e4360001984600802613e25565b1980831691505092915050565b6000613e5c8383613e32565b9150826002028217905092915050565b613e75826132c0565b67ffffffffffffffff811115613e8e57613e8d612f3a565b5b613e988254613c12565b613ea3828285613ddf565b600060209050601f831160018114613ed65760008415613ec4578287015190505b613ece8582613e50565b865550613f36565b601f198416613ee486613cc0565b60005b82811015613f0c57848901518255600182019150602085019450602081019050613ee7565b86831015613f295784890151613f25601f891682613e32565b8355505b6001600288020188555050505b505050505050565b7f46696c6520646f6573206e6f7420657869737400000000000000000000000000600082015250565b6000613f74601383613c43565b9150613f7f82613f3e565b602082019050919050565b60006020820190508181036000830152613fa381613f67565b9050919050565b7f4e487b7100000000000000000000000000000000000000000000000000000000600052603260045260246000fd5b7f4e487b7100000000000000000000000000000000000000000000000000000000600052601160045260246000fd5b60006140138261309d565b91507fffffffffffffffffffffffffffffffffffffffffffffffffffffffffffffffff820361404557614044613fd9565b5b600182019050919050565b7f46696c65206973206e6f7420736861726564207769746820746869732075736560008201527f7200000000000000000000000000000000000000000000000000000000000000602082015250565b60006140ac602183613c43565b91506140b782614050565b604082019050919050565b600060208201905081810360008301526140db8161409f565b9050919050565b60006140ed8261309d565b91506140f88361309d565b92508282039050818111156141105761410f613fd9565b5b92915050565b60008154905061412581613c12565b9050919050565b81810361413a575050614212565b61414382614116565b67ffffffffffffffff81111561415c5761415b612f3a565b5b6141668254613c12565b614171828285613ddf565b6000601f8311600181146141a0576000841561418e578287015490505b6141988582613e50565b86555061420b565b601f1984166141ae87613cc0565b96506141b986613cc0565b60005b828110156141e1578489015482556001820191506001850194506020810190506141bc565b868310156141fe57848901546141fa601f891682613e32565b8355505b6001600288020188555050505b5050505050505b565b7f4e487b7100000000000000000000000000000000000000000000000000000000600052603160045260246000fd5b600061424e8261309d565b91506142598361309d565b925082820190508082111561427157614270613fd9565b5b92915050565b7f496e76616c696420757365722061646472657373000000000000000000000000600082015250565b60006142ad601483613c43565b91506142b882614277565b602082019050919050565b600060208201905081810360008301526142dc816142a0565b905091905056fea2646970667358221220676b36b32852f06a69f4e514a9d3f6a79df3160588c9febb6bd7837df9a1fb5764736f6c63430008110033",
  "linkReferences": {},
  "deployedLinkReferences": {}
}