{
  "_format": "hh-sol-artifact-1",
  "contractName": "Vault",
  "sourceName": "contracts/Vault.sol",
  "abi": [
    {
      "inputs": [
        {
          "internalType": "address",
          "name": "_user",
          "type": "address"
        }
      ],
      "name": "getFiles",
      "outputs": [
        {
          "components": [
            {
              "internalType": "uint256",
              "name": "id",
              "type": "uint256"
            },
            {
              "internalType": "address",
              "name": "owner",
              "type": "address"
            },
            {
              "internalType": "uint256",
              "name": "dateUploaded",
              "type": "uint256"
            },
            {
              "internalType": "uint256",
              "name": "dateModified",
              "type": "uint256"
            },
            {
              "internalType": "uint256",
              "name": "dateAccessed",
              "type": "uint256"
            },
            {
              "internalType": "bool",
              "name": "isFavourite",
              "type": "bool"
            },
            {
              "internalType": "bool",
              "name": "isArchived",
              "type": "bool"
            },
            {
              "internalType": "string",
              "name": "cid",
              "type": "string"
            },
            {
              "internalType": "string",
              "name": "name",
              "type": "string"
            },
            {
              "internalType": "string",
              "name": "description",
              "type": "string"
            },
            {
              "internalType": "string",
              "name": "extension",
              "type": "string"
            },
            {
              "internalType": "enum Vault.Tags",
              "name": "tag",
              "type": "uint8"
            }
          ],
          "internalType": "struct Vault.File[]",
          "name": "",
          "type": "tuple[]"
        }
      ],
      "stateMutability": "view",
      "type": "function"
    },
    {
      "inputs": [
        {
          "internalType": "address",
          "name": "_user",
          "type": "address"
        },
        {
          "internalType": "uint256",
          "name": "_tag",
          "type": "uint256"
        }
      ],
      "name": "getFilesByTag",
      "outputs": [
        {
          "components": [
            {
              "internalType": "uint256",
              "name": "id",
              "type": "uint256"
            },
            {
              "internalType": "address",
              "name": "owner",
              "type": "address"
            },
            {
              "internalType": "uint256",
              "name": "dateUploaded",
              "type": "uint256"
            },
            {
              "internalType": "uint256",
              "name": "dateModified",
              "type": "uint256"
            },
            {
              "internalType": "uint256",
              "name": "dateAccessed",
              "type": "uint256"
            },
            {
              "internalType": "bool",
              "name": "isFavourite",
              "type": "bool"
            },
            {
              "internalType": "bool",
              "name": "isArchived",
              "type": "bool"
            },
            {
              "internalType": "string",
              "name": "cid",
              "type": "string"
            },
            {
              "internalType": "string",
              "name": "name",
              "type": "string"
            },
            {
              "internalType": "string",
              "name": "description",
              "type": "string"
            },
            {
              "internalType": "string",
              "name": "extension",
              "type": "string"
            },
            {
              "internalType": "enum Vault.Tags",
              "name": "tag",
              "type": "uint8"
            }
          ],
          "internalType": "struct Vault.File[]",
          "name": "",
          "type": "tuple[]"
        }
      ],
      "stateMutability": "view",
      "type": "function"
    },
    {
      "inputs": [
        {
          "internalType": "address",
          "name": "_user",
          "type": "address"
        }
      ],
      "name": "getFilesMarkedAsFavourite",
      "outputs": [
        {
          "components": [
            {
              "internalType": "uint256",
              "name": "id",
              "type": "uint256"
            },
            {
              "internalType": "address",
              "name": "owner",
              "type": "address"
            },
            {
              "internalType": "uint256",
              "name": "dateUploaded",
              "type": "uint256"
            },
            {
              "internalType": "uint256",
              "name": "dateModified",
              "type": "uint256"
            },
            {
              "internalType": "uint256",
              "name": "dateAccessed",
              "type": "uint256"
            },
            {
              "internalType": "bool",
              "name": "isFavourite",
              "type": "bool"
            },
            {
              "internalType": "bool",
              "name": "isArchived",
              "type": "bool"
            },
            {
              "internalType": "string",
              "name": "cid",
              "type": "string"
            },
            {
              "internalType": "string",
              "name": "name",
              "type": "string"
            },
            {
              "internalType": "string",
              "name": "description",
              "type": "string"
            },
            {
              "internalType": "string",
              "name": "extension",
              "type": "string"
            },
            {
              "internalType": "enum Vault.Tags",
              "name": "tag",
              "type": "uint8"
            }
          ],
          "internalType": "struct Vault.File[]",
          "name": "",
          "type": "tuple[]"
        }
      ],
      "stateMutability": "view",
      "type": "function"
    },
    {
      "inputs": [],
      "name": "getTags",
      "outputs": [
        {
          "internalType": "string[]",
          "name": "",
          "type": "string[]"
        }
      ],
      "stateMutability": "pure",
      "type": "function"
    },
    {
      "inputs": [],
      "name": "getUsersWithAccess",
      "outputs": [
        {
          "components": [
            {
              "internalType": "address",
              "name": "user",
              "type": "address"
            },
            {
              "internalType": "bool",
              "name": "hasAccess",
              "type": "bool"
            }
          ],
          "internalType": "struct Vault.Access[]",
          "name": "",
          "type": "tuple[]"
        }
      ],
      "stateMutability": "view",
      "type": "function"
    },
    {
      "inputs": [
        {
          "internalType": "address",
          "name": "user",
          "type": "address"
        }
      ],
      "name": "shareVault",
      "outputs": [],
      "stateMutability": "nonpayable",
      "type": "function"
    },
    {
      "inputs": [
        {
          "internalType": "address",
          "name": "user",
          "type": "address"
        }
      ],
      "name": "unshareVault",
      "outputs": [],
      "stateMutability": "nonpayable",
      "type": "function"
    },
    {
      "inputs": [
        {
          "internalType": "address",
          "name": "_owner",
          "type": "address"
        },
        {
          "internalType": "string",
          "name": "_name",
          "type": "string"
        },
        {
          "internalType": "string",
          "name": "_description",
          "type": "string"
        },
        {
          "internalType": "string",
          "name": "_extension",
          "type": "string"
        },
        {
          "internalType": "bool",
          "name": "_isFavourite",
          "type": "bool"
        },
        {
          "internalType": "enum Vault.Tags",
          "name": "_tag",
          "type": "uint8"
        },
        {
          "internalType": "string",
          "name": "_cid",
          "type": "string"
        }
      ],
      "name": "uploadFile",
      "outputs": [],
      "stateMutability": "nonpayable",
      "type": "function"
    }
  ],
  "bytecode": "0x608060405234801561001057600080fd5b50612d30806100206000396000f3fe608060405234801561001057600080fd5b50600436106100885760003560e01c80635c0720a21161005b5780635c0720a214610113578063995d9ab714610143578063dcc0b6e614610161578063f9e9a9d11461017d57610088565b806324aa6fcc1461008d5780632ee5796c146100a95780633f130e92146100c5578063433bf37b146100e3575b600080fd5b6100a760048036038101906100a29190612069565b6101ad565b005b6100c360048036038101906100be9190612069565b6105f3565b005b6100cd610815565b6040516100da919061219e565b60405180910390f35b6100fd60048036038101906100f89190612069565b61091e565b60405161010a91906124bb565b60405180910390f35b61012d60048036038101906101289190612509565b610df2565b60405161013a91906124bb565b60405180910390f35b61014b6113cc565b604051610158919061260b565b60405180910390f35b61017b600480360381019061017691906127b3565b6116f8565b005b61019760048036038101906101929190612069565b611933565b6040516101a491906124bb565b60405180910390f35b60018060003373ffffffffffffffffffffffffffffffffffffffff1673ffffffffffffffffffffffffffffffffffffffff16815260200190815260200160002060008373ffffffffffffffffffffffffffffffffffffffff1673ffffffffffffffffffffffffffffffffffffffff16815260200190815260200160002060006101000a81548160ff021916908315150217905550600360003373ffffffffffffffffffffffffffffffffffffffff1673ffffffffffffffffffffffffffffffffffffffff16815260200190815260200160002060008273ffffffffffffffffffffffffffffffffffffffff1673ffffffffffffffffffffffffffffffffffffffff16815260200190815260200160002060009054906101000a900460ff161561045f5760005b600260003373ffffffffffffffffffffffffffffffffffffffff1673ffffffffffffffffffffffffffffffffffffffff16815260200190815260200160002080549050811015610459578173ffffffffffffffffffffffffffffffffffffffff16600260003373ffffffffffffffffffffffffffffffffffffffff1673ffffffffffffffffffffffffffffffffffffffff1681526020019081526020016000208281548110610385576103846128c5565b5b9060005260206000200160000160009054906101000a900473ffffffffffffffffffffffffffffffffffffffff1673ffffffffffffffffffffffffffffffffffffffff1603610446576001600260003373ffffffffffffffffffffffffffffffffffffffff1673ffffffffffffffffffffffffffffffffffffffff1681526020019081526020016000208281548110610421576104206128c5565b5b9060005260206000200160000160146101000a81548160ff0219169083151502179055505b808061045190612923565b9150506102d3565b506105f0565b600260003373ffffffffffffffffffffffffffffffffffffffff1673ffffffffffffffffffffffffffffffffffffffff16815260200190815260200160002060405180604001604052808373ffffffffffffffffffffffffffffffffffffffff168152602001600115158152509080600181540180825580915050600190039060005260206000200160009091909190915060008201518160000160006101000a81548173ffffffffffffffffffffffffffffffffffffffff021916908373ffffffffffffffffffffffffffffffffffffffff16021790555060208201518160000160146101000a81548160ff02191690831515021790555050506001600360003373ffffffffffffffffffffffffffffffffffffffff1673ffffffffffffffffffffffffffffffffffffffff16815260200190815260200160002060008373ffffffffffffffffffffffffffffffffffffffff1673ffffffffffffffffffffffffffffffffffffffff16815260200190815260200160002060006101000a81548160ff0219169083151502179055505b50565b6000600160003373ffffffffffffffffffffffffffffffffffffffff1673ffffffffffffffffffffffffffffffffffffffff16815260200190815260200160002060008373ffffffffffffffffffffffffffffffffffffffff1673ffffffffffffffffffffffffffffffffffffffff16815260200190815260200160002060006101000a81548160ff02191690831515021790555060005b600260003373ffffffffffffffffffffffffffffffffffffffff1673ffffffffffffffffffffffffffffffffffffffff16815260200190815260200160002080549050811015610811578173ffffffffffffffffffffffffffffffffffffffff16600260003373ffffffffffffffffffffffffffffffffffffffff1673ffffffffffffffffffffffffffffffffffffffff168152602001908152602001600020828154811061073d5761073c6128c5565b5b9060005260206000200160000160009054906101000a900473ffffffffffffffffffffffffffffffffffffffff1673ffffffffffffffffffffffffffffffffffffffff16036107fe576000600260003373ffffffffffffffffffffffffffffffffffffffff1673ffffffffffffffffffffffffffffffffffffffff16815260200190815260200160002082815481106107d9576107d86128c5565b5b9060005260206000200160000160146101000a81548160ff0219169083151502179055505b808061080990612923565b91505061068b565b5050565b6060600260003373ffffffffffffffffffffffffffffffffffffffff1673ffffffffffffffffffffffffffffffffffffffff168152602001908152602001600020805480602002602001604051908101604052809291908181526020016000905b82821015610915578382906000526020600020016040518060400160405290816000820160009054906101000a900473ffffffffffffffffffffffffffffffffffffffff1673ffffffffffffffffffffffffffffffffffffffff1673ffffffffffffffffffffffffffffffffffffffff1681526020016000820160149054906101000a900460ff16151515158152505081526020019060010190610876565b50505050905090565b60603373ffffffffffffffffffffffffffffffffffffffff168273ffffffffffffffffffffffffffffffffffffffff1614806109e05750600160008373ffffffffffffffffffffffffffffffffffffffff1673ffffffffffffffffffffffffffffffffffffffff16815260200190815260200160002060003373ffffffffffffffffffffffffffffffffffffffff1673ffffffffffffffffffffffffffffffffffffffff16815260200190815260200160002060009054906101000a900460ff165b610a1f576040517f08c379a0000000000000000000000000000000000000000000000000000000008152600401610a16906129c8565b60405180910390fd5b6000808373ffffffffffffffffffffffffffffffffffffffff1673ffffffffffffffffffffffffffffffffffffffff168152602001908152602001600020805480602002602001604051908101604052809291908181526020016000905b82821015610de757838290600052602060002090600b020160405180610180016040529081600082015481526020016001820160009054906101000a900473ffffffffffffffffffffffffffffffffffffffff1673ffffffffffffffffffffffffffffffffffffffff1673ffffffffffffffffffffffffffffffffffffffff1681526020016002820154815260200160038201548152602001600482015481526020016005820160009054906101000a900460ff161515151581526020016005820160019054906101000a900460ff16151515158152602001600682018054610b6590612a17565b80601f0160208091040260200160405190810160405280929190818152602001828054610b9190612a17565b8015610bde5780601f10610bb357610100808354040283529160200191610bde565b820191906000526020600020905b815481529060010190602001808311610bc157829003601f168201915b50505050508152602001600782018054610bf790612a17565b80601f0160208091040260200160405190810160405280929190818152602001828054610c2390612a17565b8015610c705780601f10610c4557610100808354040283529160200191610c70565b820191906000526020600020905b815481529060010190602001808311610c5357829003601f168201915b50505050508152602001600882018054610c8990612a17565b80601f0160208091040260200160405190810160405280929190818152602001828054610cb590612a17565b8015610d025780601f10610cd757610100808354040283529160200191610d02565b820191906000526020600020905b815481529060010190602001808311610ce557829003601f168201915b50505050508152602001600982018054610d1b90612a17565b80601f0160208091040260200160405190810160405280929190818152602001828054610d4790612a17565b8015610d945780601f10610d6957610100808354040283529160200191610d94565b820191906000526020600020905b815481529060010190602001808311610d7757829003601f168201915b50505050508152602001600a820160009054906101000a900460ff166006811115610dc257610dc1612295565b5b6006811115610dd457610dd3612295565b5b8152505081526020019060010190610a7d565b505050509050919050565b60603373ffffffffffffffffffffffffffffffffffffffff168373ffffffffffffffffffffffffffffffffffffffff161480610eb45750600160008473ffffffffffffffffffffffffffffffffffffffff1673ffffffffffffffffffffffffffffffffffffffff16815260200190815260200160002060003373ffffffffffffffffffffffffffffffffffffffff1673ffffffffffffffffffffffffffffffffffffffff16815260200190815260200160002060009054906101000a900460ff165b610ef3576040517f08c379a0000000000000000000000000000000000000000000000000000000008152600401610eea906129c8565b60405180910390fd5b60008060008573ffffffffffffffffffffffffffffffffffffffff1673ffffffffffffffffffffffffffffffffffffffff168152602001908152602001600020805480602002602001604051908101604052809291908181526020016000905b828210156112bd57838290600052602060002090600b020160405180610180016040529081600082015481526020016001820160009054906101000a900473ffffffffffffffffffffffffffffffffffffffff1673ffffffffffffffffffffffffffffffffffffffff1673ffffffffffffffffffffffffffffffffffffffff1681526020016002820154815260200160038201548152602001600482015481526020016005820160009054906101000a900460ff161515151581526020016005820160019054906101000a900460ff1615151515815260200160068201805461103b90612a17565b80601f016020809104026020016040519081016040528092919081815260200182805461106790612a17565b80156110b45780601f10611089576101008083540402835291602001916110b4565b820191906000526020600020905b81548152906001019060200180831161109757829003601f168201915b505050505081526020016007820180546110cd90612a17565b80601f01602080910402602001604051908101604052809291908181526020018280546110f990612a17565b80156111465780601f1061111b57610100808354040283529160200191611146565b820191906000526020600020905b81548152906001019060200180831161112957829003601f168201915b5050505050815260200160088201805461115f90612a17565b80601f016020809104026020016040519081016040528092919081815260200182805461118b90612a17565b80156111d85780601f106111ad576101008083540402835291602001916111d8565b820191906000526020600020905b8154815290600101906020018083116111bb57829003601f168201915b505050505081526020016009820180546111f190612a17565b80601f016020809104026020016040519081016040528092919081815260200182805461121d90612a17565b801561126a5780601f1061123f5761010080835404028352916020019161126a565b820191906000526020600020905b81548152906001019060200180831161124d57829003601f168201915b50505050508152602001600a820160009054906101000a900460ff16600681111561129857611297612295565b5b60068111156112aa576112a9612295565b5b8152505081526020019060010190610f53565b5050505090506000815167ffffffffffffffff8111156112e0576112df612637565b5b60405190808252806020026020018201604052801561131957816020015b611306611f6a565b8152602001906001900390816112fe5790505b5090506000805b83518110156113bc578584828151811061133d5761133c6128c5565b5b60200260200101516101600151600681111561135c5761135b612295565b5b036113a957838181518110611374576113736128c5565b5b602002602001015183838151811061138f5761138e6128c5565b5b602002602001018190525081806113a590612923565b9250505b80806113b490612923565b915050611320565b5080825281935050505092915050565b60606000600767ffffffffffffffff8111156113eb576113ea612637565b5b60405190808252806020026020018201604052801561141e57816020015b60608152602001906001900390816114095790505b5090506040518060400160405280600581526020017f4f74686572000000000000000000000000000000000000000000000000000000815250816000600681111561146c5761146b612295565b5b8151811061147d5761147c6128c5565b5b60200260200101819052506040518060400160405280600981526020017f456475636174696f6e000000000000000000000000000000000000000000000081525081600160068111156114d3576114d2612295565b5b815181106114e4576114e36128c5565b5b60200260200101819052506040518060400160405280600681526020017f4865616c74680000000000000000000000000000000000000000000000000000815250816002600681111561153a57611539612295565b5b8151811061154b5761154a6128c5565b5b60200260200101819052506040518060400160405280600781526020017f46696e616e63650000000000000000000000000000000000000000000000000081525081600360068111156115a1576115a0612295565b5b815181106115b2576115b16128c5565b5b60200260200101819052506040518060400160405280600881526020017f427573696e657373000000000000000000000000000000000000000000000000815250816004600681111561160857611607612295565b5b81518110611619576116186128c5565b5b60200260200101819052506040518060400160405280600681526020017f46616d696c790000000000000000000000000000000000000000000000000000815250816005600681111561166f5761166e612295565b5b815181106116805761167f6128c5565b5b60200260200101819052506040518060400160405280600681526020017f52616e646f6d0000000000000000000000000000000000000000000000000000815250816006808111156116d5576116d4612295565b5b815181106116e6576116e56128c5565b5b60200260200101819052508091505090565b600060405180610180016040528061170e611ef8565b81526020018973ffffffffffffffffffffffffffffffffffffffff1681526020014281526020016000815260200160008152602001851515815260200160001515815260200183815260200188815260200187815260200186815260200184600681111561177f5761177e612295565b5b81525090506000803373ffffffffffffffffffffffffffffffffffffffff1673ffffffffffffffffffffffffffffffffffffffff1681526020019081526020016000208190806001815401808255809150506001900390600052602060002090600b02016000909190919091506000820151816000015560208201518160010160006101000a81548173ffffffffffffffffffffffffffffffffffffffff021916908373ffffffffffffffffffffffffffffffffffffffff16021790555060408201518160020155606082015181600301556080820151816004015560a08201518160050160006101000a81548160ff02191690831515021790555060c08201518160050160016101000a81548160ff02191690831515021790555060e08201518160060190816118b09190612bf4565b506101008201518160070190816118c79190612bf4565b506101208201518160080190816118de9190612bf4565b506101408201518160090190816118f59190612bf4565b5061016082015181600a0160006101000a81548160ff0219169083600681111561192257611921612295565b5b021790555050505050505050505050565b60603373ffffffffffffffffffffffffffffffffffffffff168273ffffffffffffffffffffffffffffffffffffffff1614806119f55750600160008373ffffffffffffffffffffffffffffffffffffffff1673ffffffffffffffffffffffffffffffffffffffff16815260200190815260200160002060003373ffffffffffffffffffffffffffffffffffffffff1673ffffffffffffffffffffffffffffffffffffffff16815260200190815260200160002060009054906101000a900460ff165b611a34576040517f08c379a0000000000000000000000000000000000000000000000000000000008152600401611a2b906129c8565b60405180910390fd5b60008060008473ffffffffffffffffffffffffffffffffffffffff1673ffffffffffffffffffffffffffffffffffffffff168152602001908152602001600020805480602002602001604051908101604052809291908181526020016000905b82821015611dfe57838290600052602060002090600b020160405180610180016040529081600082015481526020016001820160009054906101000a900473ffffffffffffffffffffffffffffffffffffffff1673ffffffffffffffffffffffffffffffffffffffff1673ffffffffffffffffffffffffffffffffffffffff1681526020016002820154815260200160038201548152602001600482015481526020016005820160009054906101000a900460ff161515151581526020016005820160019054906101000a900460ff16151515158152602001600682018054611b7c90612a17565b80601f0160208091040260200160405190810160405280929190818152602001828054611ba890612a17565b8015611bf55780601f10611bca57610100808354040283529160200191611bf5565b820191906000526020600020905b815481529060010190602001808311611bd857829003601f168201915b50505050508152602001600782018054611c0e90612a17565b80601f0160208091040260200160405190810160405280929190818152602001828054611c3a90612a17565b8015611c875780601f10611c5c57610100808354040283529160200191611c87565b820191906000526020600020905b815481529060010190602001808311611c6a57829003601f168201915b50505050508152602001600882018054611ca090612a17565b80601f0160208091040260200160405190810160405280929190818152602001828054611ccc90612a17565b8015611d195780601f10611cee57610100808354040283529160200191611d19565b820191906000526020600020905b815481529060010190602001808311611cfc57829003601f168201915b50505050508152602001600982018054611d3290612a17565b80601f0160208091040260200160405190810160405280929190818152602001828054611d5e90612a17565b8015611dab5780601f10611d8057610100808354040283529160200191611dab565b820191906000526020600020905b815481529060010190602001808311611d8e57829003601f168201915b50505050508152602001600a820160009054906101000a900460ff166006811115611dd957611dd8612295565b5b6006811115611deb57611dea612295565b5b8152505081526020019060010190611a94565b5050505090506000815167ffffffffffffffff811115611e2157611e20612637565b5b604051908082528060200260200182016040528015611e5a57816020015b611e47611f6a565b815260200190600190039081611e3f5790505b5090506000805b8351811015611ee957838181518110611e7d57611e7c6128c5565b5b602002602001015160a0015115611ed657838181518110611ea157611ea06128c5565b5b6020026020010151838381518110611ebc57611ebb6128c5565b5b60200260200101819052508180611ed290612923565b9250505b8080611ee190612923565b915050611e61565b50808252819350505050919050565b60008060008060003373ffffffffffffffffffffffffffffffffffffffff1673ffffffffffffffffffffffffffffffffffffffff16815260200190815260200160002080549050905060008103611f525760009150611f62565b600181611f5f9190612cc6565b91505b819250505090565b60405180610180016040528060008152602001600073ffffffffffffffffffffffffffffffffffffffff1681526020016000815260200160008152602001600081526020016000151581526020016000151581526020016060815260200160608152602001606081526020016060815260200160006006811115611ff157611ff0612295565b5b81525090565b6000604051905090565b600080fd5b600080fd5b600073ffffffffffffffffffffffffffffffffffffffff82169050919050565b60006120368261200b565b9050919050565b6120468161202b565b811461205157600080fd5b50565b6000813590506120638161203d565b92915050565b60006020828403121561207f5761207e612001565b5b600061208d84828501612054565b91505092915050565b600081519050919050565b600082825260208201905092915050565b6000819050602082019050919050565b6120cb8161202b565b82525050565b60008115159050919050565b6120e6816120d1565b82525050565b60408201600082015161210260008501826120c2565b50602082015161211560208501826120dd565b50505050565b600061212783836120ec565b60408301905092915050565b6000602082019050919050565b600061214b82612096565b61215581856120a1565b9350612160836120b2565b8060005b83811015612191578151612178888261211b565b975061218383612133565b925050600181019050612164565b5085935050505092915050565b600060208201905081810360008301526121b88184612140565b905092915050565b600081519050919050565b600082825260208201905092915050565b6000819050602082019050919050565b6000819050919050565b6121ff816121ec565b82525050565b600081519050919050565b600082825260208201905092915050565b60005b8381101561223f578082015181840152602081019050612224565b60008484015250505050565b6000601f19601f8301169050919050565b600061226782612205565b6122718185612210565b9350612281818560208601612221565b61228a8161224b565b840191505092915050565b7f4e487b7100000000000000000000000000000000000000000000000000000000600052602160045260246000fd5b600781106122d5576122d4612295565b5b50565b60008190506122e6826122c4565b919050565b60006122f6826122d8565b9050919050565b612306816122eb565b82525050565b60006101808301600083015161232560008601826121f6565b50602083015161233860208601826120c2565b50604083015161234b60408601826121f6565b50606083015161235e60608601826121f6565b50608083015161237160808601826121f6565b5060a083015161238460a08601826120dd565b5060c083015161239760c08601826120dd565b5060e083015184820360e08601526123af828261225c565b9150506101008301518482036101008601526123cb828261225c565b9150506101208301518482036101208601526123e7828261225c565b915050610140830151848203610140860152612403828261225c565b91505061016083015161241a6101608601826122fd565b508091505092915050565b6000612431838361230c565b905092915050565b6000602082019050919050565b6000612451826121c0565b61245b81856121cb565b93508360208202850161246d856121dc565b8060005b858110156124a9578484038952815161248a8582612425565b945061249583612439565b925060208a01995050600181019050612471565b50829750879550505050505092915050565b600060208201905081810360008301526124d58184612446565b905092915050565b6124e6816121ec565b81146124f157600080fd5b50565b600081359050612503816124dd565b92915050565b600080604083850312156125205761251f612001565b5b600061252e85828601612054565b925050602061253f858286016124f4565b9150509250929050565b600081519050919050565b600082825260208201905092915050565b6000819050602082019050919050565b6000612581838361225c565b905092915050565b6000602082019050919050565b60006125a182612549565b6125ab8185612554565b9350836020820285016125bd85612565565b8060005b858110156125f957848403895281516125da8582612575565b94506125e583612589565b925060208a019950506001810190506125c1565b50829750879550505050505092915050565b600060208201905081810360008301526126258184612596565b905092915050565b600080fd5b600080fd5b7f4e487b7100000000000000000000000000000000000000000000000000000000600052604160045260246000fd5b61266f8261224b565b810181811067ffffffffffffffff8211171561268e5761268d612637565b5b80604052505050565b60006126a1611ff7565b90506126ad8282612666565b919050565b600067ffffffffffffffff8211156126cd576126cc612637565b5b6126d68261224b565b9050602081019050919050565b82818337600083830152505050565b6000612705612700846126b2565b612697565b90508281526020810184848401111561272157612720612632565b5b61272c8482856126e3565b509392505050565b600082601f8301126127495761274861262d565b5b81356127598482602086016126f2565b91505092915050565b61276b816120d1565b811461277657600080fd5b50565b60008135905061278881612762565b92915050565b6007811061279b57600080fd5b50565b6000813590506127ad8161278e565b92915050565b600080600080600080600060e0888a0312156127d2576127d1612001565b5b60006127e08a828b01612054565b975050602088013567ffffffffffffffff81111561280157612800612006565b5b61280d8a828b01612734565b965050604088013567ffffffffffffffff81111561282e5761282d612006565b5b61283a8a828b01612734565b955050606088013567ffffffffffffffff81111561285b5761285a612006565b5b6128678a828b01612734565b94505060806128788a828b01612779565b93505060a06128898a828b0161279e565b92505060c088013567ffffffffffffffff8111156128aa576128a9612006565b5b6128b68a828b01612734565b91505092959891949750929550565b7f4e487b7100000000000000000000000000000000000000000000000000000000600052603260045260246000fd5b7f4e487b7100000000000000000000000000000000000000000000000000000000600052601160045260246000fd5b600061292e826121ec565b91507fffffffffffffffffffffffffffffffffffffffffffffffffffffffffffffffff82036129605761295f6128f4565b5b600182019050919050565b600082825260208201905092915050565b7f596f7520646f6e27742068617665206163636573730000000000000000000000600082015250565b60006129b260158361296b565b91506129bd8261297c565b602082019050919050565b600060208201905081810360008301526129e1816129a5565b9050919050565b7f4e487b7100000000000000000000000000000000000000000000000000000000600052602260045260246000fd5b60006002820490506001821680612a2f57607f821691505b602082108103612a4257612a416129e8565b5b50919050565b60008190508160005260206000209050919050565b60006020601f8301049050919050565b600082821b905092915050565b600060088302612aaa7fffffffffffffffffffffffffffffffffffffffffffffffffffffffffffffffff82612a6d565b612ab48683612a6d565b95508019841693508086168417925050509392505050565b6000819050919050565b6000612af1612aec612ae7846121ec565b612acc565b6121ec565b9050919050565b6000819050919050565b612b0b83612ad6565b612b1f612b1782612af8565b848454612a7a565b825550505050565b600090565b612b34612b27565b612b3f818484612b02565b505050565b5b81811015612b6357612b58600082612b2c565b600181019050612b45565b5050565b601f821115612ba857612b7981612a48565b612b8284612a5d565b81016020851015612b91578190505b612ba5612b9d85612a5d565b830182612b44565b50505b505050565b600082821c905092915050565b6000612bcb60001984600802612bad565b1980831691505092915050565b6000612be48383612bba565b9150826002028217905092915050565b612bfd82612205565b67ffffffffffffffff811115612c1657612c15612637565b5b612c208254612a17565b612c2b828285612b67565b600060209050601f831160018114612c5e5760008415612c4c578287015190505b612c568582612bd8565b865550612cbe565b601f198416612c6c86612a48565b60005b82811015612c9457848901518255600182019150602085019450602081019050612c6f565b86831015612cb15784890151612cad601f891682612bba565b8355505b6001600288020188555050505b505050505050565b6000612cd1826121ec565b9150612cdc836121ec565b9250828201905080821115612cf457612cf36128f4565b5b9291505056fea2646970667358221220412d9aff6309240df1952f25d1a4fcb4b2057bc20c8b954f7d5be369f3c75fb164736f6c63430008110033",
  "linkReferences": {},
  "deployedLinkReferences": {}
}