{
  "_format": "hh-sol-artifact-1",
  "contractName": "Vault",
  "sourceName": "contracts/Vault.sol",
  "abi": [
    {
      "inputs": [
        {
          "internalType": "address",
          "name": "_user",
          "type": "address"
        }
      ],
      "name": "getFiles",
      "outputs": [
        {
          "components": [
            {
              "internalType": "address",
              "name": "owner",
              "type": "address"
            },
            {
              "internalType": "uint256",
              "name": "dateUploaded",
              "type": "uint256"
            },
            {
              "internalType": "uint256",
              "name": "dateModified",
              "type": "uint256"
            },
            {
              "internalType": "uint256",
              "name": "dateAccessed",
              "type": "uint256"
            },
            {
              "internalType": "bool",
              "name": "isFavourite",
              "type": "bool"
            },
            {
              "internalType": "bool",
              "name": "isArchived",
              "type": "bool"
            },
            {
              "internalType": "string",
              "name": "cid",
              "type": "string"
            },
            {
              "internalType": "string",
              "name": "name",
              "type": "string"
            },
            {
              "internalType": "string",
              "name": "description",
              "type": "string"
            },
            {
              "internalType": "string",
              "name": "extension",
              "type": "string"
            },
            {
              "internalType": "string",
              "name": "size",
              "type": "string"
            },
            {
              "internalType": "enum Vault.Tags",
              "name": "tag",
              "type": "uint8"
            }
          ],
          "internalType": "struct Vault.File[]",
          "name": "",
          "type": "tuple[]"
        }
      ],
      "stateMutability": "view",
      "type": "function"
    },
    {
      "inputs": [],
      "name": "getTags",
      "outputs": [
        {
          "internalType": "string[]",
          "name": "",
          "type": "string[]"
        }
      ],
      "stateMutability": "pure",
      "type": "function"
    },
    {
      "inputs": [],
      "name": "getUsersWithAccess",
      "outputs": [
        {
          "components": [
            {
              "internalType": "address",
              "name": "user",
              "type": "address"
            },
            {
              "internalType": "bool",
              "name": "hasAccess",
              "type": "bool"
            }
          ],
          "internalType": "struct Vault.Access[]",
          "name": "",
          "type": "tuple[]"
        }
      ],
      "stateMutability": "view",
      "type": "function"
    },
    {
      "inputs": [
        {
          "internalType": "address",
          "name": "user",
          "type": "address"
        }
      ],
      "name": "shareFile",
      "outputs": [],
      "stateMutability": "nonpayable",
      "type": "function"
    },
    {
      "inputs": [
        {
          "internalType": "string",
          "name": "_cid",
          "type": "string"
        }
      ],
      "name": "toggleFavourite",
      "outputs": [
        {
          "internalType": "string",
          "name": "",
          "type": "string"
        }
      ],
      "stateMutability": "nonpayable",
      "type": "function"
    },
    {
      "inputs": [
        {
          "internalType": "address",
          "name": "user",
          "type": "address"
        }
      ],
      "name": "unshareFile",
      "outputs": [],
      "stateMutability": "nonpayable",
      "type": "function"
    },
    {
      "inputs": [
        {
          "internalType": "address",
          "name": "_owner",
          "type": "address"
        },
        {
          "internalType": "string",
          "name": "_name",
          "type": "string"
        },
        {
          "internalType": "string",
          "name": "_description",
          "type": "string"
        },
        {
          "internalType": "string",
          "name": "_size",
          "type": "string"
        },
        {
          "internalType": "string",
          "name": "_extension",
          "type": "string"
        },
        {
          "internalType": "bool",
          "name": "_isFavourite",
          "type": "bool"
        },
        {
          "internalType": "enum Vault.Tags",
          "name": "_tag",
          "type": "uint8"
        },
        {
          "internalType": "string",
          "name": "_cid",
          "type": "string"
        }
      ],
      "name": "uploadFile",
      "outputs": [],
      "stateMutability": "nonpayable",
      "type": "function"
    }
  ],
  "bytecode": "0x608060405234801561001057600080fd5b506124e5806100206000396000f3fe608060405234801561001057600080fd5b506004361061007d5760003560e01c8063433bf37b1161005b578063433bf37b146100ec578063471513541461011c578063995d9ab714610138578063ded19c89146101565761007d565b806323e992af1461008257806335ab47271461009e5780633f130e92146100ce575b600080fd5b61009c60048036038101906100979190611664565b610172565b005b6100b860048036038101906100b391906117d7565b6105b8565b6040516100c5919061189f565b60405180910390f35b6100d66107fe565b6040516100e391906119c9565b60405180910390f35b61010660048036038101906101019190611664565b610907565b6040516101139190611ca7565b60405180910390f35b61013660048036038101906101319190611d1a565b610e63565b005b6101406110a4565b60405161014d9190611f1e565b60405180910390f35b610170600480360381019061016b9190611664565b6113d0565b005b60018060003373ffffffffffffffffffffffffffffffffffffffff1673ffffffffffffffffffffffffffffffffffffffff16815260200190815260200160002060008373ffffffffffffffffffffffffffffffffffffffff1673ffffffffffffffffffffffffffffffffffffffff16815260200190815260200160002060006101000a81548160ff021916908315150217905550600360003373ffffffffffffffffffffffffffffffffffffffff1673ffffffffffffffffffffffffffffffffffffffff16815260200190815260200160002060008273ffffffffffffffffffffffffffffffffffffffff1673ffffffffffffffffffffffffffffffffffffffff16815260200190815260200160002060009054906101000a900460ff16156104245760005b600260003373ffffffffffffffffffffffffffffffffffffffff1673ffffffffffffffffffffffffffffffffffffffff1681526020019081526020016000208054905081101561041e578173ffffffffffffffffffffffffffffffffffffffff16600260003373ffffffffffffffffffffffffffffffffffffffff1673ffffffffffffffffffffffffffffffffffffffff168152602001908152602001600020828154811061034a57610349611f40565b5b9060005260206000200160000160009054906101000a900473ffffffffffffffffffffffffffffffffffffffff1673ffffffffffffffffffffffffffffffffffffffff160361040b576001600260003373ffffffffffffffffffffffffffffffffffffffff1673ffffffffffffffffffffffffffffffffffffffff16815260200190815260200160002082815481106103e6576103e5611f40565b5b9060005260206000200160000160146101000a81548160ff0219169083151502179055505b808061041690611f9e565b915050610298565b506105b5565b600260003373ffffffffffffffffffffffffffffffffffffffff1673ffffffffffffffffffffffffffffffffffffffff16815260200190815260200160002060405180604001604052808373ffffffffffffffffffffffffffffffffffffffff168152602001600115158152509080600181540180825580915050600190039060005260206000200160009091909190915060008201518160000160006101000a81548173ffffffffffffffffffffffffffffffffffffffff021916908373ffffffffffffffffffffffffffffffffffffffff16021790555060208201518160000160146101000a81548160ff02191690831515021790555050506001600360003373ffffffffffffffffffffffffffffffffffffffff1673ffffffffffffffffffffffffffffffffffffffff16815260200190815260200160002060008373ffffffffffffffffffffffffffffffffffffffff1673ffffffffffffffffffffffffffffffffffffffff16815260200190815260200160002060006101000a81548160ff0219169083151502179055505b50565b606060005b6000803373ffffffffffffffffffffffffffffffffffffffff1673ffffffffffffffffffffffffffffffffffffffff168152602001908152602001600020805490508110156107bd57826040516020016106179190612022565b604051602081830303815290604052805190602001206000803373ffffffffffffffffffffffffffffffffffffffff1673ffffffffffffffffffffffffffffffffffffffff168152602001908152602001600020828154811061067d5761067c611f40565b5b90600052602060002090600b020160050160405160200161069e9190612131565b60405160208183030381529060405280519060200120036107aa576000803373ffffffffffffffffffffffffffffffffffffffff1673ffffffffffffffffffffffffffffffffffffffff168152602001908152602001600020818154811061070957610708611f40565b5b90600052602060002090600b020160040160009054906101000a900460ff16156000803373ffffffffffffffffffffffffffffffffffffffff1673ffffffffffffffffffffffffffffffffffffffff168152602001908152602001600020828154811061077957610778611f40565b5b90600052602060002090600b020160040160006101000a81548160ff021916908315150217905550829150506107f9565b80806107b590611f9e565b9150506105bd565b506040517f08c379a00000000000000000000000000000000000000000000000000000000081526004016107f0906121ba565b60405180910390fd5b919050565b6060600260003373ffffffffffffffffffffffffffffffffffffffff1673ffffffffffffffffffffffffffffffffffffffff168152602001908152602001600020805480602002602001604051908101604052809291908181526020016000905b828210156108fe578382906000526020600020016040518060400160405290816000820160009054906101000a900473ffffffffffffffffffffffffffffffffffffffff1673ffffffffffffffffffffffffffffffffffffffff1673ffffffffffffffffffffffffffffffffffffffff1681526020016000820160149054906101000a900460ff1615151515815250508152602001906001019061085f565b50505050905090565b60603373ffffffffffffffffffffffffffffffffffffffff168273ffffffffffffffffffffffffffffffffffffffff1614806109c95750600160008373ffffffffffffffffffffffffffffffffffffffff1673ffffffffffffffffffffffffffffffffffffffff16815260200190815260200160002060003373ffffffffffffffffffffffffffffffffffffffff1673ffffffffffffffffffffffffffffffffffffffff16815260200190815260200160002060009054906101000a900460ff165b610a08576040517f08c379a00000000000000000000000000000000000000000000000000000000081526004016109ff90612226565b60405180910390fd5b6000808373ffffffffffffffffffffffffffffffffffffffff1673ffffffffffffffffffffffffffffffffffffffff168152602001908152602001600020805480602002602001604051908101604052809291908181526020016000905b82821015610e5857838290600052602060002090600b0201604051806101800160405290816000820160009054906101000a900473ffffffffffffffffffffffffffffffffffffffff1673ffffffffffffffffffffffffffffffffffffffff1673ffffffffffffffffffffffffffffffffffffffff1681526020016001820154815260200160028201548152602001600382015481526020016004820160009054906101000a900460ff161515151581526020016004820160019054906101000a900460ff16151515158152602001600582018054610b4490612068565b80601f0160208091040260200160405190810160405280929190818152602001828054610b7090612068565b8015610bbd5780601f10610b9257610100808354040283529160200191610bbd565b820191906000526020600020905b815481529060010190602001808311610ba057829003601f168201915b50505050508152602001600682018054610bd690612068565b80601f0160208091040260200160405190810160405280929190818152602001828054610c0290612068565b8015610c4f5780601f10610c2457610100808354040283529160200191610c4f565b820191906000526020600020905b815481529060010190602001808311610c3257829003601f168201915b50505050508152602001600782018054610c6890612068565b80601f0160208091040260200160405190810160405280929190818152602001828054610c9490612068565b8015610ce15780601f10610cb657610100808354040283529160200191610ce1565b820191906000526020600020905b815481529060010190602001808311610cc457829003601f168201915b50505050508152602001600882018054610cfa90612068565b80601f0160208091040260200160405190810160405280929190818152602001828054610d2690612068565b8015610d735780601f10610d4857610100808354040283529160200191610d73565b820191906000526020600020905b815481529060010190602001808311610d5657829003601f168201915b50505050508152602001600982018054610d8c90612068565b80601f0160208091040260200160405190810160405280929190818152602001828054610db890612068565b8015610e055780601f10610dda57610100808354040283529160200191610e05565b820191906000526020600020905b815481529060010190602001808311610de857829003601f168201915b50505050508152602001600a820160009054906101000a900460ff166006811115610e3357610e32611a7a565b5b6006811115610e4557610e44611a7a565b5b8152505081526020019060010190610a66565b505050509050919050565b60006040518061018001604052808a73ffffffffffffffffffffffffffffffffffffffff16815260200142815260200160008152602001600081526020018515158152602001600015158152602001838152602001898152602001888152602001868152602001878152602001846006811115610ee357610ee2611a7a565b5b81525090506000803373ffffffffffffffffffffffffffffffffffffffff1673ffffffffffffffffffffffffffffffffffffffff1681526020019081526020016000208190806001815401808255809150506001900390600052602060002090600b020160009091909190915060008201518160000160006101000a81548173ffffffffffffffffffffffffffffffffffffffff021916908373ffffffffffffffffffffffffffffffffffffffff16021790555060208201518160010155604082015181600201556060820151816003015560808201518160040160006101000a81548160ff02191690831515021790555060a08201518160040160016101000a81548160ff02191690831515021790555060c082015181600501908161100a91906123dd565b5060e082015181600601908161102091906123dd565b5061010082015181600701908161103791906123dd565b5061012082015181600801908161104e91906123dd565b5061014082015181600901908161106591906123dd565b5061016082015181600a0160006101000a81548160ff0219169083600681111561109257611091611a7a565b5b02179055505050505050505050505050565b60606000600767ffffffffffffffff8111156110c3576110c26116ac565b5b6040519080825280602002602001820160405280156110f657816020015b60608152602001906001900390816110e15790505b5090506040518060400160405280600581526020017f4f74686572000000000000000000000000000000000000000000000000000000815250816000600681111561114457611143611a7a565b5b8151811061115557611154611f40565b5b60200260200101819052506040518060400160405280600981526020017f456475636174696f6e000000000000000000000000000000000000000000000081525081600160068111156111ab576111aa611a7a565b5b815181106111bc576111bb611f40565b5b60200260200101819052506040518060400160405280600681526020017f4865616c74680000000000000000000000000000000000000000000000000000815250816002600681111561121257611211611a7a565b5b8151811061122357611222611f40565b5b60200260200101819052506040518060400160405280600781526020017f46696e616e636500000000000000000000000000000000000000000000000000815250816003600681111561127957611278611a7a565b5b8151811061128a57611289611f40565b5b60200260200101819052506040518060400160405280600881526020017f427573696e65737300000000000000000000000000000000000000000000000081525081600460068111156112e0576112df611a7a565b5b815181106112f1576112f0611f40565b5b60200260200101819052506040518060400160405280600681526020017f46616d696c790000000000000000000000000000000000000000000000000000815250816005600681111561134757611346611a7a565b5b8151811061135857611357611f40565b5b60200260200101819052506040518060400160405280600681526020017f52616e646f6d0000000000000000000000000000000000000000000000000000815250816006808111156113ad576113ac611a7a565b5b815181106113be576113bd611f40565b5b60200260200101819052508091505090565b6000600160003373ffffffffffffffffffffffffffffffffffffffff1673ffffffffffffffffffffffffffffffffffffffff16815260200190815260200160002060008373ffffffffffffffffffffffffffffffffffffffff1673ffffffffffffffffffffffffffffffffffffffff16815260200190815260200160002060006101000a81548160ff02191690831515021790555060005b600260003373ffffffffffffffffffffffffffffffffffffffff1673ffffffffffffffffffffffffffffffffffffffff168152602001908152602001600020805490508110156115ee578173ffffffffffffffffffffffffffffffffffffffff16600260003373ffffffffffffffffffffffffffffffffffffffff1673ffffffffffffffffffffffffffffffffffffffff168152602001908152602001600020828154811061151a57611519611f40565b5b9060005260206000200160000160009054906101000a900473ffffffffffffffffffffffffffffffffffffffff1673ffffffffffffffffffffffffffffffffffffffff16036115db576000600260003373ffffffffffffffffffffffffffffffffffffffff1673ffffffffffffffffffffffffffffffffffffffff16815260200190815260200160002082815481106115b6576115b5611f40565b5b9060005260206000200160000160146101000a81548160ff0219169083151502179055505b80806115e690611f9e565b915050611468565b5050565b6000604051905090565b600080fd5b600080fd5b600073ffffffffffffffffffffffffffffffffffffffff82169050919050565b600061163182611606565b9050919050565b61164181611626565b811461164c57600080fd5b50565b60008135905061165e81611638565b92915050565b60006020828403121561167a576116796115fc565b5b60006116888482850161164f565b91505092915050565b600080fd5b600080fd5b6000601f19601f8301169050919050565b7f4e487b7100000000000000000000000000000000000000000000000000000000600052604160045260246000fd5b6116e48261169b565b810181811067ffffffffffffffff82111715611703576117026116ac565b5b80604052505050565b60006117166115f2565b905061172282826116db565b919050565b600067ffffffffffffffff821115611742576117416116ac565b5b61174b8261169b565b9050602081019050919050565b82818337600083830152505050565b600061177a61177584611727565b61170c565b90508281526020810184848401111561179657611795611696565b5b6117a1848285611758565b509392505050565b600082601f8301126117be576117bd611691565b5b81356117ce848260208601611767565b91505092915050565b6000602082840312156117ed576117ec6115fc565b5b600082013567ffffffffffffffff81111561180b5761180a611601565b5b611817848285016117a9565b91505092915050565b600081519050919050565b600082825260208201905092915050565b60005b8381101561185a57808201518184015260208101905061183f565b60008484015250505050565b600061187182611820565b61187b818561182b565b935061188b81856020860161183c565b6118948161169b565b840191505092915050565b600060208201905081810360008301526118b98184611866565b905092915050565b600081519050919050565b600082825260208201905092915050565b6000819050602082019050919050565b6118f681611626565b82525050565b60008115159050919050565b611911816118fc565b82525050565b60408201600082015161192d60008501826118ed565b5060208201516119406020850182611908565b50505050565b60006119528383611917565b60408301905092915050565b6000602082019050919050565b6000611976826118c1565b61198081856118cc565b935061198b836118dd565b8060005b838110156119bc5781516119a38882611946565b97506119ae8361195e565b92505060018101905061198f565b5085935050505092915050565b600060208201905081810360008301526119e3818461196b565b905092915050565b600081519050919050565b600082825260208201905092915050565b6000819050602082019050919050565b6000819050919050565b611a2a81611a17565b82525050565b600082825260208201905092915050565b6000611a4c82611820565b611a568185611a30565b9350611a6681856020860161183c565b611a6f8161169b565b840191505092915050565b7f4e487b7100000000000000000000000000000000000000000000000000000000600052602160045260246000fd5b60078110611aba57611ab9611a7a565b5b50565b6000819050611acb82611aa9565b919050565b6000611adb82611abd565b9050919050565b611aeb81611ad0565b82525050565b600061018083016000830151611b0a60008601826118ed565b506020830151611b1d6020860182611a21565b506040830151611b306040860182611a21565b506060830151611b436060860182611a21565b506080830151611b566080860182611908565b5060a0830151611b6960a0860182611908565b5060c083015184820360c0860152611b818282611a41565b91505060e083015184820360e0860152611b9b8282611a41565b915050610100830151848203610100860152611bb78282611a41565b915050610120830151848203610120860152611bd38282611a41565b915050610140830151848203610140860152611bef8282611a41565b915050610160830151611c06610160860182611ae2565b508091505092915050565b6000611c1d8383611af1565b905092915050565b6000602082019050919050565b6000611c3d826119eb565b611c4781856119f6565b935083602082028501611c5985611a07565b8060005b85811015611c955784840389528151611c768582611c11565b9450611c8183611c25565b925060208a01995050600181019050611c5d565b50829750879550505050505092915050565b60006020820190508181036000830152611cc18184611c32565b905092915050565b611cd2816118fc565b8114611cdd57600080fd5b50565b600081359050611cef81611cc9565b92915050565b60078110611d0257600080fd5b50565b600081359050611d1481611cf5565b92915050565b600080600080600080600080610100898b031215611d3b57611d3a6115fc565b5b6000611d498b828c0161164f565b985050602089013567ffffffffffffffff811115611d6a57611d69611601565b5b611d768b828c016117a9565b975050604089013567ffffffffffffffff811115611d9757611d96611601565b5b611da38b828c016117a9565b965050606089013567ffffffffffffffff811115611dc457611dc3611601565b5b611dd08b828c016117a9565b955050608089013567ffffffffffffffff811115611df157611df0611601565b5b611dfd8b828c016117a9565b94505060a0611e0e8b828c01611ce0565b93505060c0611e1f8b828c01611d05565b92505060e089013567ffffffffffffffff811115611e4057611e3f611601565b5b611e4c8b828c016117a9565b9150509295985092959890939650565b600081519050919050565b600082825260208201905092915050565b6000819050602082019050919050565b6000611e948383611a41565b905092915050565b6000602082019050919050565b6000611eb482611e5c565b611ebe8185611e67565b935083602082028501611ed085611e78565b8060005b85811015611f0c5784840389528151611eed8582611e88565b9450611ef883611e9c565b925060208a01995050600181019050611ed4565b50829750879550505050505092915050565b60006020820190508181036000830152611f388184611ea9565b905092915050565b7f4e487b7100000000000000000000000000000000000000000000000000000000600052603260045260246000fd5b7f4e487b7100000000000000000000000000000000000000000000000000000000600052601160045260246000fd5b6000611fa982611a17565b91507fffffffffffffffffffffffffffffffffffffffffffffffffffffffffffffffff8203611fdb57611fda611f6f565b5b600182019050919050565b600081905092915050565b6000611ffc82611820565b6120068185611fe6565b935061201681856020860161183c565b80840191505092915050565b600061202e8284611ff1565b915081905092915050565b7f4e487b7100000000000000000000000000000000000000000000000000000000600052602260045260246000fd5b6000600282049050600182168061208057607f821691505b60208210810361209357612092612039565b5b50919050565b60008190508160005260206000209050919050565b600081546120bb81612068565b6120c58186611fe6565b945060018216600081146120e057600181146120f557612128565b60ff1983168652811515820286019350612128565b6120fe85612099565b60005b8381101561212057815481890152600182019150602081019050612101565b838801955050505b50505092915050565b600061213d82846120ae565b915081905092915050565b7f46696c6520776974682074686520676976656e20434944206e6f7420666f756e60008201527f6400000000000000000000000000000000000000000000000000000000000000602082015250565b60006121a460218361182b565b91506121af82612148565b604082019050919050565b600060208201905081810360008301526121d381612197565b9050919050565b7f596f7520646f6e27742068617665206163636573730000000000000000000000600082015250565b600061221060158361182b565b915061221b826121da565b602082019050919050565b6000602082019050818103600083015261223f81612203565b9050919050565b60006020601f8301049050919050565b600082821b905092915050565b6000600883026122937fffffffffffffffffffffffffffffffffffffffffffffffffffffffffffffffff82612256565b61229d8683612256565b95508019841693508086168417925050509392505050565b6000819050919050565b60006122da6122d56122d084611a17565b6122b5565b611a17565b9050919050565b6000819050919050565b6122f4836122bf565b612308612300826122e1565b848454612263565b825550505050565b600090565b61231d612310565b6123288184846122eb565b505050565b5b8181101561234c57612341600082612315565b60018101905061232e565b5050565b601f8211156123915761236281612099565b61236b84612246565b8101602085101561237a578190505b61238e61238685612246565b83018261232d565b50505b505050565b600082821c905092915050565b60006123b460001984600802612396565b1980831691505092915050565b60006123cd83836123a3565b9150826002028217905092915050565b6123e682611820565b67ffffffffffffffff8111156123ff576123fe6116ac565b5b6124098254612068565b612414828285612350565b600060209050601f8311600181146124475760008415612435578287015190505b61243f85826123c1565b8655506124a7565b601f19841661245586612099565b60005b8281101561247d57848901518255600182019150602085019450602081019050612458565b8683101561249a5784890151612496601f8916826123a3565b8355505b6001600288020188555050505b50505050505056fea2646970667358221220ce0bdd7619fcc4cd3dfbf767c2342c940ac90ae7b10539c1d2a7442cabf6d69964736f6c63430008110033",
  "linkReferences": {},
  "deployedLinkReferences": {}
}