{
  "_format": "hh-sol-artifact-1",
  "contractName": "Vault",
  "sourceName": "contracts/Vault.sol",
  "abi": [
    {
      "inputs": [
        {
          "internalType": "address",
          "name": "_user",
          "type": "address"
        }
      ],
      "name": "getFiles",
      "outputs": [
        {
          "components": [
            {
              "internalType": "uint256",
              "name": "id",
              "type": "uint256"
            },
            {
              "internalType": "address",
              "name": "owner",
              "type": "address"
            },
            {
              "internalType": "uint256",
              "name": "dateUploaded",
              "type": "uint256"
            },
            {
              "internalType": "uint256",
              "name": "dateModified",
              "type": "uint256"
            },
            {
              "internalType": "uint256",
              "name": "dateAccessed",
              "type": "uint256"
            },
            {
              "internalType": "bool",
              "name": "isFavourite",
              "type": "bool"
            },
            {
              "internalType": "bool",
              "name": "isArchived",
              "type": "bool"
            },
            {
              "internalType": "string",
              "name": "cid",
              "type": "string"
            },
            {
              "internalType": "string",
              "name": "name",
              "type": "string"
            },
            {
              "internalType": "string",
              "name": "description",
              "type": "string"
            },
            {
              "internalType": "string",
              "name": "extension",
              "type": "string"
            },
            {
              "internalType": "string",
              "name": "size",
              "type": "string"
            },
            {
              "internalType": "enum Vault.Tags",
              "name": "tag",
              "type": "uint8"
            }
          ],
          "internalType": "struct Vault.File[]",
          "name": "",
          "type": "tuple[]"
        }
      ],
      "stateMutability": "view",
      "type": "function"
    },
    {
      "inputs": [
        {
          "internalType": "address",
          "name": "_user",
          "type": "address"
        },
        {
          "internalType": "uint256",
          "name": "_tag",
          "type": "uint256"
        }
      ],
      "name": "getFilesByTag",
      "outputs": [
        {
          "components": [
            {
              "internalType": "uint256",
              "name": "id",
              "type": "uint256"
            },
            {
              "internalType": "address",
              "name": "owner",
              "type": "address"
            },
            {
              "internalType": "uint256",
              "name": "dateUploaded",
              "type": "uint256"
            },
            {
              "internalType": "uint256",
              "name": "dateModified",
              "type": "uint256"
            },
            {
              "internalType": "uint256",
              "name": "dateAccessed",
              "type": "uint256"
            },
            {
              "internalType": "bool",
              "name": "isFavourite",
              "type": "bool"
            },
            {
              "internalType": "bool",
              "name": "isArchived",
              "type": "bool"
            },
            {
              "internalType": "string",
              "name": "cid",
              "type": "string"
            },
            {
              "internalType": "string",
              "name": "name",
              "type": "string"
            },
            {
              "internalType": "string",
              "name": "description",
              "type": "string"
            },
            {
              "internalType": "string",
              "name": "extension",
              "type": "string"
            },
            {
              "internalType": "string",
              "name": "size",
              "type": "string"
            },
            {
              "internalType": "enum Vault.Tags",
              "name": "tag",
              "type": "uint8"
            }
          ],
          "internalType": "struct Vault.File[]",
          "name": "",
          "type": "tuple[]"
        }
      ],
      "stateMutability": "view",
      "type": "function"
    },
    {
      "inputs": [
        {
          "internalType": "address",
          "name": "_user",
          "type": "address"
        }
      ],
      "name": "getFilesMarkedAsFavourite",
      "outputs": [
        {
          "components": [
            {
              "internalType": "uint256",
              "name": "id",
              "type": "uint256"
            },
            {
              "internalType": "address",
              "name": "owner",
              "type": "address"
            },
            {
              "internalType": "uint256",
              "name": "dateUploaded",
              "type": "uint256"
            },
            {
              "internalType": "uint256",
              "name": "dateModified",
              "type": "uint256"
            },
            {
              "internalType": "uint256",
              "name": "dateAccessed",
              "type": "uint256"
            },
            {
              "internalType": "bool",
              "name": "isFavourite",
              "type": "bool"
            },
            {
              "internalType": "bool",
              "name": "isArchived",
              "type": "bool"
            },
            {
              "internalType": "string",
              "name": "cid",
              "type": "string"
            },
            {
              "internalType": "string",
              "name": "name",
              "type": "string"
            },
            {
              "internalType": "string",
              "name": "description",
              "type": "string"
            },
            {
              "internalType": "string",
              "name": "extension",
              "type": "string"
            },
            {
              "internalType": "string",
              "name": "size",
              "type": "string"
            },
            {
              "internalType": "enum Vault.Tags",
              "name": "tag",
              "type": "uint8"
            }
          ],
          "internalType": "struct Vault.File[]",
          "name": "",
          "type": "tuple[]"
        }
      ],
      "stateMutability": "view",
      "type": "function"
    },
    {
      "inputs": [],
      "name": "getTags",
      "outputs": [
        {
          "internalType": "string[]",
          "name": "",
          "type": "string[]"
        }
      ],
      "stateMutability": "pure",
      "type": "function"
    },
    {
      "inputs": [],
      "name": "getUsersWithAccess",
      "outputs": [
        {
          "components": [
            {
              "internalType": "address",
              "name": "user",
              "type": "address"
            },
            {
              "internalType": "bool",
              "name": "hasAccess",
              "type": "bool"
            }
          ],
          "internalType": "struct Vault.Access[]",
          "name": "",
          "type": "tuple[]"
        }
      ],
      "stateMutability": "view",
      "type": "function"
    },
    {
      "inputs": [
        {
          "internalType": "address",
          "name": "user",
          "type": "address"
        }
      ],
      "name": "shareVault",
      "outputs": [],
      "stateMutability": "nonpayable",
      "type": "function"
    },
    {
      "inputs": [
        {
          "internalType": "address",
          "name": "user",
          "type": "address"
        }
      ],
      "name": "unshareVault",
      "outputs": [],
      "stateMutability": "nonpayable",
      "type": "function"
    },
    {
      "inputs": [
        {
          "internalType": "address",
          "name": "_owner",
          "type": "address"
        },
        {
          "internalType": "string",
          "name": "_name",
          "type": "string"
        },
        {
          "internalType": "string",
          "name": "_description",
          "type": "string"
        },
        {
          "internalType": "string",
          "name": "_size",
          "type": "string"
        },
        {
          "internalType": "string",
          "name": "_extension",
          "type": "string"
        },
        {
          "internalType": "bool",
          "name": "_isFavourite",
          "type": "bool"
        },
        {
          "internalType": "enum Vault.Tags",
          "name": "_tag",
          "type": "uint8"
        },
        {
          "internalType": "string",
          "name": "_cid",
          "type": "string"
        }
      ],
      "name": "uploadFile",
      "outputs": [],
      "stateMutability": "nonpayable",
      "type": "function"
    }
  ],
  "bytecode": "0x608060405234801561001057600080fd5b50612f57806100206000396000f3fe608060405234801561001057600080fd5b50600436106100885760003560e01c8063471513541161005b57806347151354146101135780635c0720a21461012f578063995d9ab71461015f578063f9e9a9d11461017d57610088565b806324aa6fcc1461008d5780632ee5796c146100a95780633f130e92146100c5578063433bf37b146100e3575b600080fd5b6100a760048036038101906100a29190612244565b6101ad565b005b6100c360048036038101906100be9190612244565b6105f3565b005b6100cd610815565b6040516100da9190612379565b60405180910390f35b6100fd60048036038101906100f89190612244565b61091e565b60405161010a91906126b2565b60405180910390f35b61012d6004803603810190610128919061285a565b610e84565b005b610149600480360381019061014491906129c8565b6110dd565b60405161015691906126b2565b60405180910390f35b610167611749565b6040516101749190612aca565b60405180910390f35b61019760048036038101906101929190612244565b611a75565b6040516101a491906126b2565b60405180910390f35b60018060003373ffffffffffffffffffffffffffffffffffffffff1673ffffffffffffffffffffffffffffffffffffffff16815260200190815260200160002060008373ffffffffffffffffffffffffffffffffffffffff1673ffffffffffffffffffffffffffffffffffffffff16815260200190815260200160002060006101000a81548160ff021916908315150217905550600360003373ffffffffffffffffffffffffffffffffffffffff1673ffffffffffffffffffffffffffffffffffffffff16815260200190815260200160002060008273ffffffffffffffffffffffffffffffffffffffff1673ffffffffffffffffffffffffffffffffffffffff16815260200190815260200160002060009054906101000a900460ff161561045f5760005b600260003373ffffffffffffffffffffffffffffffffffffffff1673ffffffffffffffffffffffffffffffffffffffff16815260200190815260200160002080549050811015610459578173ffffffffffffffffffffffffffffffffffffffff16600260003373ffffffffffffffffffffffffffffffffffffffff1673ffffffffffffffffffffffffffffffffffffffff168152602001908152602001600020828154811061038557610384612aec565b5b9060005260206000200160000160009054906101000a900473ffffffffffffffffffffffffffffffffffffffff1673ffffffffffffffffffffffffffffffffffffffff1603610446576001600260003373ffffffffffffffffffffffffffffffffffffffff1673ffffffffffffffffffffffffffffffffffffffff168152602001908152602001600020828154811061042157610420612aec565b5b9060005260206000200160000160146101000a81548160ff0219169083151502179055505b808061045190612b4a565b9150506102d3565b506105f0565b600260003373ffffffffffffffffffffffffffffffffffffffff1673ffffffffffffffffffffffffffffffffffffffff16815260200190815260200160002060405180604001604052808373ffffffffffffffffffffffffffffffffffffffff168152602001600115158152509080600181540180825580915050600190039060005260206000200160009091909190915060008201518160000160006101000a81548173ffffffffffffffffffffffffffffffffffffffff021916908373ffffffffffffffffffffffffffffffffffffffff16021790555060208201518160000160146101000a81548160ff02191690831515021790555050506001600360003373ffffffffffffffffffffffffffffffffffffffff1673ffffffffffffffffffffffffffffffffffffffff16815260200190815260200160002060008373ffffffffffffffffffffffffffffffffffffffff1673ffffffffffffffffffffffffffffffffffffffff16815260200190815260200160002060006101000a81548160ff0219169083151502179055505b50565b6000600160003373ffffffffffffffffffffffffffffffffffffffff1673ffffffffffffffffffffffffffffffffffffffff16815260200190815260200160002060008373ffffffffffffffffffffffffffffffffffffffff1673ffffffffffffffffffffffffffffffffffffffff16815260200190815260200160002060006101000a81548160ff02191690831515021790555060005b600260003373ffffffffffffffffffffffffffffffffffffffff1673ffffffffffffffffffffffffffffffffffffffff16815260200190815260200160002080549050811015610811578173ffffffffffffffffffffffffffffffffffffffff16600260003373ffffffffffffffffffffffffffffffffffffffff1673ffffffffffffffffffffffffffffffffffffffff168152602001908152602001600020828154811061073d5761073c612aec565b5b9060005260206000200160000160009054906101000a900473ffffffffffffffffffffffffffffffffffffffff1673ffffffffffffffffffffffffffffffffffffffff16036107fe576000600260003373ffffffffffffffffffffffffffffffffffffffff1673ffffffffffffffffffffffffffffffffffffffff16815260200190815260200160002082815481106107d9576107d8612aec565b5b9060005260206000200160000160146101000a81548160ff0219169083151502179055505b808061080990612b4a565b91505061068b565b5050565b6060600260003373ffffffffffffffffffffffffffffffffffffffff1673ffffffffffffffffffffffffffffffffffffffff168152602001908152602001600020805480602002602001604051908101604052809291908181526020016000905b82821015610915578382906000526020600020016040518060400160405290816000820160009054906101000a900473ffffffffffffffffffffffffffffffffffffffff1673ffffffffffffffffffffffffffffffffffffffff1673ffffffffffffffffffffffffffffffffffffffff1681526020016000820160149054906101000a900460ff16151515158152505081526020019060010190610876565b50505050905090565b60603373ffffffffffffffffffffffffffffffffffffffff168273ffffffffffffffffffffffffffffffffffffffff1614806109e05750600160008373ffffffffffffffffffffffffffffffffffffffff1673ffffffffffffffffffffffffffffffffffffffff16815260200190815260200160002060003373ffffffffffffffffffffffffffffffffffffffff1673ffffffffffffffffffffffffffffffffffffffff16815260200190815260200160002060009054906101000a900460ff165b610a1f576040517f08c379a0000000000000000000000000000000000000000000000000000000008152600401610a1690612bef565b60405180910390fd5b6000808373ffffffffffffffffffffffffffffffffffffffff1673ffffffffffffffffffffffffffffffffffffffff168152602001908152602001600020805480602002602001604051908101604052809291908181526020016000905b82821015610e7957838290600052602060002090600c0201604051806101a0016040529081600082015481526020016001820160009054906101000a900473ffffffffffffffffffffffffffffffffffffffff1673ffffffffffffffffffffffffffffffffffffffff1673ffffffffffffffffffffffffffffffffffffffff1681526020016002820154815260200160038201548152602001600482015481526020016005820160009054906101000a900460ff161515151581526020016005820160019054906101000a900460ff16151515158152602001600682018054610b6590612c3e565b80601f0160208091040260200160405190810160405280929190818152602001828054610b9190612c3e565b8015610bde5780601f10610bb357610100808354040283529160200191610bde565b820191906000526020600020905b815481529060010190602001808311610bc157829003601f168201915b50505050508152602001600782018054610bf790612c3e565b80601f0160208091040260200160405190810160405280929190818152602001828054610c2390612c3e565b8015610c705780601f10610c4557610100808354040283529160200191610c70565b820191906000526020600020905b815481529060010190602001808311610c5357829003601f168201915b50505050508152602001600882018054610c8990612c3e565b80601f0160208091040260200160405190810160405280929190818152602001828054610cb590612c3e565b8015610d025780601f10610cd757610100808354040283529160200191610d02565b820191906000526020600020905b815481529060010190602001808311610ce557829003601f168201915b50505050508152602001600982018054610d1b90612c3e565b80601f0160208091040260200160405190810160405280929190818152602001828054610d4790612c3e565b8015610d945780601f10610d6957610100808354040283529160200191610d94565b820191906000526020600020905b815481529060010190602001808311610d7757829003601f168201915b50505050508152602001600a82018054610dad90612c3e565b80601f0160208091040260200160405190810160405280929190818152602001828054610dd990612c3e565b8015610e265780601f10610dfb57610100808354040283529160200191610e26565b820191906000526020600020905b815481529060010190602001808311610e0957829003601f168201915b50505050508152602001600b820160009054906101000a900460ff166006811115610e5457610e53612470565b5b6006811115610e6657610e65612470565b5b8152505081526020019060010190610a7d565b505050509050919050565b6000604051806101a00160405280610e9a6120cc565b81526020018a73ffffffffffffffffffffffffffffffffffffffff16815260200142815260200160008152602001600081526020018515158152602001600015158152602001838152602001898152602001888152602001868152602001878152602001846006811115610f1157610f10612470565b5b81525090506000803373ffffffffffffffffffffffffffffffffffffffff1673ffffffffffffffffffffffffffffffffffffffff1681526020019081526020016000208190806001815401808255809150506001900390600052602060002090600c02016000909190919091506000820151816000015560208201518160010160006101000a81548173ffffffffffffffffffffffffffffffffffffffff021916908373ffffffffffffffffffffffffffffffffffffffff16021790555060408201518160020155606082015181600301556080820151816004015560a08201518160050160006101000a81548160ff02191690831515021790555060c08201518160050160016101000a81548160ff02191690831515021790555060e08201518160060190816110429190612e1b565b506101008201518160070190816110599190612e1b565b506101208201518160080190816110709190612e1b565b506101408201518160090190816110879190612e1b565b5061016082015181600a01908161109e9190612e1b565b5061018082015181600b0160006101000a81548160ff021916908360068111156110cb576110ca612470565b5b02179055505050505050505050505050565b60603373ffffffffffffffffffffffffffffffffffffffff168373ffffffffffffffffffffffffffffffffffffffff16148061119f5750600160008473ffffffffffffffffffffffffffffffffffffffff1673ffffffffffffffffffffffffffffffffffffffff16815260200190815260200160002060003373ffffffffffffffffffffffffffffffffffffffff1673ffffffffffffffffffffffffffffffffffffffff16815260200190815260200160002060009054906101000a900460ff165b6111de576040517f08c379a00000000000000000000000000000000000000000000000000000000081526004016111d590612bef565b60405180910390fd5b60008060008573ffffffffffffffffffffffffffffffffffffffff1673ffffffffffffffffffffffffffffffffffffffff168152602001908152602001600020805480602002602001604051908101604052809291908181526020016000905b8282101561163a57838290600052602060002090600c0201604051806101a0016040529081600082015481526020016001820160009054906101000a900473ffffffffffffffffffffffffffffffffffffffff1673ffffffffffffffffffffffffffffffffffffffff1673ffffffffffffffffffffffffffffffffffffffff1681526020016002820154815260200160038201548152602001600482015481526020016005820160009054906101000a900460ff161515151581526020016005820160019054906101000a900460ff1615151515815260200160068201805461132690612c3e565b80601f016020809104026020016040519081016040528092919081815260200182805461135290612c3e565b801561139f5780601f106113745761010080835404028352916020019161139f565b820191906000526020600020905b81548152906001019060200180831161138257829003601f168201915b505050505081526020016007820180546113b890612c3e565b80601f01602080910402602001604051908101604052809291908181526020018280546113e490612c3e565b80156114315780601f1061140657610100808354040283529160200191611431565b820191906000526020600020905b81548152906001019060200180831161141457829003601f168201915b5050505050815260200160088201805461144a90612c3e565b80601f016020809104026020016040519081016040528092919081815260200182805461147690612c3e565b80156114c35780601f10611498576101008083540402835291602001916114c3565b820191906000526020600020905b8154815290600101906020018083116114a657829003601f168201915b505050505081526020016009820180546114dc90612c3e565b80601f016020809104026020016040519081016040528092919081815260200182805461150890612c3e565b80156115555780601f1061152a57610100808354040283529160200191611555565b820191906000526020600020905b81548152906001019060200180831161153857829003601f168201915b50505050508152602001600a8201805461156e90612c3e565b80601f016020809104026020016040519081016040528092919081815260200182805461159a90612c3e565b80156115e75780601f106115bc576101008083540402835291602001916115e7565b820191906000526020600020905b8154815290600101906020018083116115ca57829003601f168201915b50505050508152602001600b820160009054906101000a900460ff16600681111561161557611614612470565b5b600681111561162757611626612470565b5b815250508152602001906001019061123e565b5050505090506000815167ffffffffffffffff81111561165d5761165c6126de565b5b60405190808252806020026020018201604052801561169657816020015b61168361213e565b81526020019060019003908161167b5790505b5090506000805b835181101561173957858482815181106116ba576116b9612aec565b5b6020026020010151610180015160068111156116d9576116d8612470565b5b03611726578381815181106116f1576116f0612aec565b5b602002602001015183838151811061170c5761170b612aec565b5b6020026020010181905250818061172290612b4a565b9250505b808061173190612b4a565b91505061169d565b5080825281935050505092915050565b60606000600767ffffffffffffffff811115611768576117676126de565b5b60405190808252806020026020018201604052801561179b57816020015b60608152602001906001900390816117865790505b5090506040518060400160405280600581526020017f4f7468657200000000000000000000000000000000000000000000000000000081525081600060068111156117e9576117e8612470565b5b815181106117fa576117f9612aec565b5b60200260200101819052506040518060400160405280600981526020017f456475636174696f6e000000000000000000000000000000000000000000000081525081600160068111156118505761184f612470565b5b8151811061186157611860612aec565b5b60200260200101819052506040518060400160405280600681526020017f4865616c7468000000000000000000000000000000000000000000000000000081525081600260068111156118b7576118b6612470565b5b815181106118c8576118c7612aec565b5b60200260200101819052506040518060400160405280600781526020017f46696e616e636500000000000000000000000000000000000000000000000000815250816003600681111561191e5761191d612470565b5b8151811061192f5761192e612aec565b5b60200260200101819052506040518060400160405280600881526020017f427573696e657373000000000000000000000000000000000000000000000000815250816004600681111561198557611984612470565b5b8151811061199657611995612aec565b5b60200260200101819052506040518060400160405280600681526020017f46616d696c79000000000000000000000000000000000000000000000000000081525081600560068111156119ec576119eb612470565b5b815181106119fd576119fc612aec565b5b60200260200101819052506040518060400160405280600681526020017f52616e646f6d000000000000000000000000000000000000000000000000000081525081600680811115611a5257611a51612470565b5b81518110611a6357611a62612aec565b5b60200260200101819052508091505090565b60603373ffffffffffffffffffffffffffffffffffffffff168273ffffffffffffffffffffffffffffffffffffffff161480611b375750600160008373ffffffffffffffffffffffffffffffffffffffff1673ffffffffffffffffffffffffffffffffffffffff16815260200190815260200160002060003373ffffffffffffffffffffffffffffffffffffffff1673ffffffffffffffffffffffffffffffffffffffff16815260200190815260200160002060009054906101000a900460ff165b611b76576040517f08c379a0000000000000000000000000000000000000000000000000000000008152600401611b6d90612bef565b60405180910390fd5b60008060008473ffffffffffffffffffffffffffffffffffffffff1673ffffffffffffffffffffffffffffffffffffffff168152602001908152602001600020805480602002602001604051908101604052809291908181526020016000905b82821015611fd257838290600052602060002090600c0201604051806101a0016040529081600082015481526020016001820160009054906101000a900473ffffffffffffffffffffffffffffffffffffffff1673ffffffffffffffffffffffffffffffffffffffff1673ffffffffffffffffffffffffffffffffffffffff1681526020016002820154815260200160038201548152602001600482015481526020016005820160009054906101000a900460ff161515151581526020016005820160019054906101000a900460ff16151515158152602001600682018054611cbe90612c3e565b80601f0160208091040260200160405190810160405280929190818152602001828054611cea90612c3e565b8015611d375780601f10611d0c57610100808354040283529160200191611d37565b820191906000526020600020905b815481529060010190602001808311611d1a57829003601f168201915b50505050508152602001600782018054611d5090612c3e565b80601f0160208091040260200160405190810160405280929190818152602001828054611d7c90612c3e565b8015611dc95780601f10611d9e57610100808354040283529160200191611dc9565b820191906000526020600020905b815481529060010190602001808311611dac57829003601f168201915b50505050508152602001600882018054611de290612c3e565b80601f0160208091040260200160405190810160405280929190818152602001828054611e0e90612c3e565b8015611e5b5780601f10611e3057610100808354040283529160200191611e5b565b820191906000526020600020905b815481529060010190602001808311611e3e57829003601f168201915b50505050508152602001600982018054611e7490612c3e565b80601f0160208091040260200160405190810160405280929190818152602001828054611ea090612c3e565b8015611eed5780601f10611ec257610100808354040283529160200191611eed565b820191906000526020600020905b815481529060010190602001808311611ed057829003601f168201915b50505050508152602001600a82018054611f0690612c3e565b80601f0160208091040260200160405190810160405280929190818152602001828054611f3290612c3e565b8015611f7f5780601f10611f5457610100808354040283529160200191611f7f565b820191906000526020600020905b815481529060010190602001808311611f6257829003601f168201915b50505050508152602001600b820160009054906101000a900460ff166006811115611fad57611fac612470565b5b6006811115611fbf57611fbe612470565b5b8152505081526020019060010190611bd6565b5050505090506000815167ffffffffffffffff811115611ff557611ff46126de565b5b60405190808252806020026020018201604052801561202e57816020015b61201b61213e565b8152602001906001900390816120135790505b5090506000805b83518110156120bd5783818151811061205157612050612aec565b5b602002602001015160a00151156120aa5783818151811061207557612074612aec565b5b60200260200101518383815181106120905761208f612aec565b5b602002602001018190525081806120a690612b4a565b9250505b80806120b590612b4a565b915050612035565b50808252819350505050919050565b60008060008060003373ffffffffffffffffffffffffffffffffffffffff1673ffffffffffffffffffffffffffffffffffffffff168152602001908152602001600020805490509050600081036121265760009150612136565b6001816121339190612eed565b91505b819250505090565b604051806101a0016040528060008152602001600073ffffffffffffffffffffffffffffffffffffffff1681526020016000815260200160008152602001600081526020016000151581526020016000151581526020016060815260200160608152602001606081526020016060815260200160608152602001600060068111156121cc576121cb612470565b5b81525090565b6000604051905090565b600080fd5b600080fd5b600073ffffffffffffffffffffffffffffffffffffffff82169050919050565b6000612211826121e6565b9050919050565b61222181612206565b811461222c57600080fd5b50565b60008135905061223e81612218565b92915050565b60006020828403121561225a576122596121dc565b5b60006122688482850161222f565b91505092915050565b600081519050919050565b600082825260208201905092915050565b6000819050602082019050919050565b6122a681612206565b82525050565b60008115159050919050565b6122c1816122ac565b82525050565b6040820160008201516122dd600085018261229d565b5060208201516122f060208501826122b8565b50505050565b600061230283836122c7565b60408301905092915050565b6000602082019050919050565b600061232682612271565b612330818561227c565b935061233b8361228d565b8060005b8381101561236c57815161235388826122f6565b975061235e8361230e565b92505060018101905061233f565b5085935050505092915050565b60006020820190508181036000830152612393818461231b565b905092915050565b600081519050919050565b600082825260208201905092915050565b6000819050602082019050919050565b6000819050919050565b6123da816123c7565b82525050565b600081519050919050565b600082825260208201905092915050565b60005b8381101561241a5780820151818401526020810190506123ff565b60008484015250505050565b6000601f19601f8301169050919050565b6000612442826123e0565b61244c81856123eb565b935061245c8185602086016123fc565b61246581612426565b840191505092915050565b7f4e487b7100000000000000000000000000000000000000000000000000000000600052602160045260246000fd5b600781106124b0576124af612470565b5b50565b60008190506124c18261249f565b919050565b60006124d1826124b3565b9050919050565b6124e1816124c6565b82525050565b60006101a08301600083015161250060008601826123d1565b506020830151612513602086018261229d565b50604083015161252660408601826123d1565b50606083015161253960608601826123d1565b50608083015161254c60808601826123d1565b5060a083015161255f60a08601826122b8565b5060c083015161257260c08601826122b8565b5060e083015184820360e086015261258a8282612437565b9150506101008301518482036101008601526125a68282612437565b9150506101208301518482036101208601526125c28282612437565b9150506101408301518482036101408601526125de8282612437565b9150506101608301518482036101608601526125fa8282612437565b9150506101808301516126116101808601826124d8565b508091505092915050565b600061262883836124e7565b905092915050565b6000602082019050919050565b60006126488261239b565b61265281856123a6565b935083602082028501612664856123b7565b8060005b858110156126a05784840389528151612681858261261c565b945061268c83612630565b925060208a01995050600181019050612668565b50829750879550505050505092915050565b600060208201905081810360008301526126cc818461263d565b905092915050565b600080fd5b600080fd5b7f4e487b7100000000000000000000000000000000000000000000000000000000600052604160045260246000fd5b61271682612426565b810181811067ffffffffffffffff82111715612735576127346126de565b5b80604052505050565b60006127486121d2565b9050612754828261270d565b919050565b600067ffffffffffffffff821115612774576127736126de565b5b61277d82612426565b9050602081019050919050565b82818337600083830152505050565b60006127ac6127a784612759565b61273e565b9050828152602081018484840111156127c8576127c76126d9565b5b6127d384828561278a565b509392505050565b600082601f8301126127f0576127ef6126d4565b5b8135612800848260208601612799565b91505092915050565b612812816122ac565b811461281d57600080fd5b50565b60008135905061282f81612809565b92915050565b6007811061284257600080fd5b50565b60008135905061285481612835565b92915050565b600080600080600080600080610100898b03121561287b5761287a6121dc565b5b60006128898b828c0161222f565b985050602089013567ffffffffffffffff8111156128aa576128a96121e1565b5b6128b68b828c016127db565b975050604089013567ffffffffffffffff8111156128d7576128d66121e1565b5b6128e38b828c016127db565b965050606089013567ffffffffffffffff811115612904576129036121e1565b5b6129108b828c016127db565b955050608089013567ffffffffffffffff811115612931576129306121e1565b5b61293d8b828c016127db565b94505060a061294e8b828c01612820565b93505060c061295f8b828c01612845565b92505060e089013567ffffffffffffffff8111156129805761297f6121e1565b5b61298c8b828c016127db565b9150509295985092959890939650565b6129a5816123c7565b81146129b057600080fd5b50565b6000813590506129c28161299c565b92915050565b600080604083850312156129df576129de6121dc565b5b60006129ed8582860161222f565b92505060206129fe858286016129b3565b9150509250929050565b600081519050919050565b600082825260208201905092915050565b6000819050602082019050919050565b6000612a408383612437565b905092915050565b6000602082019050919050565b6000612a6082612a08565b612a6a8185612a13565b935083602082028501612a7c85612a24565b8060005b85811015612ab85784840389528151612a998582612a34565b9450612aa483612a48565b925060208a01995050600181019050612a80565b50829750879550505050505092915050565b60006020820190508181036000830152612ae48184612a55565b905092915050565b7f4e487b7100000000000000000000000000000000000000000000000000000000600052603260045260246000fd5b7f4e487b7100000000000000000000000000000000000000000000000000000000600052601160045260246000fd5b6000612b55826123c7565b91507fffffffffffffffffffffffffffffffffffffffffffffffffffffffffffffffff8203612b8757612b86612b1b565b5b600182019050919050565b600082825260208201905092915050565b7f596f7520646f6e27742068617665206163636573730000000000000000000000600082015250565b6000612bd9601583612b92565b9150612be482612ba3565b602082019050919050565b60006020820190508181036000830152612c0881612bcc565b9050919050565b7f4e487b7100000000000000000000000000000000000000000000000000000000600052602260045260246000fd5b60006002820490506001821680612c5657607f821691505b602082108103612c6957612c68612c0f565b5b50919050565b60008190508160005260206000209050919050565b60006020601f8301049050919050565b600082821b905092915050565b600060088302612cd17fffffffffffffffffffffffffffffffffffffffffffffffffffffffffffffffff82612c94565b612cdb8683612c94565b95508019841693508086168417925050509392505050565b6000819050919050565b6000612d18612d13612d0e846123c7565b612cf3565b6123c7565b9050919050565b6000819050919050565b612d3283612cfd565b612d46612d3e82612d1f565b848454612ca1565b825550505050565b600090565b612d5b612d4e565b612d66818484612d29565b505050565b5b81811015612d8a57612d7f600082612d53565b600181019050612d6c565b5050565b601f821115612dcf57612da081612c6f565b612da984612c84565b81016020851015612db8578190505b612dcc612dc485612c84565b830182612d6b565b50505b505050565b600082821c905092915050565b6000612df260001984600802612dd4565b1980831691505092915050565b6000612e0b8383612de1565b9150826002028217905092915050565b612e24826123e0565b67ffffffffffffffff811115612e3d57612e3c6126de565b5b612e478254612c3e565b612e52828285612d8e565b600060209050601f831160018114612e855760008415612e73578287015190505b612e7d8582612dff565b865550612ee5565b601f198416612e9386612c6f565b60005b82811015612ebb57848901518255600182019150602085019450602081019050612e96565b86831015612ed85784890151612ed4601f891682612de1565b8355505b6001600288020188555050505b505050505050565b6000612ef8826123c7565b9150612f03836123c7565b9250828201905080821115612f1b57612f1a612b1b565b5b9291505056fea2646970667358221220f592dd0c96c2df476ee7f420968dd2f551471da8745eb273a863a9d31b4c7a3664736f6c63430008110033",
  "linkReferences": {},
  "deployedLinkReferences": {}
}