{
  "_format": "hh-sol-artifact-1",
  "contractName": "Vault",
  "sourceName": "contracts/Vault.sol",
  "abi": [
    {
      "anonymous": false,
      "inputs": [
        {
          "indexed": true,
          "internalType": "address",
          "name": "fileOwner",
          "type": "address"
        },
        {
          "indexed": true,
          "internalType": "address",
          "name": "sharedWith",
          "type": "address"
        },
        {
          "indexed": false,
          "internalType": "bool",
          "name": "hasAccess",
          "type": "bool"
        }
      ],
      "name": "AccessChanged",
      "type": "event"
    },
    {
      "anonymous": false,
      "inputs": [
        {
          "indexed": true,
          "internalType": "address",
          "name": "fileOwner",
          "type": "address"
        },
        {
          "indexed": true,
          "internalType": "address",
          "name": "sharedWith",
          "type": "address"
        },
        {
          "indexed": false,
          "internalType": "string",
          "name": "cid",
          "type": "string"
        },
        {
          "indexed": false,
          "internalType": "bool",
          "name": "hasAccess",
          "type": "bool"
        }
      ],
      "name": "FileShared",
      "type": "event"
    },
    {
      "inputs": [
        {
          "internalType": "address",
          "name": "_user",
          "type": "address"
        }
      ],
      "name": "getFiles",
      "outputs": [
        {
          "components": [
            {
              "internalType": "address",
              "name": "owner",
              "type": "address"
            },
            {
              "internalType": "uint256",
              "name": "dateUploaded",
              "type": "uint256"
            },
            {
              "internalType": "uint256",
              "name": "dateModified",
              "type": "uint256"
            },
            {
              "internalType": "uint256",
              "name": "dateAccessed",
              "type": "uint256"
            },
            {
              "internalType": "bool",
              "name": "isFavourite",
              "type": "bool"
            },
            {
              "internalType": "bool",
              "name": "isArchived",
              "type": "bool"
            },
            {
              "internalType": "string",
              "name": "cid",
              "type": "string"
            },
            {
              "internalType": "string",
              "name": "name",
              "type": "string"
            },
            {
              "internalType": "string",
              "name": "description",
              "type": "string"
            },
            {
              "internalType": "string",
              "name": "extension",
              "type": "string"
            },
            {
              "internalType": "string",
              "name": "size",
              "type": "string"
            },
            {
              "internalType": "enum Vault.Tags",
              "name": "tag",
              "type": "uint8"
            }
          ],
          "internalType": "struct Vault.File[]",
          "name": "",
          "type": "tuple[]"
        }
      ],
      "stateMutability": "view",
      "type": "function"
    },
    {
      "inputs": [
        {
          "internalType": "address",
          "name": "_user",
          "type": "address"
        }
      ],
      "name": "getSharedFiles",
      "outputs": [
        {
          "components": [
            {
              "internalType": "address",
              "name": "owner",
              "type": "address"
            },
            {
              "internalType": "uint256",
              "name": "dateUploaded",
              "type": "uint256"
            },
            {
              "internalType": "uint256",
              "name": "dateModified",
              "type": "uint256"
            },
            {
              "internalType": "uint256",
              "name": "dateAccessed",
              "type": "uint256"
            },
            {
              "internalType": "bool",
              "name": "isFavourite",
              "type": "bool"
            },
            {
              "internalType": "bool",
              "name": "isArchived",
              "type": "bool"
            },
            {
              "internalType": "string",
              "name": "cid",
              "type": "string"
            },
            {
              "internalType": "string",
              "name": "name",
              "type": "string"
            },
            {
              "internalType": "string",
              "name": "description",
              "type": "string"
            },
            {
              "internalType": "string",
              "name": "extension",
              "type": "string"
            },
            {
              "internalType": "string",
              "name": "size",
              "type": "string"
            },
            {
              "internalType": "enum Vault.Tags",
              "name": "tag",
              "type": "uint8"
            }
          ],
          "internalType": "struct Vault.File[]",
          "name": "",
          "type": "tuple[]"
        }
      ],
      "stateMutability": "view",
      "type": "function"
    },
    {
      "inputs": [],
      "name": "getTags",
      "outputs": [
        {
          "internalType": "string[]",
          "name": "",
          "type": "string[]"
        }
      ],
      "stateMutability": "pure",
      "type": "function"
    },
    {
      "inputs": [
        {
          "internalType": "address",
          "name": "_fileOwner",
          "type": "address"
        },
        {
          "internalType": "string",
          "name": "_cid",
          "type": "string"
        },
        {
          "internalType": "address",
          "name": "_sharedWith",
          "type": "address"
        }
      ],
      "name": "toggleAccess",
      "outputs": [],
      "stateMutability": "nonpayable",
      "type": "function"
    },
    {
      "inputs": [
        {
          "internalType": "string",
          "name": "_cid",
          "type": "string"
        }
      ],
      "name": "toggleFavourite",
      "outputs": [
        {
          "internalType": "string",
          "name": "",
          "type": "string"
        }
      ],
      "stateMutability": "nonpayable",
      "type": "function"
    },
    {
      "inputs": [
        {
          "internalType": "address",
          "name": "_owner",
          "type": "address"
        },
        {
          "internalType": "string",
          "name": "_name",
          "type": "string"
        },
        {
          "internalType": "string",
          "name": "_description",
          "type": "string"
        },
        {
          "internalType": "string",
          "name": "_size",
          "type": "string"
        },
        {
          "internalType": "string",
          "name": "_extension",
          "type": "string"
        },
        {
          "internalType": "bool",
          "name": "_isFavourite",
          "type": "bool"
        },
        {
          "internalType": "enum Vault.Tags",
          "name": "_tag",
          "type": "uint8"
        },
        {
          "internalType": "string",
          "name": "_cid",
          "type": "string"
        }
      ],
      "name": "uploadFile",
      "outputs": [],
      "stateMutability": "nonpayable",
      "type": "function"
    }
  ],
  "bytecode": "0x608060405234801561001057600080fd5b50612e97806100206000396000f3fe608060405234801561001057600080fd5b50600436106100625760003560e01c80631d1524221461006757806335ab472714610097578063433bf37b146100c757806347151354146100f7578063761b2d0d14610113578063995d9ab71461012f575b600080fd5b610081600480360381019061007c9190611f4b565b61014d565b60405161008e91906122a4565b60405180910390f35b6100b160048036038101906100ac91906123fb565b6109cf565b6040516100be919061248e565b60405180910390f35b6100e160048036038101906100dc9190611f4b565b610c15565b6040516100ee91906122a4565b60405180910390f35b610111600480360381019061010c9190612501565b611171565b005b61012d60048036038101906101289190612643565b6113b2565b005b610137611b20565b6040516101449190612774565b60405180910390f35b6060600073ffffffffffffffffffffffffffffffffffffffff168273ffffffffffffffffffffffffffffffffffffffff16036101be576040517f08c379a00000000000000000000000000000000000000000000000000000000081526004016101b5906127e2565b60405180910390fd5b6000805b600260008573ffffffffffffffffffffffffffffffffffffffff1673ffffffffffffffffffffffffffffffffffffffff1681526020019081526020016000208054905081101561035e57600260008573ffffffffffffffffffffffffffffffffffffffff1673ffffffffffffffffffffffffffffffffffffffff168152602001908152602001600020818154811061025d5761025c612802565b5b9060005260206000200160000160149054906101000a900460ff161561034b57600080600260008773ffffffffffffffffffffffffffffffffffffffff1673ffffffffffffffffffffffffffffffffffffffff16815260200190815260200160002083815481106102d1576102d0612802565b5b9060005260206000200160000160009054906101000a900473ffffffffffffffffffffffffffffffffffffffff1673ffffffffffffffffffffffffffffffffffffffff1673ffffffffffffffffffffffffffffffffffffffff16815260200190815260200160002080549050826103489190612860565b91505b808061035690612894565b9150506101c2565b5060008167ffffffffffffffff81111561037b5761037a6122d0565b5b6040519080825280602002602001820160405280156103b457816020015b6103a1611e4c565b8152602001906001900390816103995790505b5090506000805b600260008773ffffffffffffffffffffffffffffffffffffffff1673ffffffffffffffffffffffffffffffffffffffff168152602001908152602001600020805490508110156109c357600260008773ffffffffffffffffffffffffffffffffffffffff1673ffffffffffffffffffffffffffffffffffffffff168152602001908152602001600020818154811061045657610455612802565b5b9060005260206000200160000160149054906101000a900460ff16156109b0576000600260008873ffffffffffffffffffffffffffffffffffffffff1673ffffffffffffffffffffffffffffffffffffffff16815260200190815260200160002082815481106104c9576104c8612802565b5b9060005260206000200160000160009054906101000a900473ffffffffffffffffffffffffffffffffffffffff16905060005b6000808373ffffffffffffffffffffffffffffffffffffffff1673ffffffffffffffffffffffffffffffffffffffff168152602001908152602001600020805490508110156109ad576000808373ffffffffffffffffffffffffffffffffffffffff1673ffffffffffffffffffffffffffffffffffffffff168152602001908152602001600020818154811061059557610594612802565b5b90600052602060002090600b0201604051806101800160405290816000820160009054906101000a900473ffffffffffffffffffffffffffffffffffffffff1673ffffffffffffffffffffffffffffffffffffffff1673ffffffffffffffffffffffffffffffffffffffff1681526020016001820154815260200160028201548152602001600382015481526020016004820160009054906101000a900460ff161515151581526020016004820160019054906101000a900460ff161515151581526020016005820180546106699061290b565b80601f01602080910402602001604051908101604052809291908181526020018280546106959061290b565b80156106e25780601f106106b7576101008083540402835291602001916106e2565b820191906000526020600020905b8154815290600101906020018083116106c557829003601f168201915b505050505081526020016006820180546106fb9061290b565b80601f01602080910402602001604051908101604052809291908181526020018280546107279061290b565b80156107745780601f1061074957610100808354040283529160200191610774565b820191906000526020600020905b81548152906001019060200180831161075757829003601f168201915b5050505050815260200160078201805461078d9061290b565b80601f01602080910402602001604051908101604052809291908181526020018280546107b99061290b565b80156108065780601f106107db57610100808354040283529160200191610806565b820191906000526020600020905b8154815290600101906020018083116107e957829003601f168201915b5050505050815260200160088201805461081f9061290b565b80601f016020809104026020016040519081016040528092919081815260200182805461084b9061290b565b80156108985780601f1061086d57610100808354040283529160200191610898565b820191906000526020600020905b81548152906001019060200180831161087b57829003601f168201915b505050505081526020016009820180546108b19061290b565b80601f01602080910402602001604051908101604052809291908181526020018280546108dd9061290b565b801561092a5780601f106108ff5761010080835404028352916020019161092a565b820191906000526020600020905b81548152906001019060200180831161090d57829003601f168201915b50505050508152602001600a820160009054906101000a900460ff16600681111561095857610957612077565b5b600681111561096a57610969612077565b5b8152505085858151811061098157610980612802565b5b6020026020010181905250838061099790612894565b94505080806109a590612894565b9150506104fc565b50505b80806109bb90612894565b9150506103bb565b50819350505050919050565b606060005b6000803373ffffffffffffffffffffffffffffffffffffffff1673ffffffffffffffffffffffffffffffffffffffff16815260200190815260200160002080549050811015610bd45782604051602001610a2e9190612978565b604051602081830303815290604052805190602001206000803373ffffffffffffffffffffffffffffffffffffffff1673ffffffffffffffffffffffffffffffffffffffff1681526020019081526020016000208281548110610a9457610a93612802565b5b90600052602060002090600b0201600501604051602001610ab59190612a27565b6040516020818303038152906040528051906020012003610bc1576000803373ffffffffffffffffffffffffffffffffffffffff1673ffffffffffffffffffffffffffffffffffffffff1681526020019081526020016000208181548110610b2057610b1f612802565b5b90600052602060002090600b020160040160009054906101000a900460ff16156000803373ffffffffffffffffffffffffffffffffffffffff1673ffffffffffffffffffffffffffffffffffffffff1681526020019081526020016000208281548110610b9057610b8f612802565b5b90600052602060002090600b020160040160006101000a81548160ff02191690831515021790555082915050610c10565b8080610bcc90612894565b9150506109d4565b506040517f08c379a0000000000000000000000000000000000000000000000000000000008152600401610c0790612ab0565b60405180910390fd5b919050565b60603373ffffffffffffffffffffffffffffffffffffffff168273ffffffffffffffffffffffffffffffffffffffff161480610cd75750600160008373ffffffffffffffffffffffffffffffffffffffff1673ffffffffffffffffffffffffffffffffffffffff16815260200190815260200160002060003373ffffffffffffffffffffffffffffffffffffffff1673ffffffffffffffffffffffffffffffffffffffff16815260200190815260200160002060009054906101000a900460ff165b610d16576040517f08c379a0000000000000000000000000000000000000000000000000000000008152600401610d0d90612b1c565b60405180910390fd5b6000808373ffffffffffffffffffffffffffffffffffffffff1673ffffffffffffffffffffffffffffffffffffffff168152602001908152602001600020805480602002602001604051908101604052809291908181526020016000905b8282101561116657838290600052602060002090600b0201604051806101800160405290816000820160009054906101000a900473ffffffffffffffffffffffffffffffffffffffff1673ffffffffffffffffffffffffffffffffffffffff1673ffffffffffffffffffffffffffffffffffffffff1681526020016001820154815260200160028201548152602001600382015481526020016004820160009054906101000a900460ff161515151581526020016004820160019054906101000a900460ff16151515158152602001600582018054610e529061290b565b80601f0160208091040260200160405190810160405280929190818152602001828054610e7e9061290b565b8015610ecb5780601f10610ea057610100808354040283529160200191610ecb565b820191906000526020600020905b815481529060010190602001808311610eae57829003601f168201915b50505050508152602001600682018054610ee49061290b565b80601f0160208091040260200160405190810160405280929190818152602001828054610f109061290b565b8015610f5d5780601f10610f3257610100808354040283529160200191610f5d565b820191906000526020600020905b815481529060010190602001808311610f4057829003601f168201915b50505050508152602001600782018054610f769061290b565b80601f0160208091040260200160405190810160405280929190818152602001828054610fa29061290b565b8015610fef5780601f10610fc457610100808354040283529160200191610fef565b820191906000526020600020905b815481529060010190602001808311610fd257829003601f168201915b505050505081526020016008820180546110089061290b565b80601f01602080910402602001604051908101604052809291908181526020018280546110349061290b565b80156110815780601f1061105657610100808354040283529160200191611081565b820191906000526020600020905b81548152906001019060200180831161106457829003601f168201915b5050505050815260200160098201805461109a9061290b565b80601f01602080910402602001604051908101604052809291908181526020018280546110c69061290b565b80156111135780601f106110e857610100808354040283529160200191611113565b820191906000526020600020905b8154815290600101906020018083116110f657829003601f168201915b50505050508152602001600a820160009054906101000a900460ff16600681111561114157611140612077565b5b600681111561115357611152612077565b5b8152505081526020019060010190610d74565b505050509050919050565b60006040518061018001604052808a73ffffffffffffffffffffffffffffffffffffffff168152602001428152602001600081526020016000815260200185151581526020016000151581526020018381526020018981526020018881526020018681526020018781526020018460068111156111f1576111f0612077565b5b81525090506000803373ffffffffffffffffffffffffffffffffffffffff1673ffffffffffffffffffffffffffffffffffffffff1681526020019081526020016000208190806001815401808255809150506001900390600052602060002090600b020160009091909190915060008201518160000160006101000a81548173ffffffffffffffffffffffffffffffffffffffff021916908373ffffffffffffffffffffffffffffffffffffffff16021790555060208201518160010155604082015181600201556060820151816003015560808201518160040160006101000a81548160ff02191690831515021790555060a08201518160040160016101000a81548160ff02191690831515021790555060c08201518160050190816113189190612cd3565b5060e082015181600601908161132e9190612cd3565b506101008201518160070190816113459190612cd3565b5061012082015181600801908161135c9190612cd3565b506101408201518160090190816113739190612cd3565b5061016082015181600a0160006101000a81548160ff021916908360068111156113a05761139f612077565b5b02179055505050505050505050505050565b60008080600090505b6000808773ffffffffffffffffffffffffffffffffffffffff1673ffffffffffffffffffffffffffffffffffffffff168152602001908152602001600020805490508110156114d657846040516020016114159190612978565b604051602081830303815290604052805190602001206000808873ffffffffffffffffffffffffffffffffffffffff1673ffffffffffffffffffffffffffffffffffffffff168152602001908152602001600020828154811061147b5761147a612802565b5b90600052602060002090600b020160050160405160200161149c9190612a27565b60405160208183030381529060405280519060200120036114c357600192508091506114d6565b80806114ce90612894565b9150506113bb565b5081611517576040517f08c379a000000000000000000000000000000000000000000000000000000000815260040161150e90612ab0565b60405180910390fd5b8473ffffffffffffffffffffffffffffffffffffffff163373ffffffffffffffffffffffffffffffffffffffff1614611585576040517f08c379a000000000000000000000000000000000000000000000000000000000815260040161157c90612e17565b60405180910390fd5b600160008673ffffffffffffffffffffffffffffffffffffffff1673ffffffffffffffffffffffffffffffffffffffff16815260200190815260200160002060008473ffffffffffffffffffffffffffffffffffffffff1673ffffffffffffffffffffffffffffffffffffffff16815260200190815260200160002060009054906101000a900460ff1661171357600260008673ffffffffffffffffffffffffffffffffffffffff1673ffffffffffffffffffffffffffffffffffffffff16815260200190815260200160002060405180604001604052808573ffffffffffffffffffffffffffffffffffffffff168152602001600115158152509080600181540180825580915050600190039060005260206000200160009091909190915060008201518160000160006101000a81548173ffffffffffffffffffffffffffffffffffffffff021916908373ffffffffffffffffffffffffffffffffffffffff16021790555060208201518160000160146101000a81548160ff021916908315150217905550505061190d565b60005b600260008773ffffffffffffffffffffffffffffffffffffffff1673ffffffffffffffffffffffffffffffffffffffff1681526020019081526020016000208054905081101561190b578373ffffffffffffffffffffffffffffffffffffffff16600260008873ffffffffffffffffffffffffffffffffffffffff1673ffffffffffffffffffffffffffffffffffffffff16815260200190815260200160002082815481106117c8576117c7612802565b5b9060005260206000200160000160009054906101000a900473ffffffffffffffffffffffffffffffffffffffff1673ffffffffffffffffffffffffffffffffffffffff16036118f857600260008773ffffffffffffffffffffffffffffffffffffffff1673ffffffffffffffffffffffffffffffffffffffff168152602001908152602001600020818154811061186257611861612802565b5b9060005260206000200160000160149054906101000a900460ff1615600260008873ffffffffffffffffffffffffffffffffffffffff1673ffffffffffffffffffffffffffffffffffffffff16815260200190815260200160002082815481106118cf576118ce612802565b5b9060005260206000200160000160146101000a81548160ff02191690831515021790555061190b565b808061190390612894565b915050611716565b505b600160008673ffffffffffffffffffffffffffffffffffffffff1673ffffffffffffffffffffffffffffffffffffffff16815260200190815260200160002060008473ffffffffffffffffffffffffffffffffffffffff1673ffffffffffffffffffffffffffffffffffffffff16815260200190815260200160002060009054906101000a900460ff1615600160008773ffffffffffffffffffffffffffffffffffffffff1673ffffffffffffffffffffffffffffffffffffffff16815260200190815260200160002060008573ffffffffffffffffffffffffffffffffffffffff1673ffffffffffffffffffffffffffffffffffffffff16815260200190815260200160002060006101000a81548160ff0219169083151502179055508273ffffffffffffffffffffffffffffffffffffffff168573ffffffffffffffffffffffffffffffffffffffff167f0c2e6b1ab7b47daeb309d6dc42624fc533cf3bb0a6239a3ec5aacf3df7c9f287600160008973ffffffffffffffffffffffffffffffffffffffff1673ffffffffffffffffffffffffffffffffffffffff16815260200190815260200160002060008773ffffffffffffffffffffffffffffffffffffffff1673ffffffffffffffffffffffffffffffffffffffff16815260200190815260200160002060009054906101000a900460ff16604051611b119190612e46565b60405180910390a35050505050565b60606000600767ffffffffffffffff811115611b3f57611b3e6122d0565b5b604051908082528060200260200182016040528015611b7257816020015b6060815260200190600190039081611b5d5790505b5090506040518060400160405280600581526020017f4f746865720000000000000000000000000000000000000000000000000000008152508160006006811115611bc057611bbf612077565b5b81518110611bd157611bd0612802565b5b60200260200101819052506040518060400160405280600981526020017f456475636174696f6e00000000000000000000000000000000000000000000008152508160016006811115611c2757611c26612077565b5b81518110611c3857611c37612802565b5b60200260200101819052506040518060400160405280600681526020017f4865616c746800000000000000000000000000000000000000000000000000008152508160026006811115611c8e57611c8d612077565b5b81518110611c9f57611c9e612802565b5b60200260200101819052506040518060400160405280600781526020017f46696e616e6365000000000000000000000000000000000000000000000000008152508160036006811115611cf557611cf4612077565b5b81518110611d0657611d05612802565b5b60200260200101819052506040518060400160405280600881526020017f427573696e6573730000000000000000000000000000000000000000000000008152508160046006811115611d5c57611d5b612077565b5b81518110611d6d57611d6c612802565b5b60200260200101819052506040518060400160405280600681526020017f46616d696c7900000000000000000000000000000000000000000000000000008152508160056006811115611dc357611dc2612077565b5b81518110611dd457611dd3612802565b5b60200260200101819052506040518060400160405280600681526020017f52616e646f6d000000000000000000000000000000000000000000000000000081525081600680811115611e2957611e28612077565b5b81518110611e3a57611e39612802565b5b60200260200101819052508091505090565b604051806101800160405280600073ffffffffffffffffffffffffffffffffffffffff168152602001600081526020016000815260200160008152602001600015158152602001600015158152602001606081526020016060815260200160608152602001606081526020016060815260200160006006811115611ed357611ed2612077565b5b81525090565b6000604051905090565b600080fd5b600080fd5b600073ffffffffffffffffffffffffffffffffffffffff82169050919050565b6000611f1882611eed565b9050919050565b611f2881611f0d565b8114611f3357600080fd5b50565b600081359050611f4581611f1f565b92915050565b600060208284031215611f6157611f60611ee3565b5b6000611f6f84828501611f36565b91505092915050565b600081519050919050565b600082825260208201905092915050565b6000819050602082019050919050565b611fad81611f0d565b82525050565b6000819050919050565b611fc681611fb3565b82525050565b60008115159050919050565b611fe181611fcc565b82525050565b600081519050919050565b600082825260208201905092915050565b60005b83811015612021578082015181840152602081019050612006565b60008484015250505050565b6000601f19601f8301169050919050565b600061204982611fe7565b6120538185611ff2565b9350612063818560208601612003565b61206c8161202d565b840191505092915050565b7f4e487b7100000000000000000000000000000000000000000000000000000000600052602160045260246000fd5b600781106120b7576120b6612077565b5b50565b60008190506120c8826120a6565b919050565b60006120d8826120ba565b9050919050565b6120e8816120cd565b82525050565b6000610180830160008301516121076000860182611fa4565b50602083015161211a6020860182611fbd565b50604083015161212d6040860182611fbd565b5060608301516121406060860182611fbd565b5060808301516121536080860182611fd8565b5060a083015161216660a0860182611fd8565b5060c083015184820360c086015261217e828261203e565b91505060e083015184820360e0860152612198828261203e565b9150506101008301518482036101008601526121b4828261203e565b9150506101208301518482036101208601526121d0828261203e565b9150506101408301518482036101408601526121ec828261203e565b9150506101608301516122036101608601826120df565b508091505092915050565b600061221a83836120ee565b905092915050565b6000602082019050919050565b600061223a82611f78565b6122448185611f83565b93508360208202850161225685611f94565b8060005b858110156122925784840389528151612273858261220e565b945061227e83612222565b925060208a0199505060018101905061225a565b50829750879550505050505092915050565b600060208201905081810360008301526122be818461222f565b905092915050565b600080fd5b600080fd5b7f4e487b7100000000000000000000000000000000000000000000000000000000600052604160045260246000fd5b6123088261202d565b810181811067ffffffffffffffff82111715612327576123266122d0565b5b80604052505050565b600061233a611ed9565b905061234682826122ff565b919050565b600067ffffffffffffffff821115612366576123656122d0565b5b61236f8261202d565b9050602081019050919050565b82818337600083830152505050565b600061239e6123998461234b565b612330565b9050828152602081018484840111156123ba576123b96122cb565b5b6123c584828561237c565b509392505050565b600082601f8301126123e2576123e16122c6565b5b81356123f284826020860161238b565b91505092915050565b60006020828403121561241157612410611ee3565b5b600082013567ffffffffffffffff81111561242f5761242e611ee8565b5b61243b848285016123cd565b91505092915050565b600082825260208201905092915050565b600061246082611fe7565b61246a8185612444565b935061247a818560208601612003565b6124838161202d565b840191505092915050565b600060208201905081810360008301526124a88184612455565b905092915050565b6124b981611fcc565b81146124c457600080fd5b50565b6000813590506124d6816124b0565b92915050565b600781106124e957600080fd5b50565b6000813590506124fb816124dc565b92915050565b600080600080600080600080610100898b03121561252257612521611ee3565b5b60006125308b828c01611f36565b985050602089013567ffffffffffffffff81111561255157612550611ee8565b5b61255d8b828c016123cd565b975050604089013567ffffffffffffffff81111561257e5761257d611ee8565b5b61258a8b828c016123cd565b965050606089013567ffffffffffffffff8111156125ab576125aa611ee8565b5b6125b78b828c016123cd565b955050608089013567ffffffffffffffff8111156125d8576125d7611ee8565b5b6125e48b828c016123cd565b94505060a06125f58b828c016124c7565b93505060c06126068b828c016124ec565b92505060e089013567ffffffffffffffff81111561262757612626611ee8565b5b6126338b828c016123cd565b9150509295985092959890939650565b60008060006060848603121561265c5761265b611ee3565b5b600061266a86828701611f36565b935050602084013567ffffffffffffffff81111561268b5761268a611ee8565b5b612697868287016123cd565b92505060406126a886828701611f36565b9150509250925092565b600081519050919050565b600082825260208201905092915050565b6000819050602082019050919050565b60006126ea838361203e565b905092915050565b6000602082019050919050565b600061270a826126b2565b61271481856126bd565b935083602082028501612726856126ce565b8060005b85811015612762578484038952815161274385826126de565b945061274e836126f2565b925060208a0199505060018101905061272a565b50829750879550505050505092915050565b6000602082019050818103600083015261278e81846126ff565b905092915050565b7f496e76616c696420616464726573730000000000000000000000000000000000600082015250565b60006127cc600f83612444565b91506127d782612796565b602082019050919050565b600060208201905081810360008301526127fb816127bf565b9050919050565b7f4e487b7100000000000000000000000000000000000000000000000000000000600052603260045260246000fd5b7f4e487b7100000000000000000000000000000000000000000000000000000000600052601160045260246000fd5b600061286b82611fb3565b915061287683611fb3565b925082820190508082111561288e5761288d612831565b5b92915050565b600061289f82611fb3565b91507fffffffffffffffffffffffffffffffffffffffffffffffffffffffffffffffff82036128d1576128d0612831565b5b600182019050919050565b7f4e487b7100000000000000000000000000000000000000000000000000000000600052602260045260246000fd5b6000600282049050600182168061292357607f821691505b602082108103612936576129356128dc565b5b50919050565b600081905092915050565b600061295282611fe7565b61295c818561293c565b935061296c818560208601612003565b80840191505092915050565b60006129848284612947565b915081905092915050565b60008190508160005260206000209050919050565b600081546129b18161290b565b6129bb818661293c565b945060018216600081146129d657600181146129eb57612a1e565b60ff1983168652811515820286019350612a1e565b6129f48561298f565b60005b83811015612a16578154818901526001820191506020810190506129f7565b838801955050505b50505092915050565b6000612a3382846129a4565b915081905092915050565b7f46696c6520776974682074686520676976656e20434944206e6f7420666f756e60008201527f6400000000000000000000000000000000000000000000000000000000000000602082015250565b6000612a9a602183612444565b9150612aa582612a3e565b604082019050919050565b60006020820190508181036000830152612ac981612a8d565b9050919050565b7f596f7520646f6e27742068617665206163636573730000000000000000000000600082015250565b6000612b06601583612444565b9150612b1182612ad0565b602082019050919050565b60006020820190508181036000830152612b3581612af9565b9050919050565b60006020601f8301049050919050565b600082821b905092915050565b600060088302612b897fffffffffffffffffffffffffffffffffffffffffffffffffffffffffffffffff82612b4c565b612b938683612b4c565b95508019841693508086168417925050509392505050565b6000819050919050565b6000612bd0612bcb612bc684611fb3565b612bab565b611fb3565b9050919050565b6000819050919050565b612bea83612bb5565b612bfe612bf682612bd7565b848454612b59565b825550505050565b600090565b612c13612c06565b612c1e818484612be1565b505050565b5b81811015612c4257612c37600082612c0b565b600181019050612c24565b5050565b601f821115612c8757612c588161298f565b612c6184612b3c565b81016020851015612c70578190505b612c84612c7c85612b3c565b830182612c23565b50505b505050565b600082821c905092915050565b6000612caa60001984600802612c8c565b1980831691505092915050565b6000612cc38383612c99565b9150826002028217905092915050565b612cdc82611fe7565b67ffffffffffffffff811115612cf557612cf46122d0565b5b612cff825461290b565b612d0a828285612c46565b600060209050601f831160018114612d3d5760008415612d2b578287015190505b612d358582612cb7565b865550612d9d565b601f198416612d4b8661298f565b60005b82811015612d7357848901518255600182019150602085019450602081019050612d4e565b86831015612d905784890151612d8c601f891682612c99565b8355505b6001600288020188555050505b505050505050565b7f4f6e6c79207468652066696c65206f776e65722063616e20746f67676c65206160008201527f6363657373000000000000000000000000000000000000000000000000000000602082015250565b6000612e01602583612444565b9150612e0c82612da5565b604082019050919050565b60006020820190508181036000830152612e3081612df4565b9050919050565b612e4081611fcc565b82525050565b6000602082019050612e5b6000830184612e37565b9291505056fea2646970667358221220cc00c51aa08ea548dada747dd5f620d824458b5daf5c3aba5a31efc81c8864cc64736f6c63430008110033",
  "linkReferences": {},
  "deployedLinkReferences": {}
}