{
  "_format": "hh-sol-artifact-1",
  "contractName": "Vault",
  "sourceName": "contracts/Vault.sol",
  "abi": [
    {
      "inputs": [
        {
          "internalType": "string",
          "name": "_cid",
          "type": "string"
        },
        {
          "internalType": "string",
          "name": "_name",
          "type": "string"
        },
        {
          "internalType": "string",
          "name": "_description",
          "type": "string"
        },
        {
          "internalType": "bool",
          "name": "_isFavourite",
          "type": "bool"
        },
        {
          "internalType": "bool",
          "name": "_isArchived",
          "type": "bool"
        },
        {
          "internalType": "enum Vault.Tags",
          "name": "_tag",
          "type": "uint8"
        }
      ],
      "name": "editFile",
      "outputs": [],
      "stateMutability": "nonpayable",
      "type": "function"
    },
    {
      "inputs": [
        {
          "internalType": "string",
          "name": "_cid",
          "type": "string"
        }
      ],
      "name": "getFile",
      "outputs": [
        {
          "components": [
            {
              "internalType": "address",
              "name": "owner",
              "type": "address"
            },
            {
              "internalType": "string",
              "name": "name",
              "type": "string"
            },
            {
              "internalType": "string",
              "name": "description",
              "type": "string"
            },
            {
              "internalType": "uint256",
              "name": "size",
              "type": "uint256"
            },
            {
              "internalType": "uint256",
              "name": "dateUploaded",
              "type": "uint256"
            },
            {
              "internalType": "uint256",
              "name": "dateAccessed",
              "type": "uint256"
            },
            {
              "internalType": "uint256",
              "name": "dateDeleted",
              "type": "uint256"
            },
            {
              "internalType": "uint256",
              "name": "dateModified",
              "type": "uint256"
            },
            {
              "internalType": "string",
              "name": "cid",
              "type": "string"
            },
            {
              "internalType": "bool",
              "name": "isFavourite",
              "type": "bool"
            },
            {
              "internalType": "bool",
              "name": "isShared",
              "type": "bool"
            },
            {
              "internalType": "bool",
              "name": "isArchived",
              "type": "bool"
            },
            {
              "internalType": "bool",
              "name": "isDeleted",
              "type": "bool"
            },
            {
              "internalType": "string",
              "name": "extension",
              "type": "string"
            },
            {
              "internalType": "enum Vault.Tags",
              "name": "tag",
              "type": "uint8"
            }
          ],
          "internalType": "struct Vault.File",
          "name": "",
          "type": "tuple"
        }
      ],
      "stateMutability": "view",
      "type": "function"
    },
    {
      "inputs": [
        {
          "internalType": "string",
          "name": "_cid",
          "type": "string"
        }
      ],
      "name": "getFileAccessors",
      "outputs": [
        {
          "internalType": "address[]",
          "name": "",
          "type": "address[]"
        }
      ],
      "stateMutability": "view",
      "type": "function"
    },
    {
      "inputs": [],
      "name": "getFiles",
      "outputs": [
        {
          "components": [
            {
              "internalType": "address",
              "name": "owner",
              "type": "address"
            },
            {
              "internalType": "string",
              "name": "name",
              "type": "string"
            },
            {
              "internalType": "string",
              "name": "description",
              "type": "string"
            },
            {
              "internalType": "uint256",
              "name": "size",
              "type": "uint256"
            },
            {
              "internalType": "uint256",
              "name": "dateUploaded",
              "type": "uint256"
            },
            {
              "internalType": "uint256",
              "name": "dateAccessed",
              "type": "uint256"
            },
            {
              "internalType": "uint256",
              "name": "dateDeleted",
              "type": "uint256"
            },
            {
              "internalType": "uint256",
              "name": "dateModified",
              "type": "uint256"
            },
            {
              "internalType": "string",
              "name": "cid",
              "type": "string"
            },
            {
              "internalType": "bool",
              "name": "isFavourite",
              "type": "bool"
            },
            {
              "internalType": "bool",
              "name": "isShared",
              "type": "bool"
            },
            {
              "internalType": "bool",
              "name": "isArchived",
              "type": "bool"
            },
            {
              "internalType": "bool",
              "name": "isDeleted",
              "type": "bool"
            },
            {
              "internalType": "string",
              "name": "extension",
              "type": "string"
            },
            {
              "internalType": "enum Vault.Tags",
              "name": "tag",
              "type": "uint8"
            }
          ],
          "internalType": "struct Vault.File[]",
          "name": "",
          "type": "tuple[]"
        }
      ],
      "stateMutability": "view",
      "type": "function"
    },
    {
      "inputs": [],
      "name": "getFilesSharedWithMe",
      "outputs": [
        {
          "components": [
            {
              "internalType": "address",
              "name": "owner",
              "type": "address"
            },
            {
              "internalType": "string",
              "name": "name",
              "type": "string"
            },
            {
              "internalType": "string",
              "name": "description",
              "type": "string"
            },
            {
              "internalType": "uint256",
              "name": "size",
              "type": "uint256"
            },
            {
              "internalType": "uint256",
              "name": "dateUploaded",
              "type": "uint256"
            },
            {
              "internalType": "uint256",
              "name": "dateAccessed",
              "type": "uint256"
            },
            {
              "internalType": "uint256",
              "name": "dateDeleted",
              "type": "uint256"
            },
            {
              "internalType": "uint256",
              "name": "dateModified",
              "type": "uint256"
            },
            {
              "internalType": "string",
              "name": "cid",
              "type": "string"
            },
            {
              "internalType": "bool",
              "name": "isFavourite",
              "type": "bool"
            },
            {
              "internalType": "bool",
              "name": "isShared",
              "type": "bool"
            },
            {
              "internalType": "bool",
              "name": "isArchived",
              "type": "bool"
            },
            {
              "internalType": "bool",
              "name": "isDeleted",
              "type": "bool"
            },
            {
              "internalType": "string",
              "name": "extension",
              "type": "string"
            },
            {
              "internalType": "enum Vault.Tags",
              "name": "tag",
              "type": "uint8"
            }
          ],
          "internalType": "struct Vault.File[]",
          "name": "",
          "type": "tuple[]"
        }
      ],
      "stateMutability": "view",
      "type": "function"
    },
    {
      "inputs": [],
      "name": "getTags",
      "outputs": [
        {
          "internalType": "string[]",
          "name": "",
          "type": "string[]"
        }
      ],
      "stateMutability": "pure",
      "type": "function"
    },
    {
      "inputs": [
        {
          "internalType": "string",
          "name": "_cid",
          "type": "string"
        },
        {
          "internalType": "address",
          "name": "_user",
          "type": "address"
        }
      ],
      "name": "shareFile",
      "outputs": [],
      "stateMutability": "nonpayable",
      "type": "function"
    },
    {
      "inputs": [
        {
          "internalType": "string",
          "name": "_cid",
          "type": "string"
        }
      ],
      "name": "toggleArchive",
      "outputs": [],
      "stateMutability": "nonpayable",
      "type": "function"
    },
    {
      "inputs": [
        {
          "internalType": "string",
          "name": "_cid",
          "type": "string"
        }
      ],
      "name": "toggleDelete",
      "outputs": [],
      "stateMutability": "nonpayable",
      "type": "function"
    },
    {
      "inputs": [
        {
          "internalType": "string",
          "name": "_cid",
          "type": "string"
        }
      ],
      "name": "toggleFavourite",
      "outputs": [],
      "stateMutability": "nonpayable",
      "type": "function"
    },
    {
      "inputs": [
        {
          "internalType": "string",
          "name": "_cid",
          "type": "string"
        },
        {
          "internalType": "address",
          "name": "_user",
          "type": "address"
        }
      ],
      "name": "unshareFile",
      "outputs": [],
      "stateMutability": "nonpayable",
      "type": "function"
    },
    {
      "inputs": [
        {
          "internalType": "string",
          "name": "_cid",
          "type": "string"
        }
      ],
      "name": "updateDateAccessed",
      "outputs": [],
      "stateMutability": "nonpayable",
      "type": "function"
    },
    {
      "inputs": [
        {
          "internalType": "string",
          "name": "_cid",
          "type": "string"
        }
      ],
      "name": "updateDateModified",
      "outputs": [],
      "stateMutability": "nonpayable",
      "type": "function"
    },
    {
      "inputs": [
        {
          "internalType": "string",
          "name": "_cid",
          "type": "string"
        },
        {
          "internalType": "string",
          "name": "_name",
          "type": "string"
        },
        {
          "internalType": "string",
          "name": "_description",
          "type": "string"
        },
        {
          "internalType": "bool",
          "name": "_isFavourite",
          "type": "bool"
        },
        {
          "internalType": "uint256",
          "name": "_size",
          "type": "uint256"
        },
        {
          "internalType": "string",
          "name": "_extension",
          "type": "string"
        },
        {
          "internalType": "enum Vault.Tags",
          "name": "_tag",
          "type": "uint8"
        }
      ],
      "name": "uploadFile",
      "outputs": [],
      "stateMutability": "nonpayable",
      "type": "function"
    }
  ],
  "bytecode": "0x608060405234801561001057600080fd5b506145fe806100206000396000f3fe608060405234801561001057600080fd5b50600436106100ea5760003560e01c806396b946471161008c578063b85f472c11610066578063b85f472c14610221578063e0876aa81461023d578063ebceb82c1461026d578063fa64b48f14610289576100ea565b806396b94647146101c957806396dc7c33146101e5578063995d9ab714610203576100ea565b80633539e493116100c85780633539e4931461014557806335ab4727146101755780637204270e1461019157806382bbe2b1146101ad576100ea565b8063264ced07146100ef5780632ba0f8df1461010b5780632da96d7314610127575b600080fd5b610109600480360381019061010491906134f1565b6102a5565b005b61012560048036038101906101209190613603565b61060c565b005b61012f610840565b60405161013c91906139bb565b60405180910390f35b61015f600480360381019061015a9190613603565b610e32565b60405161016c9190613a8c565b60405180910390f35b61018f600480360381019061018a9190613603565b610f66565b005b6101ab60048036038101906101a69190613603565b61119a565b005b6101c760048036038101906101c29190613603565b6112ee565b005b6101e360048036038101906101de9190613ada565b611442565b005b6101ed6119b8565b6040516101fa91906139bb565b60405180910390f35b61020b612131565b6040516102189190613bf8565b60405180910390f35b61023b60048036038101906102369190613603565b61245d565b005b61025760048036038101906102529190613603565b612846565b6040516102649190613d72565b60405180910390f35b61028760048036038101906102829190613ada565b612c32565b005b6102a3600480360381019061029e9190613d94565b61301a565b005b60008060003373ffffffffffffffffffffffffffffffffffffffff1673ffffffffffffffffffffffffffffffffffffffff168152602001908152602001600020886040516102f39190613eb1565b9081526020016040518091039020600801805461030f90613ef7565b905014610351576040517f08c379a000000000000000000000000000000000000000000000000000000000815260040161034890613f85565b60405180910390fd5b604051806101e001604052803373ffffffffffffffffffffffffffffffffffffffff1681526020018781526020018681526020018481526020014281526020014281526020016000815260200142815260200188815260200185151581526020016000151581526020016000151581526020016000151581526020018381526020018260068111156103e6576103e5613756565b5b8152506000803373ffffffffffffffffffffffffffffffffffffffff1673ffffffffffffffffffffffffffffffffffffffff168152602001908152602001600020886040516104359190613eb1565b908152602001604051809103902060008201518160000160006101000a81548173ffffffffffffffffffffffffffffffffffffffff021916908373ffffffffffffffffffffffffffffffffffffffff160217905550602082015181600101908161049f9190614151565b5060408201518160020190816104b59190614151565b50606082015181600301556080820151816004015560a0820151816005015560c0820151816006015560e082015181600701556101008201518160080190816104fe9190614151565b506101208201518160090160006101000a81548160ff0219169083151502179055506101408201518160090160016101000a81548160ff0219169083151502179055506101608201518160090160026101000a81548160ff0219169083151502179055506101808201518160090160036101000a81548160ff0219169083151502179055506101a082015181600a0190816105999190614151565b506101c082015181600b0160006101000a81548160ff021916908360068111156105c6576105c5613756565b5b02179055509050506004879080600181540180825580915050600190039060005260206000200160009091909190915090816106029190614151565b5050505050505050565b33818173ffffffffffffffffffffffffffffffffffffffff166000808473ffffffffffffffffffffffffffffffffffffffff1673ffffffffffffffffffffffffffffffffffffffff168152602001908152602001600020826040516106719190613eb1565b908152602001604051809103902060000160009054906101000a900473ffffffffffffffffffffffffffffffffffffffff1673ffffffffffffffffffffffffffffffffffffffff16146106f9576040517f08c379a00000000000000000000000000000000000000000000000000000000081526004016106f09061426f565b60405180910390fd5b6000803373ffffffffffffffffffffffffffffffffffffffff1673ffffffffffffffffffffffffffffffffffffffff168152602001908152602001600020836040516107459190613eb1565b908152602001604051809103902060090160029054906101000a900460ff16156000803373ffffffffffffffffffffffffffffffffffffffff1673ffffffffffffffffffffffffffffffffffffffff168152602001908152602001600020846040516107b19190613eb1565b908152602001604051809103902060090160026101000a81548160ff021916908315150217905550426000803373ffffffffffffffffffffffffffffffffffffffff1673ffffffffffffffffffffffffffffffffffffffff168152602001908152602001600020846040516108269190613eb1565b908152602001604051809103902060070181905550505050565b6060600060048054905067ffffffffffffffff81111561086357610862613333565b5b60405190808252806020026020018201604052801561089c57816020015b610889613201565b8152602001906001900390816108815790505b5090506000805b600480549050811015610e29576000600482815481106108c6576108c561428f565b5b9060005260206000200180546108db90613ef7565b80601f016020809104026020016040519081016040528092919081815260200182805461090790613ef7565b80156109545780601f1061092957610100808354040283529160200191610954565b820191906000526020600020905b81548152906001019060200180831161093757829003601f168201915b505050505090503373ffffffffffffffffffffffffffffffffffffffff166000803373ffffffffffffffffffffffffffffffffffffffff1673ffffffffffffffffffffffffffffffffffffffff168152602001908152602001600020826040516109be9190613eb1565b908152602001604051809103902060000160009054906101000a900473ffffffffffffffffffffffffffffffffffffffff1673ffffffffffffffffffffffffffffffffffffffff1603610e15576000803373ffffffffffffffffffffffffffffffffffffffff1673ffffffffffffffffffffffffffffffffffffffff16815260200190815260200160002081604051610a579190613eb1565b9081526020016040518091039020604051806101e00160405290816000820160009054906101000a900473ffffffffffffffffffffffffffffffffffffffff1673ffffffffffffffffffffffffffffffffffffffff1673ffffffffffffffffffffffffffffffffffffffff168152602001600182018054610ad790613ef7565b80601f0160208091040260200160405190810160405280929190818152602001828054610b0390613ef7565b8015610b505780601f10610b2557610100808354040283529160200191610b50565b820191906000526020600020905b815481529060010190602001808311610b3357829003601f168201915b50505050508152602001600282018054610b6990613ef7565b80601f0160208091040260200160405190810160405280929190818152602001828054610b9590613ef7565b8015610be25780601f10610bb757610100808354040283529160200191610be2565b820191906000526020600020905b815481529060010190602001808311610bc557829003601f168201915b505050505081526020016003820154815260200160048201548152602001600582015481526020016006820154815260200160078201548152602001600882018054610c2d90613ef7565b80601f0160208091040260200160405190810160405280929190818152602001828054610c5990613ef7565b8015610ca65780601f10610c7b57610100808354040283529160200191610ca6565b820191906000526020600020905b815481529060010190602001808311610c8957829003601f168201915b505050505081526020016009820160009054906101000a900460ff161515151581526020016009820160019054906101000a900460ff161515151581526020016009820160029054906101000a900460ff161515151581526020016009820160039054906101000a900460ff16151515158152602001600a82018054610d2b90613ef7565b80601f0160208091040260200160405190810160405280929190818152602001828054610d5790613ef7565b8015610da45780601f10610d7957610100808354040283529160200191610da4565b820191906000526020600020905b815481529060010190602001808311610d8757829003601f168201915b50505050508152602001600b820160009054906101000a900460ff166006811115610dd257610dd1613756565b5b6006811115610de457610de3613756565b5b81525050848481518110610dfb57610dfa61428f565b5b60200260200101819052508280610e11906142ed565b9350505b508080610e21906142ed565b9150506108a3565b50819250505090565b60606000600183604051610e469190613eb1565b908152602001604051809103902090506000818054905067ffffffffffffffff811115610e7657610e75613333565b5b604051908082528060200260200182016040528015610ea45781602001602082028036833780820191505090505b50905060005b8280549050811015610f5b57828181548110610ec957610ec861428f565b5b906000526020600020906003020160020160009054906101000a900473ffffffffffffffffffffffffffffffffffffffff16828281518110610f0e57610f0d61428f565b5b602002602001019073ffffffffffffffffffffffffffffffffffffffff16908173ffffffffffffffffffffffffffffffffffffffff16815250508080610f53906142ed565b915050610eaa565b508092505050919050565b33818173ffffffffffffffffffffffffffffffffffffffff166000808473ffffffffffffffffffffffffffffffffffffffff1673ffffffffffffffffffffffffffffffffffffffff16815260200190815260200160002082604051610fcb9190613eb1565b908152602001604051809103902060000160009054906101000a900473ffffffffffffffffffffffffffffffffffffffff1673ffffffffffffffffffffffffffffffffffffffff1614611053576040517f08c379a000000000000000000000000000000000000000000000000000000000815260040161104a9061426f565b60405180910390fd5b6000803373ffffffffffffffffffffffffffffffffffffffff1673ffffffffffffffffffffffffffffffffffffffff1681526020019081526020016000208360405161109f9190613eb1565b908152602001604051809103902060090160009054906101000a900460ff16156000803373ffffffffffffffffffffffffffffffffffffffff1673ffffffffffffffffffffffffffffffffffffffff1681526020019081526020016000208460405161110b9190613eb1565b908152602001604051809103902060090160006101000a81548160ff021916908315150217905550426000803373ffffffffffffffffffffffffffffffffffffffff1673ffffffffffffffffffffffffffffffffffffffff168152602001908152602001600020846040516111809190613eb1565b908152602001604051809103902060070181905550505050565b33818173ffffffffffffffffffffffffffffffffffffffff166000808473ffffffffffffffffffffffffffffffffffffffff1673ffffffffffffffffffffffffffffffffffffffff168152602001908152602001600020826040516111ff9190613eb1565b908152602001604051809103902060000160009054906101000a900473ffffffffffffffffffffffffffffffffffffffff1673ffffffffffffffffffffffffffffffffffffffff1614611287576040517f08c379a000000000000000000000000000000000000000000000000000000000815260040161127e9061426f565b60405180910390fd5b426000803373ffffffffffffffffffffffffffffffffffffffff1673ffffffffffffffffffffffffffffffffffffffff168152602001908152602001600020846040516112d49190613eb1565b908152602001604051809103902060050181905550505050565b33818173ffffffffffffffffffffffffffffffffffffffff166000808473ffffffffffffffffffffffffffffffffffffffff1673ffffffffffffffffffffffffffffffffffffffff168152602001908152602001600020826040516113539190613eb1565b908152602001604051809103902060000160009054906101000a900473ffffffffffffffffffffffffffffffffffffffff1673ffffffffffffffffffffffffffffffffffffffff16146113db576040517f08c379a00000000000000000000000000000000000000000000000000000000081526004016113d29061426f565b60405180910390fd5b426000803373ffffffffffffffffffffffffffffffffffffffff1673ffffffffffffffffffffffffffffffffffffffff168152602001908152602001600020846040516114289190613eb1565b908152602001604051809103902060070181905550505050565b33828173ffffffffffffffffffffffffffffffffffffffff166000808473ffffffffffffffffffffffffffffffffffffffff1673ffffffffffffffffffffffffffffffffffffffff168152602001908152602001600020826040516114a79190613eb1565b908152602001604051809103902060000160009054906101000a900473ffffffffffffffffffffffffffffffffffffffff1673ffffffffffffffffffffffffffffffffffffffff161461152f576040517f08c379a00000000000000000000000000000000000000000000000000000000081526004016115269061426f565b60405180910390fd5b60028460405161153f9190613eb1565b908152602001604051809103902060008473ffffffffffffffffffffffffffffffffffffffff1673ffffffffffffffffffffffffffffffffffffffff16815260200190815260200160002060009054906101000a900460ff166115d7576040517f08c379a00000000000000000000000000000000000000000000000000000000081526004016115ce906143a7565b60405180910390fd5b60006001856040516115e99190613eb1565b9081526020016040518091039020905060005b81805490508110156118cb578473ffffffffffffffffffffffffffffffffffffffff168282815481106116325761163161428f565b5b906000526020600020906003020160020160009054906101000a900473ffffffffffffffffffffffffffffffffffffffff1673ffffffffffffffffffffffffffffffffffffffff16036118b857816001838054905061169191906143c7565b815481106116a2576116a161428f565b5b90600052602060002090600302018282815481106116c3576116c261428f565b5b9060005260206000209060030201600082018160000190816116e59190614411565b506001820160009054906101000a900473ffffffffffffffffffffffffffffffffffffffff168160010160006101000a81548173ffffffffffffffffffffffffffffffffffffffff021916908373ffffffffffffffffffffffffffffffffffffffff1602179055506002820160009054906101000a900473ffffffffffffffffffffffffffffffffffffffff168160020160006101000a81548173ffffffffffffffffffffffffffffffffffffffff021916908373ffffffffffffffffffffffffffffffffffffffff160217905550905050818054806117c8576117c76144f9565b5b6001900381819060005260206000209060030201600080820160006117ed91906132a7565b6001820160006101000a81549073ffffffffffffffffffffffffffffffffffffffff02191690556002820160006101000a81549073ffffffffffffffffffffffffffffffffffffffff02191690555050905560006002876040516118519190613eb1565b908152602001604051809103902060008773ffffffffffffffffffffffffffffffffffffffff1673ffffffffffffffffffffffffffffffffffffffff16815260200190815260200160002060006101000a81548160ff0219169083151502179055506118cb565b80806118c3906142ed565b9150506115fc565b50600081805490500361194f5760008060003373ffffffffffffffffffffffffffffffffffffffff1673ffffffffffffffffffffffffffffffffffffffff168152602001908152602001600020866040516119269190613eb1565b908152602001604051809103902060090160016101000a81548160ff0219169083151502179055505b426000803373ffffffffffffffffffffffffffffffffffffffff1673ffffffffffffffffffffffffffffffffffffffff1681526020019081526020016000208660405161199c9190613eb1565b9081526020016040518091039020600701819055505050505050565b60606000805b600480549050811015611ab9576000600482815481106119e1576119e061428f565b5b9060005260206000200180546119f690613ef7565b80601f0160208091040260200160405190810160405280929190818152602001828054611a2290613ef7565b8015611a6f5780601f10611a4457610100808354040283529160200191611a6f565b820191906000526020600020905b815481529060010190602001808311611a5257829003601f168201915b50505050509050600181604051611a869190613eb1565b90815260200160405180910390208054905083611aa39190614528565b9250508080611ab1906142ed565b9150506119be565b5060008167ffffffffffffffff811115611ad657611ad5613333565b5b604051908082528060200260200182016040528015611b0f57816020015b611afc613201565b815260200190600190039081611af45790505b5090506000805b60048054905081101561212757600060048281548110611b3957611b3861428f565b5b906000526020600020018054611b4e90613ef7565b80601f0160208091040260200160405190810160405280929190818152602001828054611b7a90613ef7565b8015611bc75780601f10611b9c57610100808354040283529160200191611bc7565b820191906000526020600020905b815481529060010190602001808311611baa57829003601f168201915b5050505050905060005b600182604051611be19190613eb1565b908152602001604051809103902080549050811015612112573373ffffffffffffffffffffffffffffffffffffffff16600183604051611c219190613eb1565b90815260200160405180910390208281548110611c4157611c4061428f565b5b906000526020600020906003020160020160009054906101000a900473ffffffffffffffffffffffffffffffffffffffff1673ffffffffffffffffffffffffffffffffffffffff16036120ff576000806000600185604051611ca39190613eb1565b90815260200160405180910390208481548110611cc357611cc261428f565b5b906000526020600020906003020160010160009054906101000a900473ffffffffffffffffffffffffffffffffffffffff1673ffffffffffffffffffffffffffffffffffffffff1673ffffffffffffffffffffffffffffffffffffffff16815260200190815260200160002083604051611d3d9190613eb1565b9081526020016040518091039020905080604051806101e00160405290816000820160009054906101000a900473ffffffffffffffffffffffffffffffffffffffff1673ffffffffffffffffffffffffffffffffffffffff1673ffffffffffffffffffffffffffffffffffffffff168152602001600182018054611dc090613ef7565b80601f0160208091040260200160405190810160405280929190818152602001828054611dec90613ef7565b8015611e395780601f10611e0e57610100808354040283529160200191611e39565b820191906000526020600020905b815481529060010190602001808311611e1c57829003601f168201915b50505050508152602001600282018054611e5290613ef7565b80601f0160208091040260200160405190810160405280929190818152602001828054611e7e90613ef7565b8015611ecb5780601f10611ea057610100808354040283529160200191611ecb565b820191906000526020600020905b815481529060010190602001808311611eae57829003601f168201915b505050505081526020016003820154815260200160048201548152602001600582015481526020016006820154815260200160078201548152602001600882018054611f1690613ef7565b80601f0160208091040260200160405190810160405280929190818152602001828054611f4290613ef7565b8015611f8f5780601f10611f6457610100808354040283529160200191611f8f565b820191906000526020600020905b815481529060010190602001808311611f7257829003601f168201915b505050505081526020016009820160009054906101000a900460ff161515151581526020016009820160019054906101000a900460ff161515151581526020016009820160029054906101000a900460ff161515151581526020016009820160039054906101000a900460ff16151515158152602001600a8201805461201490613ef7565b80601f016020809104026020016040519081016040528092919081815260200182805461204090613ef7565b801561208d5780601f106120625761010080835404028352916020019161208d565b820191906000526020600020905b81548152906001019060200180831161207057829003601f168201915b50505050508152602001600b820160009054906101000a900460ff1660068111156120bb576120ba613756565b5b60068111156120cd576120cc613756565b5b815250508686815181106120e4576120e361428f565b5b602002602001018190525084806120fa906142ed565b955050505b808061210a906142ed565b915050611bd1565b5050808061211f906142ed565b915050611b16565b5081935050505090565b60606000600767ffffffffffffffff8111156121505761214f613333565b5b60405190808252806020026020018201604052801561218357816020015b606081526020019060019003908161216e5790505b5090506040518060400160405280600581526020017f4f7468657200000000000000000000000000000000000000000000000000000081525081600060068111156121d1576121d0613756565b5b815181106121e2576121e161428f565b5b60200260200101819052506040518060400160405280600981526020017f456475636174696f6e0000000000000000000000000000000000000000000000815250816001600681111561223857612237613756565b5b815181106122495761224861428f565b5b60200260200101819052506040518060400160405280600681526020017f4865616c74680000000000000000000000000000000000000000000000000000815250816002600681111561229f5761229e613756565b5b815181106122b0576122af61428f565b5b60200260200101819052506040518060400160405280600781526020017f46696e616e636500000000000000000000000000000000000000000000000000815250816003600681111561230657612305613756565b5b815181106123175761231661428f565b5b60200260200101819052506040518060400160405280600881526020017f427573696e657373000000000000000000000000000000000000000000000000815250816004600681111561236d5761236c613756565b5b8151811061237e5761237d61428f565b5b60200260200101819052506040518060400160405280600681526020017f46616d696c79000000000000000000000000000000000000000000000000000081525081600560068111156123d4576123d3613756565b5b815181106123e5576123e461428f565b5b60200260200101819052506040518060400160405280600681526020017f52616e646f6d00000000000000000000000000000000000000000000000000008152508160068081111561243a57612439613756565b5b8151811061244b5761244a61428f565b5b60200260200101819052508091505090565b33818173ffffffffffffffffffffffffffffffffffffffff166000808473ffffffffffffffffffffffffffffffffffffffff1673ffffffffffffffffffffffffffffffffffffffff168152602001908152602001600020826040516124c29190613eb1565b908152602001604051809103902060000160009054906101000a900473ffffffffffffffffffffffffffffffffffffffff1673ffffffffffffffffffffffffffffffffffffffff161461254a576040517f08c379a00000000000000000000000000000000000000000000000000000000081526004016125419061426f565b60405180910390fd5b6000803373ffffffffffffffffffffffffffffffffffffffff1673ffffffffffffffffffffffffffffffffffffffff168152602001908152602001600020836040516125969190613eb1565b908152602001604051809103902060090160039054906101000a900460ff16156127315760008060003373ffffffffffffffffffffffffffffffffffffffff1673ffffffffffffffffffffffffffffffffffffffff168152602001908152602001600020846040516126089190613eb1565b908152602001604051809103902060090160036101000a81548160ff02191690831515021790555060006003846040516126429190613eb1565b908152602001604051809103902060006101000a81548160ff021916908315150217905550426000803373ffffffffffffffffffffffffffffffffffffffff1673ffffffffffffffffffffffffffffffffffffffff168152602001908152602001600020846040516126b49190613eb1565b90815260200160405180910390206007018190555060008060003373ffffffffffffffffffffffffffffffffffffffff1673ffffffffffffffffffffffffffffffffffffffff168152602001908152602001600020846040516127179190613eb1565b908152602001604051809103902060060181905550612841565b60016000803373ffffffffffffffffffffffffffffffffffffffff1673ffffffffffffffffffffffffffffffffffffffff1681526020019081526020016000208460405161277f9190613eb1565b908152602001604051809103902060090160036101000a81548160ff021916908315150217905550426000803373ffffffffffffffffffffffffffffffffffffffff1673ffffffffffffffffffffffffffffffffffffffff168152602001908152602001600020846040516127f49190613eb1565b908152602001604051809103902060060181905550600160038460405161281b9190613eb1565b908152602001604051809103902060006101000a81548160ff0219169083151502179055505b505050565b61284e613201565b6000803373ffffffffffffffffffffffffffffffffffffffff1673ffffffffffffffffffffffffffffffffffffffff1681526020019081526020016000208260405161289a9190613eb1565b9081526020016040518091039020604051806101e00160405290816000820160009054906101000a900473ffffffffffffffffffffffffffffffffffffffff1673ffffffffffffffffffffffffffffffffffffffff1673ffffffffffffffffffffffffffffffffffffffff16815260200160018201805461291a90613ef7565b80601f016020809104026020016040519081016040528092919081815260200182805461294690613ef7565b80156129935780601f1061296857610100808354040283529160200191612993565b820191906000526020600020905b81548152906001019060200180831161297657829003601f168201915b505050505081526020016002820180546129ac90613ef7565b80601f01602080910402602001604051908101604052809291908181526020018280546129d890613ef7565b8015612a255780601f106129fa57610100808354040283529160200191612a25565b820191906000526020600020905b815481529060010190602001808311612a0857829003601f168201915b505050505081526020016003820154815260200160048201548152602001600582015481526020016006820154815260200160078201548152602001600882018054612a7090613ef7565b80601f0160208091040260200160405190810160405280929190818152602001828054612a9c90613ef7565b8015612ae95780601f10612abe57610100808354040283529160200191612ae9565b820191906000526020600020905b815481529060010190602001808311612acc57829003601f168201915b505050505081526020016009820160009054906101000a900460ff161515151581526020016009820160019054906101000a900460ff161515151581526020016009820160029054906101000a900460ff161515151581526020016009820160039054906101000a900460ff16151515158152602001600a82018054612b6e90613ef7565b80601f0160208091040260200160405190810160405280929190818152602001828054612b9a90613ef7565b8015612be75780601f10612bbc57610100808354040283529160200191612be7565b820191906000526020600020905b815481529060010190602001808311612bca57829003601f168201915b50505050508152602001600b820160009054906101000a900460ff166006811115612c1557612c14613756565b5b6006811115612c2757612c26613756565b5b815250509050919050565b33828173ffffffffffffffffffffffffffffffffffffffff166000808473ffffffffffffffffffffffffffffffffffffffff1673ffffffffffffffffffffffffffffffffffffffff16815260200190815260200160002082604051612c979190613eb1565b908152602001604051809103902060000160009054906101000a900473ffffffffffffffffffffffffffffffffffffffff1673ffffffffffffffffffffffffffffffffffffffff1614612d1f576040517f08c379a0000000000000000000000000000000000000000000000000000000008152600401612d169061426f565b60405180910390fd5b600073ffffffffffffffffffffffffffffffffffffffff168373ffffffffffffffffffffffffffffffffffffffff1603612d8e576040517f08c379a0000000000000000000000000000000000000000000000000000000008152600401612d85906145a8565b60405180910390fd5b600060405180606001604052808681526020013373ffffffffffffffffffffffffffffffffffffffff1681526020018573ffffffffffffffffffffffffffffffffffffffff168152509050600185604051612de99190613eb1565b90815260200160405180910390208190806001815401808255809150506001900390600052602060002090600302016000909190919091506000820151816000019081612e369190614151565b5060208201518160010160006101000a81548173ffffffffffffffffffffffffffffffffffffffff021916908373ffffffffffffffffffffffffffffffffffffffff16021790555060408201518160020160006101000a81548173ffffffffffffffffffffffffffffffffffffffff021916908373ffffffffffffffffffffffffffffffffffffffff16021790555050506001600286604051612ed99190613eb1565b908152602001604051809103902060008673ffffffffffffffffffffffffffffffffffffffff1673ffffffffffffffffffffffffffffffffffffffff16815260200190815260200160002060006101000a81548160ff021916908315150217905550426000803373ffffffffffffffffffffffffffffffffffffffff1673ffffffffffffffffffffffffffffffffffffffff16815260200190815260200160002086604051612f889190613eb1565b90815260200160405180910390206005018190555060016000803373ffffffffffffffffffffffffffffffffffffffff1673ffffffffffffffffffffffffffffffffffffffff16815260200190815260200160002086604051612feb9190613eb1565b908152602001604051809103902060090160016101000a81548160ff0219169083151502179055505050505050565b33868173ffffffffffffffffffffffffffffffffffffffff166000808473ffffffffffffffffffffffffffffffffffffffff1673ffffffffffffffffffffffffffffffffffffffff1681526020019081526020016000208260405161307f9190613eb1565b908152602001604051809103902060000160009054906101000a900473ffffffffffffffffffffffffffffffffffffffff1673ffffffffffffffffffffffffffffffffffffffff1614613107576040517f08c379a00000000000000000000000000000000000000000000000000000000081526004016130fe9061426f565b60405180910390fd5b60008060003373ffffffffffffffffffffffffffffffffffffffff1673ffffffffffffffffffffffffffffffffffffffff168152602001908152602001600020896040516131559190613eb1565b90815260200160405180910390209050878160010190816131769190614151565b50868160020190816131889190614151565b50858160090160006101000a81548160ff021916908315150217905550848160090160026101000a81548160ff0219169083151502179055508381600b0160006101000a81548160ff021916908360068111156131e8576131e7613756565b5b0217905550428160070181905550505050505050505050565b604051806101e00160405280600073ffffffffffffffffffffffffffffffffffffffff168152602001606081526020016060815260200160008152602001600081526020016000815260200160008152602001600081526020016060815260200160001515815260200160001515815260200160001515815260200160001515815260200160608152602001600060068111156132a1576132a0613756565b5b81525090565b5080546132b390613ef7565b6000825580601f106132c557506132e4565b601f0160209004906000526020600020908101906132e391906132e7565b5b50565b5b808211156133005760008160009055506001016132e8565b5090565b6000604051905090565b600080fd5b600080fd5b600080fd5b600080fd5b6000601f19601f8301169050919050565b7f4e487b7100000000000000000000000000000000000000000000000000000000600052604160045260246000fd5b61336b82613322565b810181811067ffffffffffffffff8211171561338a57613389613333565b5b80604052505050565b600061339d613304565b90506133a98282613362565b919050565b600067ffffffffffffffff8211156133c9576133c8613333565b5b6133d282613322565b9050602081019050919050565b82818337600083830152505050565b60006134016133fc846133ae565b613393565b90508281526020810184848401111561341d5761341c61331d565b5b6134288482856133df565b509392505050565b600082601f83011261344557613444613318565b5b81356134558482602086016133ee565b91505092915050565b60008115159050919050565b6134738161345e565b811461347e57600080fd5b50565b6000813590506134908161346a565b92915050565b6000819050919050565b6134a981613496565b81146134b457600080fd5b50565b6000813590506134c6816134a0565b92915050565b600781106134d957600080fd5b50565b6000813590506134eb816134cc565b92915050565b600080600080600080600060e0888a0312156135105761350f61330e565b5b600088013567ffffffffffffffff81111561352e5761352d613313565b5b61353a8a828b01613430565b975050602088013567ffffffffffffffff81111561355b5761355a613313565b5b6135678a828b01613430565b965050604088013567ffffffffffffffff81111561358857613587613313565b5b6135948a828b01613430565b95505060606135a58a828b01613481565b94505060806135b68a828b016134b7565b93505060a088013567ffffffffffffffff8111156135d7576135d6613313565b5b6135e38a828b01613430565b92505060c06135f48a828b016134dc565b91505092959891949750929550565b6000602082840312156136195761361861330e565b5b600082013567ffffffffffffffff81111561363757613636613313565b5b61364384828501613430565b91505092915050565b600081519050919050565b600082825260208201905092915050565b6000819050602082019050919050565b600073ffffffffffffffffffffffffffffffffffffffff82169050919050565b60006136a382613678565b9050919050565b6136b381613698565b82525050565b600081519050919050565b600082825260208201905092915050565b60005b838110156136f35780820151818401526020810190506136d8565b60008484015250505050565b600061370a826136b9565b61371481856136c4565b93506137248185602086016136d5565b61372d81613322565b840191505092915050565b61374181613496565b82525050565b6137508161345e565b82525050565b7f4e487b7100000000000000000000000000000000000000000000000000000000600052602160045260246000fd5b6007811061379657613795613756565b5b50565b60008190506137a782613785565b919050565b60006137b782613799565b9050919050565b6137c7816137ac565b82525050565b60006101e0830160008301516137e660008601826136aa565b50602083015184820360208601526137fe82826136ff565b9150506040830151848203604086015261381882826136ff565b915050606083015161382d6060860182613738565b5060808301516138406080860182613738565b5060a083015161385360a0860182613738565b5060c083015161386660c0860182613738565b5060e083015161387960e0860182613738565b5061010083015184820361010086015261389382826136ff565b9150506101208301516138aa610120860182613747565b506101408301516138bf610140860182613747565b506101608301516138d4610160860182613747565b506101808301516138e9610180860182613747565b506101a08301518482036101a086015261390382826136ff565b9150506101c083015161391a6101c08601826137be565b508091505092915050565b600061393183836137cd565b905092915050565b6000602082019050919050565b60006139518261364c565b61395b8185613657565b93508360208202850161396d85613668565b8060005b858110156139a9578484038952815161398a8582613925565b945061399583613939565b925060208a01995050600181019050613971565b50829750879550505050505092915050565b600060208201905081810360008301526139d58184613946565b905092915050565b600081519050919050565b600082825260208201905092915050565b6000819050602082019050919050565b6000613a1583836136aa565b60208301905092915050565b6000602082019050919050565b6000613a39826139dd565b613a4381856139e8565b9350613a4e836139f9565b8060005b83811015613a7f578151613a668882613a09565b9750613a7183613a21565b925050600181019050613a52565b5085935050505092915050565b60006020820190508181036000830152613aa68184613a2e565b905092915050565b613ab781613698565b8114613ac257600080fd5b50565b600081359050613ad481613aae565b92915050565b60008060408385031215613af157613af061330e565b5b600083013567ffffffffffffffff811115613b0f57613b0e613313565b5b613b1b85828601613430565b9250506020613b2c85828601613ac5565b9150509250929050565b600081519050919050565b600082825260208201905092915050565b6000819050602082019050919050565b6000613b6e83836136ff565b905092915050565b6000602082019050919050565b6000613b8e82613b36565b613b988185613b41565b935083602082028501613baa85613b52565b8060005b85811015613be65784840389528151613bc78582613b62565b9450613bd283613b76565b925060208a01995050600181019050613bae565b50829750879550505050505092915050565b60006020820190508181036000830152613c128184613b83565b905092915050565b60006101e083016000830151613c3360008601826136aa565b5060208301518482036020860152613c4b82826136ff565b91505060408301518482036040860152613c6582826136ff565b9150506060830151613c7a6060860182613738565b506080830151613c8d6080860182613738565b5060a0830151613ca060a0860182613738565b5060c0830151613cb360c0860182613738565b5060e0830151613cc660e0860182613738565b50610100830151848203610100860152613ce082826136ff565b915050610120830151613cf7610120860182613747565b50610140830151613d0c610140860182613747565b50610160830151613d21610160860182613747565b50610180830151613d36610180860182613747565b506101a08301518482036101a0860152613d5082826136ff565b9150506101c0830151613d676101c08601826137be565b508091505092915050565b60006020820190508181036000830152613d8c8184613c1a565b905092915050565b60008060008060008060c08789031215613db157613db061330e565b5b600087013567ffffffffffffffff811115613dcf57613dce613313565b5b613ddb89828a01613430565b965050602087013567ffffffffffffffff811115613dfc57613dfb613313565b5b613e0889828a01613430565b955050604087013567ffffffffffffffff811115613e2957613e28613313565b5b613e3589828a01613430565b9450506060613e4689828a01613481565b9350506080613e5789828a01613481565b92505060a0613e6889828a016134dc565b9150509295509295509295565b600081905092915050565b6000613e8b826136b9565b613e958185613e75565b9350613ea58185602086016136d5565b80840191505092915050565b6000613ebd8284613e80565b915081905092915050565b7f4e487b7100000000000000000000000000000000000000000000000000000000600052602260045260246000fd5b60006002820490506001821680613f0f57607f821691505b602082108103613f2257613f21613ec8565b5b50919050565b600082825260208201905092915050565b7f46696c6520616c72656164792065786973747300000000000000000000000000600082015250565b6000613f6f601383613f28565b9150613f7a82613f39565b602082019050919050565b60006020820190508181036000830152613f9e81613f62565b9050919050565b60008190508160005260206000209050919050565b60006020601f8301049050919050565b600082821b905092915050565b6000600883026140077fffffffffffffffffffffffffffffffffffffffffffffffffffffffffffffffff82613fca565b6140118683613fca565b95508019841693508086168417925050509392505050565b6000819050919050565b600061404e61404961404484613496565b614029565b613496565b9050919050565b6000819050919050565b61406883614033565b61407c61407482614055565b848454613fd7565b825550505050565b600090565b614091614084565b61409c81848461405f565b505050565b5b818110156140c0576140b5600082614089565b6001810190506140a2565b5050565b601f821115614105576140d681613fa5565b6140df84613fba565b810160208510156140ee578190505b6141026140fa85613fba565b8301826140a1565b50505b505050565b600082821c905092915050565b60006141286000198460080261410a565b1980831691505092915050565b60006141418383614117565b9150826002028217905092915050565b61415a826136b9565b67ffffffffffffffff81111561417357614172613333565b5b61417d8254613ef7565b6141888282856140c4565b600060209050601f8311600181146141bb57600084156141a9578287015190505b6141b38582614135565b86555061421b565b601f1984166141c986613fa5565b60005b828110156141f1578489015182556001820191506020850194506020810190506141cc565b8683101561420e578489015161420a601f891682614117565b8355505b6001600288020188555050505b505050505050565b7f46696c6520646f6573206e6f7420657869737400000000000000000000000000600082015250565b6000614259601383613f28565b915061426482614223565b602082019050919050565b600060208201905081810360008301526142888161424c565b9050919050565b7f4e487b7100000000000000000000000000000000000000000000000000000000600052603260045260246000fd5b7f4e487b7100000000000000000000000000000000000000000000000000000000600052601160045260246000fd5b60006142f882613496565b91507fffffffffffffffffffffffffffffffffffffffffffffffffffffffffffffffff820361432a576143296142be565b5b600182019050919050565b7f46696c65206973206e6f7420736861726564207769746820746869732075736560008201527f7200000000000000000000000000000000000000000000000000000000000000602082015250565b6000614391602183613f28565b915061439c82614335565b604082019050919050565b600060208201905081810360008301526143c081614384565b9050919050565b60006143d282613496565b91506143dd83613496565b92508282039050818111156143f5576143f46142be565b5b92915050565b60008154905061440a81613ef7565b9050919050565b81810361441f5750506144f7565b614428826143fb565b67ffffffffffffffff81111561444157614440613333565b5b61444b8254613ef7565b6144568282856140c4565b6000601f8311600181146144855760008415614473578287015490505b61447d8582614135565b8655506144f0565b601f19841661449387613fa5565b965061449e86613fa5565b60005b828110156144c6578489015482556001820191506001850194506020810190506144a1565b868310156144e357848901546144df601f891682614117565b8355505b6001600288020188555050505b5050505050505b565b7f4e487b7100000000000000000000000000000000000000000000000000000000600052603160045260246000fd5b600061453382613496565b915061453e83613496565b9250828201905080821115614556576145556142be565b5b92915050565b7f496e76616c696420757365722061646472657373000000000000000000000000600082015250565b6000614592601483613f28565b915061459d8261455c565b602082019050919050565b600060208201905081810360008301526145c181614585565b905091905056fea2646970667358221220368adcf9845b8785dc79d4d89e8582ff34baf5d9a46296a9ae48891299278cc464736f6c63430008110033",
  "linkReferences": {},
  "deployedLinkReferences": {}
}