{
  "_format": "hh-sol-artifact-1",
  "contractName": "Vault",
  "sourceName": "contracts/Vault.sol",
  "abi": [
    {
      "inputs": [
        {
          "internalType": "string",
          "name": "_cid",
          "type": "string"
        },
        {
          "internalType": "string",
          "name": "_name",
          "type": "string"
        },
        {
          "internalType": "string",
          "name": "_description",
          "type": "string"
        },
        {
          "internalType": "enum Vault.Tags",
          "name": "_tag",
          "type": "uint8"
        },
        {
          "internalType": "string",
          "name": "_extension",
          "type": "string"
        }
      ],
      "name": "editFile",
      "outputs": [],
      "stateMutability": "nonpayable",
      "type": "function"
    },
    {
      "inputs": [
        {
          "internalType": "string",
          "name": "_cid",
          "type": "string"
        }
      ],
      "name": "getFile",
      "outputs": [
        {
          "components": [
            {
              "internalType": "address",
              "name": "owner",
              "type": "address"
            },
            {
              "internalType": "string",
              "name": "name",
              "type": "string"
            },
            {
              "internalType": "string",
              "name": "description",
              "type": "string"
            },
            {
              "internalType": "uint256",
              "name": "size",
              "type": "uint256"
            },
            {
              "internalType": "uint256",
              "name": "dateUploaded",
              "type": "uint256"
            },
            {
              "internalType": "uint256",
              "name": "dateAccessed",
              "type": "uint256"
            },
            {
              "internalType": "uint256",
              "name": "dateDeleted",
              "type": "uint256"
            },
            {
              "internalType": "uint256",
              "name": "dateModified",
              "type": "uint256"
            },
            {
              "internalType": "string",
              "name": "cid",
              "type": "string"
            },
            {
              "internalType": "bool",
              "name": "isFavourite",
              "type": "bool"
            },
            {
              "internalType": "bool",
              "name": "isArchived",
              "type": "bool"
            },
            {
              "internalType": "bool",
              "name": "isDeleted",
              "type": "bool"
            },
            {
              "internalType": "string",
              "name": "extension",
              "type": "string"
            },
            {
              "internalType": "enum Vault.Tags",
              "name": "tag",
              "type": "uint8"
            }
          ],
          "internalType": "struct Vault.File",
          "name": "",
          "type": "tuple"
        }
      ],
      "stateMutability": "view",
      "type": "function"
    },
    {
      "inputs": [
        {
          "internalType": "string",
          "name": "_cid",
          "type": "string"
        }
      ],
      "name": "getFileAccessors",
      "outputs": [
        {
          "internalType": "address[]",
          "name": "",
          "type": "address[]"
        }
      ],
      "stateMutability": "view",
      "type": "function"
    },
    {
      "inputs": [],
      "name": "getFiles",
      "outputs": [
        {
          "components": [
            {
              "internalType": "address",
              "name": "owner",
              "type": "address"
            },
            {
              "internalType": "string",
              "name": "name",
              "type": "string"
            },
            {
              "internalType": "string",
              "name": "description",
              "type": "string"
            },
            {
              "internalType": "uint256",
              "name": "size",
              "type": "uint256"
            },
            {
              "internalType": "uint256",
              "name": "dateUploaded",
              "type": "uint256"
            },
            {
              "internalType": "uint256",
              "name": "dateAccessed",
              "type": "uint256"
            },
            {
              "internalType": "uint256",
              "name": "dateDeleted",
              "type": "uint256"
            },
            {
              "internalType": "uint256",
              "name": "dateModified",
              "type": "uint256"
            },
            {
              "internalType": "string",
              "name": "cid",
              "type": "string"
            },
            {
              "internalType": "bool",
              "name": "isFavourite",
              "type": "bool"
            },
            {
              "internalType": "bool",
              "name": "isArchived",
              "type": "bool"
            },
            {
              "internalType": "bool",
              "name": "isDeleted",
              "type": "bool"
            },
            {
              "internalType": "string",
              "name": "extension",
              "type": "string"
            },
            {
              "internalType": "enum Vault.Tags",
              "name": "tag",
              "type": "uint8"
            }
          ],
          "internalType": "struct Vault.File[]",
          "name": "",
          "type": "tuple[]"
        }
      ],
      "stateMutability": "view",
      "type": "function"
    },
    {
      "inputs": [],
      "name": "getFilesSharedWithMe",
      "outputs": [
        {
          "components": [
            {
              "internalType": "address",
              "name": "owner",
              "type": "address"
            },
            {
              "internalType": "string",
              "name": "name",
              "type": "string"
            },
            {
              "internalType": "string",
              "name": "description",
              "type": "string"
            },
            {
              "internalType": "uint256",
              "name": "size",
              "type": "uint256"
            },
            {
              "internalType": "uint256",
              "name": "dateUploaded",
              "type": "uint256"
            },
            {
              "internalType": "uint256",
              "name": "dateAccessed",
              "type": "uint256"
            },
            {
              "internalType": "uint256",
              "name": "dateDeleted",
              "type": "uint256"
            },
            {
              "internalType": "uint256",
              "name": "dateModified",
              "type": "uint256"
            },
            {
              "internalType": "string",
              "name": "cid",
              "type": "string"
            },
            {
              "internalType": "bool",
              "name": "isFavourite",
              "type": "bool"
            },
            {
              "internalType": "bool",
              "name": "isArchived",
              "type": "bool"
            },
            {
              "internalType": "bool",
              "name": "isDeleted",
              "type": "bool"
            },
            {
              "internalType": "string",
              "name": "extension",
              "type": "string"
            },
            {
              "internalType": "enum Vault.Tags",
              "name": "tag",
              "type": "uint8"
            }
          ],
          "internalType": "struct Vault.File[]",
          "name": "",
          "type": "tuple[]"
        }
      ],
      "stateMutability": "view",
      "type": "function"
    },
    {
      "inputs": [],
      "name": "getTags",
      "outputs": [
        {
          "internalType": "string[]",
          "name": "",
          "type": "string[]"
        }
      ],
      "stateMutability": "pure",
      "type": "function"
    },
    {
      "inputs": [
        {
          "internalType": "string",
          "name": "_cid",
          "type": "string"
        },
        {
          "internalType": "address",
          "name": "_user",
          "type": "address"
        }
      ],
      "name": "shareFile",
      "outputs": [],
      "stateMutability": "nonpayable",
      "type": "function"
    },
    {
      "inputs": [
        {
          "internalType": "string",
          "name": "_cid",
          "type": "string"
        }
      ],
      "name": "toggleArchive",
      "outputs": [],
      "stateMutability": "nonpayable",
      "type": "function"
    },
    {
      "inputs": [
        {
          "internalType": "string",
          "name": "_cid",
          "type": "string"
        }
      ],
      "name": "toggleDelete",
      "outputs": [],
      "stateMutability": "nonpayable",
      "type": "function"
    },
    {
      "inputs": [
        {
          "internalType": "string",
          "name": "_cid",
          "type": "string"
        }
      ],
      "name": "toggleFavourite",
      "outputs": [],
      "stateMutability": "nonpayable",
      "type": "function"
    },
    {
      "inputs": [
        {
          "internalType": "string",
          "name": "_cid",
          "type": "string"
        },
        {
          "internalType": "address",
          "name": "_user",
          "type": "address"
        }
      ],
      "name": "unshareFile",
      "outputs": [],
      "stateMutability": "nonpayable",
      "type": "function"
    },
    {
      "inputs": [
        {
          "internalType": "string",
          "name": "_cid",
          "type": "string"
        }
      ],
      "name": "updateDateAccessed",
      "outputs": [],
      "stateMutability": "nonpayable",
      "type": "function"
    },
    {
      "inputs": [
        {
          "internalType": "string",
          "name": "_cid",
          "type": "string"
        }
      ],
      "name": "updateDateModified",
      "outputs": [],
      "stateMutability": "nonpayable",
      "type": "function"
    },
    {
      "inputs": [
        {
          "internalType": "string",
          "name": "_cid",
          "type": "string"
        },
        {
          "internalType": "string",
          "name": "_name",
          "type": "string"
        },
        {
          "internalType": "string",
          "name": "_description",
          "type": "string"
        },
        {
          "internalType": "bool",
          "name": "_isFavourite",
          "type": "bool"
        },
        {
          "internalType": "uint256",
          "name": "_size",
          "type": "uint256"
        },
        {
          "internalType": "string",
          "name": "_extension",
          "type": "string"
        },
        {
          "internalType": "enum Vault.Tags",
          "name": "_tag",
          "type": "uint8"
        }
      ],
      "name": "uploadFile",
      "outputs": [],
      "stateMutability": "nonpayable",
      "type": "function"
    }
  ],
  "bytecode": "0x608060405234801561001057600080fd5b5061443a806100206000396000f3fe608060405234801561001057600080fd5b50600436106100ea5760003560e01c806396b946471161008c578063b85f472c11610066578063b85f472c14610221578063bc88637a1461023d578063e0876aa814610259578063ebceb82c14610289576100ea565b806396b94647146101c957806396dc7c33146101e5578063995d9ab714610203576100ea565b80633539e493116100c85780633539e4931461014557806335ab4727146101755780637204270e1461019157806382bbe2b1146101ad576100ea565b8063264ced07146100ef5780632ba0f8df1461010b5780632da96d7314610127575b600080fd5b6101096004803603810190610104919061334d565b6102a5565b005b6101256004803603810190610120919061345f565b6105e2565b005b61012f610816565b60405161013c9190613802565b60405180910390f35b61015f600480360381019061015a919061345f565b610ded565b60405161016c91906138d3565b60405180910390f35b61018f600480360381019061018a919061345f565b610f21565b005b6101ab60048036038101906101a6919061345f565b611155565b005b6101c760048036038101906101c2919061345f565b6112a9565b005b6101e360048036038101906101de9190613921565b6113fd565b005b6101ed6118f0565b6040516101fa9190613802565b60405180910390f35b61020b61204e565b6040516102189190613a3f565b60405180910390f35b61023b6004803603810190610236919061345f565b61237a565b005b61025760048036038101906102529190613a61565b612763565b005b610273600480360381019061026e919061345f565b612923565b6040516102809190613c8f565b60405180910390f35b6102a3600480360381019061029e9190613921565b612cf4565b005b60008060003373ffffffffffffffffffffffffffffffffffffffff1673ffffffffffffffffffffffffffffffffffffffff168152602001908152602001600020886040516102f39190613ced565b9081526020016040518091039020600801805461030f90613d33565b905014610351576040517f08c379a000000000000000000000000000000000000000000000000000000000815260040161034890613dc1565b60405180910390fd5b604051806101c001604052803373ffffffffffffffffffffffffffffffffffffffff1681526020018781526020018681526020018481526020014281526020014281526020016000815260200142815260200188815260200185151581526020016000151581526020016000151581526020018381526020018260068111156103dd576103dc6135b2565b5b8152506000803373ffffffffffffffffffffffffffffffffffffffff1673ffffffffffffffffffffffffffffffffffffffff1681526020019081526020016000208860405161042c9190613ced565b908152602001604051809103902060008201518160000160006101000a81548173ffffffffffffffffffffffffffffffffffffffff021916908373ffffffffffffffffffffffffffffffffffffffff16021790555060208201518160010190816104969190613f8d565b5060408201518160020190816104ac9190613f8d565b50606082015181600301556080820151816004015560a0820151816005015560c0820151816006015560e082015181600701556101008201518160080190816104f59190613f8d565b506101208201518160090160006101000a81548160ff0219169083151502179055506101408201518160090160016101000a81548160ff0219169083151502179055506101608201518160090160026101000a81548160ff02191690831515021790555061018082015181600a01908161056f9190613f8d565b506101a082015181600b0160006101000a81548160ff0219169083600681111561059c5761059b6135b2565b5b02179055509050506004879080600181540180825580915050600190039060005260206000200160009091909190915090816105d89190613f8d565b5050505050505050565b33818173ffffffffffffffffffffffffffffffffffffffff166000808473ffffffffffffffffffffffffffffffffffffffff1673ffffffffffffffffffffffffffffffffffffffff168152602001908152602001600020826040516106479190613ced565b908152602001604051809103902060000160009054906101000a900473ffffffffffffffffffffffffffffffffffffffff1673ffffffffffffffffffffffffffffffffffffffff16146106cf576040517f08c379a00000000000000000000000000000000000000000000000000000000081526004016106c6906140ab565b60405180910390fd5b6000803373ffffffffffffffffffffffffffffffffffffffff1673ffffffffffffffffffffffffffffffffffffffff1681526020019081526020016000208360405161071b9190613ced565b908152602001604051809103902060090160019054906101000a900460ff16156000803373ffffffffffffffffffffffffffffffffffffffff1673ffffffffffffffffffffffffffffffffffffffff168152602001908152602001600020846040516107879190613ced565b908152602001604051809103902060090160016101000a81548160ff021916908315150217905550426000803373ffffffffffffffffffffffffffffffffffffffff1673ffffffffffffffffffffffffffffffffffffffff168152602001908152602001600020846040516107fc9190613ced565b908152602001604051809103902060070181905550505050565b6060600060048054905067ffffffffffffffff8111156108395761083861318f565b5b60405190808252806020026020018201604052801561087257816020015b61085f613066565b8152602001906001900390816108575790505b5090506000805b600480549050811015610de45760006004828154811061089c5761089b6140cb565b5b9060005260206000200180546108b190613d33565b80601f01602080910402602001604051908101604052809291908181526020018280546108dd90613d33565b801561092a5780601f106108ff5761010080835404028352916020019161092a565b820191906000526020600020905b81548152906001019060200180831161090d57829003601f168201915b505050505090503373ffffffffffffffffffffffffffffffffffffffff166000803373ffffffffffffffffffffffffffffffffffffffff1673ffffffffffffffffffffffffffffffffffffffff168152602001908152602001600020826040516109949190613ced565b908152602001604051809103902060000160009054906101000a900473ffffffffffffffffffffffffffffffffffffffff1673ffffffffffffffffffffffffffffffffffffffff1603610dd0576000803373ffffffffffffffffffffffffffffffffffffffff1673ffffffffffffffffffffffffffffffffffffffff16815260200190815260200160002081604051610a2d9190613ced565b9081526020016040518091039020604051806101c00160405290816000820160009054906101000a900473ffffffffffffffffffffffffffffffffffffffff1673ffffffffffffffffffffffffffffffffffffffff1673ffffffffffffffffffffffffffffffffffffffff168152602001600182018054610aad90613d33565b80601f0160208091040260200160405190810160405280929190818152602001828054610ad990613d33565b8015610b265780601f10610afb57610100808354040283529160200191610b26565b820191906000526020600020905b815481529060010190602001808311610b0957829003601f168201915b50505050508152602001600282018054610b3f90613d33565b80601f0160208091040260200160405190810160405280929190818152602001828054610b6b90613d33565b8015610bb85780601f10610b8d57610100808354040283529160200191610bb8565b820191906000526020600020905b815481529060010190602001808311610b9b57829003601f168201915b505050505081526020016003820154815260200160048201548152602001600582015481526020016006820154815260200160078201548152602001600882018054610c0390613d33565b80601f0160208091040260200160405190810160405280929190818152602001828054610c2f90613d33565b8015610c7c5780601f10610c5157610100808354040283529160200191610c7c565b820191906000526020600020905b815481529060010190602001808311610c5f57829003601f168201915b505050505081526020016009820160009054906101000a900460ff161515151581526020016009820160019054906101000a900460ff161515151581526020016009820160029054906101000a900460ff16151515158152602001600a82018054610ce690613d33565b80601f0160208091040260200160405190810160405280929190818152602001828054610d1290613d33565b8015610d5f5780601f10610d3457610100808354040283529160200191610d5f565b820191906000526020600020905b815481529060010190602001808311610d4257829003601f168201915b50505050508152602001600b820160009054906101000a900460ff166006811115610d8d57610d8c6135b2565b5b6006811115610d9f57610d9e6135b2565b5b81525050848481518110610db657610db56140cb565b5b60200260200101819052508280610dcc90614129565b9350505b508080610ddc90614129565b915050610879565b50819250505090565b60606000600183604051610e019190613ced565b908152602001604051809103902090506000818054905067ffffffffffffffff811115610e3157610e3061318f565b5b604051908082528060200260200182016040528015610e5f5781602001602082028036833780820191505090505b50905060005b8280549050811015610f1657828181548110610e8457610e836140cb565b5b906000526020600020906003020160020160009054906101000a900473ffffffffffffffffffffffffffffffffffffffff16828281518110610ec957610ec86140cb565b5b602002602001019073ffffffffffffffffffffffffffffffffffffffff16908173ffffffffffffffffffffffffffffffffffffffff16815250508080610f0e90614129565b915050610e65565b508092505050919050565b33818173ffffffffffffffffffffffffffffffffffffffff166000808473ffffffffffffffffffffffffffffffffffffffff1673ffffffffffffffffffffffffffffffffffffffff16815260200190815260200160002082604051610f869190613ced565b908152602001604051809103902060000160009054906101000a900473ffffffffffffffffffffffffffffffffffffffff1673ffffffffffffffffffffffffffffffffffffffff161461100e576040517f08c379a0000000000000000000000000000000000000000000000000000000008152600401611005906140ab565b60405180910390fd5b6000803373ffffffffffffffffffffffffffffffffffffffff1673ffffffffffffffffffffffffffffffffffffffff1681526020019081526020016000208360405161105a9190613ced565b908152602001604051809103902060090160009054906101000a900460ff16156000803373ffffffffffffffffffffffffffffffffffffffff1673ffffffffffffffffffffffffffffffffffffffff168152602001908152602001600020846040516110c69190613ced565b908152602001604051809103902060090160006101000a81548160ff021916908315150217905550426000803373ffffffffffffffffffffffffffffffffffffffff1673ffffffffffffffffffffffffffffffffffffffff1681526020019081526020016000208460405161113b9190613ced565b908152602001604051809103902060070181905550505050565b33818173ffffffffffffffffffffffffffffffffffffffff166000808473ffffffffffffffffffffffffffffffffffffffff1673ffffffffffffffffffffffffffffffffffffffff168152602001908152602001600020826040516111ba9190613ced565b908152602001604051809103902060000160009054906101000a900473ffffffffffffffffffffffffffffffffffffffff1673ffffffffffffffffffffffffffffffffffffffff1614611242576040517f08c379a0000000000000000000000000000000000000000000000000000000008152600401611239906140ab565b60405180910390fd5b426000803373ffffffffffffffffffffffffffffffffffffffff1673ffffffffffffffffffffffffffffffffffffffff1681526020019081526020016000208460405161128f9190613ced565b908152602001604051809103902060050181905550505050565b33818173ffffffffffffffffffffffffffffffffffffffff166000808473ffffffffffffffffffffffffffffffffffffffff1673ffffffffffffffffffffffffffffffffffffffff1681526020019081526020016000208260405161130e9190613ced565b908152602001604051809103902060000160009054906101000a900473ffffffffffffffffffffffffffffffffffffffff1673ffffffffffffffffffffffffffffffffffffffff1614611396576040517f08c379a000000000000000000000000000000000000000000000000000000000815260040161138d906140ab565b60405180910390fd5b426000803373ffffffffffffffffffffffffffffffffffffffff1673ffffffffffffffffffffffffffffffffffffffff168152602001908152602001600020846040516113e39190613ced565b908152602001604051809103902060070181905550505050565b33828173ffffffffffffffffffffffffffffffffffffffff166000808473ffffffffffffffffffffffffffffffffffffffff1673ffffffffffffffffffffffffffffffffffffffff168152602001908152602001600020826040516114629190613ced565b908152602001604051809103902060000160009054906101000a900473ffffffffffffffffffffffffffffffffffffffff1673ffffffffffffffffffffffffffffffffffffffff16146114ea576040517f08c379a00000000000000000000000000000000000000000000000000000000081526004016114e1906140ab565b60405180910390fd5b6002846040516114fa9190613ced565b908152602001604051809103902060008473ffffffffffffffffffffffffffffffffffffffff1673ffffffffffffffffffffffffffffffffffffffff16815260200190815260200160002060009054906101000a900460ff16611592576040517f08c379a0000000000000000000000000000000000000000000000000000000008152600401611589906141e3565b60405180910390fd5b60006001856040516115a49190613ced565b9081526020016040518091039020905060005b8180549050811015611886578473ffffffffffffffffffffffffffffffffffffffff168282815481106115ed576115ec6140cb565b5b906000526020600020906003020160020160009054906101000a900473ffffffffffffffffffffffffffffffffffffffff1673ffffffffffffffffffffffffffffffffffffffff160361187357816001838054905061164c9190614203565b8154811061165d5761165c6140cb565b5b906000526020600020906003020182828154811061167e5761167d6140cb565b5b9060005260206000209060030201600082018160000190816116a0919061424d565b506001820160009054906101000a900473ffffffffffffffffffffffffffffffffffffffff168160010160006101000a81548173ffffffffffffffffffffffffffffffffffffffff021916908373ffffffffffffffffffffffffffffffffffffffff1602179055506002820160009054906101000a900473ffffffffffffffffffffffffffffffffffffffff168160020160006101000a81548173ffffffffffffffffffffffffffffffffffffffff021916908373ffffffffffffffffffffffffffffffffffffffff1602179055509050508180548061178357611782614335565b5b6001900381819060005260206000209060030201600080820160006117a89190613103565b6001820160006101000a81549073ffffffffffffffffffffffffffffffffffffffff02191690556002820160006101000a81549073ffffffffffffffffffffffffffffffffffffffff021916905550509055600060028760405161180c9190613ced565b908152602001604051809103902060008773ffffffffffffffffffffffffffffffffffffffff1673ffffffffffffffffffffffffffffffffffffffff16815260200190815260200160002060006101000a81548160ff021916908315150217905550611886565b808061187e90614129565b9150506115b7565b50426000803373ffffffffffffffffffffffffffffffffffffffff1673ffffffffffffffffffffffffffffffffffffffff168152602001908152602001600020866040516118d49190613ced565b9081526020016040518091039020600701819055505050505050565b60606000805b6004805490508110156119f157600060048281548110611919576119186140cb565b5b90600052602060002001805461192e90613d33565b80601f016020809104026020016040519081016040528092919081815260200182805461195a90613d33565b80156119a75780601f1061197c576101008083540402835291602001916119a7565b820191906000526020600020905b81548152906001019060200180831161198a57829003601f168201915b505050505090506001816040516119be9190613ced565b908152602001604051809103902080549050836119db9190614364565b92505080806119e990614129565b9150506118f6565b5060008167ffffffffffffffff811115611a0e57611a0d61318f565b5b604051908082528060200260200182016040528015611a4757816020015b611a34613066565b815260200190600190039081611a2c5790505b5090506000805b60048054905081101561204457600060048281548110611a7157611a706140cb565b5b906000526020600020018054611a8690613d33565b80601f0160208091040260200160405190810160405280929190818152602001828054611ab290613d33565b8015611aff5780601f10611ad457610100808354040283529160200191611aff565b820191906000526020600020905b815481529060010190602001808311611ae257829003601f168201915b5050505050905060005b600182604051611b199190613ced565b90815260200160405180910390208054905081101561202f573373ffffffffffffffffffffffffffffffffffffffff16600183604051611b599190613ced565b90815260200160405180910390208281548110611b7957611b786140cb565b5b906000526020600020906003020160020160009054906101000a900473ffffffffffffffffffffffffffffffffffffffff1673ffffffffffffffffffffffffffffffffffffffff160361201c576000806000600185604051611bdb9190613ced565b90815260200160405180910390208481548110611bfb57611bfa6140cb565b5b906000526020600020906003020160010160009054906101000a900473ffffffffffffffffffffffffffffffffffffffff1673ffffffffffffffffffffffffffffffffffffffff1673ffffffffffffffffffffffffffffffffffffffff16815260200190815260200160002083604051611c759190613ced565b9081526020016040518091039020905080604051806101c00160405290816000820160009054906101000a900473ffffffffffffffffffffffffffffffffffffffff1673ffffffffffffffffffffffffffffffffffffffff1673ffffffffffffffffffffffffffffffffffffffff168152602001600182018054611cf890613d33565b80601f0160208091040260200160405190810160405280929190818152602001828054611d2490613d33565b8015611d715780601f10611d4657610100808354040283529160200191611d71565b820191906000526020600020905b815481529060010190602001808311611d5457829003601f168201915b50505050508152602001600282018054611d8a90613d33565b80601f0160208091040260200160405190810160405280929190818152602001828054611db690613d33565b8015611e035780601f10611dd857610100808354040283529160200191611e03565b820191906000526020600020905b815481529060010190602001808311611de657829003601f168201915b505050505081526020016003820154815260200160048201548152602001600582015481526020016006820154815260200160078201548152602001600882018054611e4e90613d33565b80601f0160208091040260200160405190810160405280929190818152602001828054611e7a90613d33565b8015611ec75780601f10611e9c57610100808354040283529160200191611ec7565b820191906000526020600020905b815481529060010190602001808311611eaa57829003601f168201915b505050505081526020016009820160009054906101000a900460ff161515151581526020016009820160019054906101000a900460ff161515151581526020016009820160029054906101000a900460ff16151515158152602001600a82018054611f3190613d33565b80601f0160208091040260200160405190810160405280929190818152602001828054611f5d90613d33565b8015611faa5780601f10611f7f57610100808354040283529160200191611faa565b820191906000526020600020905b815481529060010190602001808311611f8d57829003601f168201915b50505050508152602001600b820160009054906101000a900460ff166006811115611fd857611fd76135b2565b5b6006811115611fea57611fe96135b2565b5b81525050868681518110612001576120006140cb565b5b6020026020010181905250848061201790614129565b955050505b808061202790614129565b915050611b09565b5050808061203c90614129565b915050611a4e565b5081935050505090565b60606000600767ffffffffffffffff81111561206d5761206c61318f565b5b6040519080825280602002602001820160405280156120a057816020015b606081526020019060019003908161208b5790505b5090506040518060400160405280600581526020017f4f7468657200000000000000000000000000000000000000000000000000000081525081600060068111156120ee576120ed6135b2565b5b815181106120ff576120fe6140cb565b5b60200260200101819052506040518060400160405280600981526020017f456475636174696f6e00000000000000000000000000000000000000000000008152508160016006811115612155576121546135b2565b5b81518110612166576121656140cb565b5b60200260200101819052506040518060400160405280600681526020017f4865616c7468000000000000000000000000000000000000000000000000000081525081600260068111156121bc576121bb6135b2565b5b815181106121cd576121cc6140cb565b5b60200260200101819052506040518060400160405280600781526020017f46696e616e6365000000000000000000000000000000000000000000000000008152508160036006811115612223576122226135b2565b5b81518110612234576122336140cb565b5b60200260200101819052506040518060400160405280600881526020017f427573696e657373000000000000000000000000000000000000000000000000815250816004600681111561228a576122896135b2565b5b8151811061229b5761229a6140cb565b5b60200260200101819052506040518060400160405280600681526020017f46616d696c79000000000000000000000000000000000000000000000000000081525081600560068111156122f1576122f06135b2565b5b81518110612302576123016140cb565b5b60200260200101819052506040518060400160405280600681526020017f52616e646f6d000000000000000000000000000000000000000000000000000081525081600680811115612357576123566135b2565b5b81518110612368576123676140cb565b5b60200260200101819052508091505090565b33818173ffffffffffffffffffffffffffffffffffffffff166000808473ffffffffffffffffffffffffffffffffffffffff1673ffffffffffffffffffffffffffffffffffffffff168152602001908152602001600020826040516123df9190613ced565b908152602001604051809103902060000160009054906101000a900473ffffffffffffffffffffffffffffffffffffffff1673ffffffffffffffffffffffffffffffffffffffff1614612467576040517f08c379a000000000000000000000000000000000000000000000000000000000815260040161245e906140ab565b60405180910390fd5b6000803373ffffffffffffffffffffffffffffffffffffffff1673ffffffffffffffffffffffffffffffffffffffff168152602001908152602001600020836040516124b39190613ced565b908152602001604051809103902060090160029054906101000a900460ff161561264e5760008060003373ffffffffffffffffffffffffffffffffffffffff1673ffffffffffffffffffffffffffffffffffffffff168152602001908152602001600020846040516125259190613ced565b908152602001604051809103902060090160026101000a81548160ff021916908315150217905550600060038460405161255f9190613ced565b908152602001604051809103902060006101000a81548160ff021916908315150217905550426000803373ffffffffffffffffffffffffffffffffffffffff1673ffffffffffffffffffffffffffffffffffffffff168152602001908152602001600020846040516125d19190613ced565b90815260200160405180910390206007018190555060008060003373ffffffffffffffffffffffffffffffffffffffff1673ffffffffffffffffffffffffffffffffffffffff168152602001908152602001600020846040516126349190613ced565b90815260200160405180910390206006018190555061275e565b60016000803373ffffffffffffffffffffffffffffffffffffffff1673ffffffffffffffffffffffffffffffffffffffff1681526020019081526020016000208460405161269c9190613ced565b908152602001604051809103902060090160026101000a81548160ff021916908315150217905550426000803373ffffffffffffffffffffffffffffffffffffffff1673ffffffffffffffffffffffffffffffffffffffff168152602001908152602001600020846040516127119190613ced565b90815260200160405180910390206006018190555060016003846040516127389190613ced565b908152602001604051809103902060006101000a81548160ff0219169083151502179055505b505050565b33858173ffffffffffffffffffffffffffffffffffffffff166000808473ffffffffffffffffffffffffffffffffffffffff1673ffffffffffffffffffffffffffffffffffffffff168152602001908152602001600020826040516127c89190613ced565b908152602001604051809103902060000160009054906101000a900473ffffffffffffffffffffffffffffffffffffffff1673ffffffffffffffffffffffffffffffffffffffff1614612850576040517f08c379a0000000000000000000000000000000000000000000000000000000008152600401612847906140ab565b60405180910390fd5b60008060003373ffffffffffffffffffffffffffffffffffffffff1673ffffffffffffffffffffffffffffffffffffffff1681526020019081526020016000208860405161289e9190613ced565b90815260200160405180910390209050868160010190816128bf9190613f8d565b50858160020190816128d19190613f8d565b508481600b0160006101000a81548160ff021916908360068111156128f9576128f86135b2565b5b02179055508381600a01908161290f9190613f8d565b504281600701819055505050505050505050565b61292b613066565b6000803373ffffffffffffffffffffffffffffffffffffffff1673ffffffffffffffffffffffffffffffffffffffff168152602001908152602001600020826040516129779190613ced565b9081526020016040518091039020604051806101c00160405290816000820160009054906101000a900473ffffffffffffffffffffffffffffffffffffffff1673ffffffffffffffffffffffffffffffffffffffff1673ffffffffffffffffffffffffffffffffffffffff1681526020016001820180546129f790613d33565b80601f0160208091040260200160405190810160405280929190818152602001828054612a2390613d33565b8015612a705780601f10612a4557610100808354040283529160200191612a70565b820191906000526020600020905b815481529060010190602001808311612a5357829003601f168201915b50505050508152602001600282018054612a8990613d33565b80601f0160208091040260200160405190810160405280929190818152602001828054612ab590613d33565b8015612b025780601f10612ad757610100808354040283529160200191612b02565b820191906000526020600020905b815481529060010190602001808311612ae557829003601f168201915b505050505081526020016003820154815260200160048201548152602001600582015481526020016006820154815260200160078201548152602001600882018054612b4d90613d33565b80601f0160208091040260200160405190810160405280929190818152602001828054612b7990613d33565b8015612bc65780601f10612b9b57610100808354040283529160200191612bc6565b820191906000526020600020905b815481529060010190602001808311612ba957829003601f168201915b505050505081526020016009820160009054906101000a900460ff161515151581526020016009820160019054906101000a900460ff161515151581526020016009820160029054906101000a900460ff16151515158152602001600a82018054612c3090613d33565b80601f0160208091040260200160405190810160405280929190818152602001828054612c5c90613d33565b8015612ca95780601f10612c7e57610100808354040283529160200191612ca9565b820191906000526020600020905b815481529060010190602001808311612c8c57829003601f168201915b50505050508152602001600b820160009054906101000a900460ff166006811115612cd757612cd66135b2565b5b6006811115612ce957612ce86135b2565b5b815250509050919050565b33828173ffffffffffffffffffffffffffffffffffffffff166000808473ffffffffffffffffffffffffffffffffffffffff1673ffffffffffffffffffffffffffffffffffffffff16815260200190815260200160002082604051612d599190613ced565b908152602001604051809103902060000160009054906101000a900473ffffffffffffffffffffffffffffffffffffffff1673ffffffffffffffffffffffffffffffffffffffff1614612de1576040517f08c379a0000000000000000000000000000000000000000000000000000000008152600401612dd8906140ab565b60405180910390fd5b600073ffffffffffffffffffffffffffffffffffffffff168373ffffffffffffffffffffffffffffffffffffffff1603612e50576040517f08c379a0000000000000000000000000000000000000000000000000000000008152600401612e47906143e4565b60405180910390fd5b600060405180606001604052808681526020013373ffffffffffffffffffffffffffffffffffffffff1681526020018573ffffffffffffffffffffffffffffffffffffffff168152509050600185604051612eab9190613ced565b90815260200160405180910390208190806001815401808255809150506001900390600052602060002090600302016000909190919091506000820151816000019081612ef89190613f8d565b5060208201518160010160006101000a81548173ffffffffffffffffffffffffffffffffffffffff021916908373ffffffffffffffffffffffffffffffffffffffff16021790555060408201518160020160006101000a81548173ffffffffffffffffffffffffffffffffffffffff021916908373ffffffffffffffffffffffffffffffffffffffff16021790555050506001600286604051612f9b9190613ced565b908152602001604051809103902060008673ffffffffffffffffffffffffffffffffffffffff1673ffffffffffffffffffffffffffffffffffffffff16815260200190815260200160002060006101000a81548160ff021916908315150217905550426000803373ffffffffffffffffffffffffffffffffffffffff1673ffffffffffffffffffffffffffffffffffffffff1681526020019081526020016000208660405161304a9190613ced565b9081526020016040518091039020600501819055505050505050565b604051806101c00160405280600073ffffffffffffffffffffffffffffffffffffffff168152602001606081526020016060815260200160008152602001600081526020016000815260200160008152602001600081526020016060815260200160001515815260200160001515815260200160001515815260200160608152602001600060068111156130fd576130fc6135b2565b5b81525090565b50805461310f90613d33565b6000825580601f106131215750613140565b601f01602090049060005260206000209081019061313f9190613143565b5b50565b5b8082111561315c576000816000905550600101613144565b5090565b6000604051905090565b600080fd5b600080fd5b600080fd5b600080fd5b6000601f19601f8301169050919050565b7f4e487b7100000000000000000000000000000000000000000000000000000000600052604160045260246000fd5b6131c78261317e565b810181811067ffffffffffffffff821117156131e6576131e561318f565b5b80604052505050565b60006131f9613160565b905061320582826131be565b919050565b600067ffffffffffffffff8211156132255761322461318f565b5b61322e8261317e565b9050602081019050919050565b82818337600083830152505050565b600061325d6132588461320a565b6131ef565b90508281526020810184848401111561327957613278613179565b5b61328484828561323b565b509392505050565b600082601f8301126132a1576132a0613174565b5b81356132b184826020860161324a565b91505092915050565b60008115159050919050565b6132cf816132ba565b81146132da57600080fd5b50565b6000813590506132ec816132c6565b92915050565b6000819050919050565b613305816132f2565b811461331057600080fd5b50565b600081359050613322816132fc565b92915050565b6007811061333557600080fd5b50565b60008135905061334781613328565b92915050565b600080600080600080600060e0888a03121561336c5761336b61316a565b5b600088013567ffffffffffffffff81111561338a5761338961316f565b5b6133968a828b0161328c565b975050602088013567ffffffffffffffff8111156133b7576133b661316f565b5b6133c38a828b0161328c565b965050604088013567ffffffffffffffff8111156133e4576133e361316f565b5b6133f08a828b0161328c565b95505060606134018a828b016132dd565b94505060806134128a828b01613313565b93505060a088013567ffffffffffffffff8111156134335761343261316f565b5b61343f8a828b0161328c565b92505060c06134508a828b01613338565b91505092959891949750929550565b6000602082840312156134755761347461316a565b5b600082013567ffffffffffffffff8111156134935761349261316f565b5b61349f8482850161328c565b91505092915050565b600081519050919050565b600082825260208201905092915050565b6000819050602082019050919050565b600073ffffffffffffffffffffffffffffffffffffffff82169050919050565b60006134ff826134d4565b9050919050565b61350f816134f4565b82525050565b600081519050919050565b600082825260208201905092915050565b60005b8381101561354f578082015181840152602081019050613534565b60008484015250505050565b600061356682613515565b6135708185613520565b9350613580818560208601613531565b6135898161317e565b840191505092915050565b61359d816132f2565b82525050565b6135ac816132ba565b82525050565b7f4e487b7100000000000000000000000000000000000000000000000000000000600052602160045260246000fd5b600781106135f2576135f16135b2565b5b50565b6000819050613603826135e1565b919050565b6000613613826135f5565b9050919050565b61362381613608565b82525050565b60006101c0830160008301516136426000860182613506565b506020830151848203602086015261365a828261355b565b91505060408301518482036040860152613674828261355b565b91505060608301516136896060860182613594565b50608083015161369c6080860182613594565b5060a08301516136af60a0860182613594565b5060c08301516136c260c0860182613594565b5060e08301516136d560e0860182613594565b506101008301518482036101008601526136ef828261355b565b9150506101208301516137066101208601826135a3565b5061014083015161371b6101408601826135a3565b506101608301516137306101608601826135a3565b5061018083015184820361018086015261374a828261355b565b9150506101a08301516137616101a086018261361a565b508091505092915050565b60006137788383613629565b905092915050565b6000602082019050919050565b6000613798826134a8565b6137a281856134b3565b9350836020820285016137b4856134c4565b8060005b858110156137f057848403895281516137d1858261376c565b94506137dc83613780565b925060208a019950506001810190506137b8565b50829750879550505050505092915050565b6000602082019050818103600083015261381c818461378d565b905092915050565b600081519050919050565b600082825260208201905092915050565b6000819050602082019050919050565b600061385c8383613506565b60208301905092915050565b6000602082019050919050565b600061388082613824565b61388a818561382f565b935061389583613840565b8060005b838110156138c65781516138ad8882613850565b97506138b883613868565b925050600181019050613899565b5085935050505092915050565b600060208201905081810360008301526138ed8184613875565b905092915050565b6138fe816134f4565b811461390957600080fd5b50565b60008135905061391b816138f5565b92915050565b600080604083850312156139385761393761316a565b5b600083013567ffffffffffffffff8111156139565761395561316f565b5b6139628582860161328c565b92505060206139738582860161390c565b9150509250929050565b600081519050919050565b600082825260208201905092915050565b6000819050602082019050919050565b60006139b5838361355b565b905092915050565b6000602082019050919050565b60006139d58261397d565b6139df8185613988565b9350836020820285016139f185613999565b8060005b85811015613a2d5784840389528151613a0e85826139a9565b9450613a19836139bd565b925060208a019950506001810190506139f5565b50829750879550505050505092915050565b60006020820190508181036000830152613a5981846139ca565b905092915050565b600080600080600060a08688031215613a7d57613a7c61316a565b5b600086013567ffffffffffffffff811115613a9b57613a9a61316f565b5b613aa78882890161328c565b955050602086013567ffffffffffffffff811115613ac857613ac761316f565b5b613ad48882890161328c565b945050604086013567ffffffffffffffff811115613af557613af461316f565b5b613b018882890161328c565b9350506060613b1288828901613338565b925050608086013567ffffffffffffffff811115613b3357613b3261316f565b5b613b3f8882890161328c565b9150509295509295909350565b60006101c083016000830151613b656000860182613506565b5060208301518482036020860152613b7d828261355b565b91505060408301518482036040860152613b97828261355b565b9150506060830151613bac6060860182613594565b506080830151613bbf6080860182613594565b5060a0830151613bd260a0860182613594565b5060c0830151613be560c0860182613594565b5060e0830151613bf860e0860182613594565b50610100830151848203610100860152613c12828261355b565b915050610120830151613c296101208601826135a3565b50610140830151613c3e6101408601826135a3565b50610160830151613c536101608601826135a3565b50610180830151848203610180860152613c6d828261355b565b9150506101a0830151613c846101a086018261361a565b508091505092915050565b60006020820190508181036000830152613ca98184613b4c565b905092915050565b600081905092915050565b6000613cc782613515565b613cd18185613cb1565b9350613ce1818560208601613531565b80840191505092915050565b6000613cf98284613cbc565b915081905092915050565b7f4e487b7100000000000000000000000000000000000000000000000000000000600052602260045260246000fd5b60006002820490506001821680613d4b57607f821691505b602082108103613d5e57613d5d613d04565b5b50919050565b600082825260208201905092915050565b7f46696c6520616c72656164792065786973747300000000000000000000000000600082015250565b6000613dab601383613d64565b9150613db682613d75565b602082019050919050565b60006020820190508181036000830152613dda81613d9e565b9050919050565b60008190508160005260206000209050919050565b60006020601f8301049050919050565b600082821b905092915050565b600060088302613e437fffffffffffffffffffffffffffffffffffffffffffffffffffffffffffffffff82613e06565b613e4d8683613e06565b95508019841693508086168417925050509392505050565b6000819050919050565b6000613e8a613e85613e80846132f2565b613e65565b6132f2565b9050919050565b6000819050919050565b613ea483613e6f565b613eb8613eb082613e91565b848454613e13565b825550505050565b600090565b613ecd613ec0565b613ed8818484613e9b565b505050565b5b81811015613efc57613ef1600082613ec5565b600181019050613ede565b5050565b601f821115613f4157613f1281613de1565b613f1b84613df6565b81016020851015613f2a578190505b613f3e613f3685613df6565b830182613edd565b50505b505050565b600082821c905092915050565b6000613f6460001984600802613f46565b1980831691505092915050565b6000613f7d8383613f53565b9150826002028217905092915050565b613f9682613515565b67ffffffffffffffff811115613faf57613fae61318f565b5b613fb98254613d33565b613fc4828285613f00565b600060209050601f831160018114613ff75760008415613fe5578287015190505b613fef8582613f71565b865550614057565b601f19841661400586613de1565b60005b8281101561402d57848901518255600182019150602085019450602081019050614008565b8683101561404a5784890151614046601f891682613f53565b8355505b6001600288020188555050505b505050505050565b7f46696c6520646f6573206e6f7420657869737400000000000000000000000000600082015250565b6000614095601383613d64565b91506140a08261405f565b602082019050919050565b600060208201905081810360008301526140c481614088565b9050919050565b7f4e487b7100000000000000000000000000000000000000000000000000000000600052603260045260246000fd5b7f4e487b7100000000000000000000000000000000000000000000000000000000600052601160045260246000fd5b6000614134826132f2565b91507fffffffffffffffffffffffffffffffffffffffffffffffffffffffffffffffff8203614166576141656140fa565b5b600182019050919050565b7f46696c65206973206e6f7420736861726564207769746820746869732075736560008201527f7200000000000000000000000000000000000000000000000000000000000000602082015250565b60006141cd602183613d64565b91506141d882614171565b604082019050919050565b600060208201905081810360008301526141fc816141c0565b9050919050565b600061420e826132f2565b9150614219836132f2565b9250828203905081811115614231576142306140fa565b5b92915050565b60008154905061424681613d33565b9050919050565b81810361425b575050614333565b61426482614237565b67ffffffffffffffff81111561427d5761427c61318f565b5b6142878254613d33565b614292828285613f00565b6000601f8311600181146142c157600084156142af578287015490505b6142b98582613f71565b86555061432c565b601f1984166142cf87613de1565b96506142da86613de1565b60005b82811015614302578489015482556001820191506001850194506020810190506142dd565b8683101561431f578489015461431b601f891682613f53565b8355505b6001600288020188555050505b5050505050505b565b7f4e487b7100000000000000000000000000000000000000000000000000000000600052603160045260246000fd5b600061436f826132f2565b915061437a836132f2565b9250828201905080821115614392576143916140fa565b5b92915050565b7f496e76616c696420757365722061646472657373000000000000000000000000600082015250565b60006143ce601483613d64565b91506143d982614398565b602082019050919050565b600060208201905081810360008301526143fd816143c1565b905091905056fea2646970667358221220b1e4ad35c954c4bc30752212ba3466c08a7207f60eca04899a3b411772a58aee64736f6c63430008110033",
  "linkReferences": {},
  "deployedLinkReferences": {}
}